{
	"contracts/BetCandidate.sol": {
		"BetCandidate": {
			"abi": [
				{
					"inputs": [],
					"stateMutability": "nonpayable",
					"type": "constructor"
				},
				{
					"inputs": [
						{
							"internalType": "address",
							"name": "",
							"type": "address"
						}
					],
					"name": "allBets",
					"outputs": [
						{
							"internalType": "uint256",
							"name": "amount",
							"type": "uint256"
						},
						{
							"internalType": "uint256",
							"name": "candidate",
							"type": "uint256"
						},
						{
							"internalType": "uint256",
							"name": "timestamp",
							"type": "uint256"
						},
						{
							"internalType": "uint256",
							"name": "claimed",
							"type": "uint256"
						}
					],
					"stateMutability": "view",
					"type": "function"
				},
				{
					"inputs": [
						{
							"internalType": "uint256",
							"name": "candidate",
							"type": "uint256"
						}
					],
					"name": "bet",
					"outputs": [],
					"stateMutability": "payable",
					"type": "function"
				},
				{
					"inputs": [],
					"name": "claim",
					"outputs": [],
					"stateMutability": "nonpayable",
					"type": "function"
				},
				{
					"inputs": [],
					"name": "commission",
					"outputs": [
						{
							"internalType": "uint256",
							"name": "",
							"type": "uint256"
						}
					],
					"stateMutability": "view",
					"type": "function"
				},
				{
					"inputs": [],
					"name": "commissionWithdrawn",
					"outputs": [
						{
							"internalType": "bool",
							"name": "",
							"type": "bool"
						}
					],
					"stateMutability": "view",
					"type": "function"
				},
				{
					"inputs": [],
					"name": "dispute",
					"outputs": [
						{
							"internalType": "string",
							"name": "candidate1",
							"type": "string"
						},
						{
							"internalType": "string",
							"name": "candidate2",
							"type": "string"
						},
						{
							"internalType": "string",
							"name": "image1",
							"type": "string"
						},
						{
							"internalType": "string",
							"name": "image2",
							"type": "string"
						},
						{
							"internalType": "uint256",
							"name": "total1",
							"type": "uint256"
						},
						{
							"internalType": "uint256",
							"name": "total2",
							"type": "uint256"
						},
						{
							"internalType": "uint256",
							"name": "winner",
							"type": "uint256"
						}
					],
					"stateMutability": "view",
					"type": "function"
				},
				{
					"inputs": [
						{
							"internalType": "uint256",
							"name": "winner",
							"type": "uint256"
						}
					],
					"name": "finish",
					"outputs": [],
					"stateMutability": "nonpayable",
					"type": "function"
				},
				{
					"inputs": [],
					"name": "netPrize",
					"outputs": [
						{
							"internalType": "uint256",
							"name": "",
							"type": "uint256"
						}
					],
					"stateMutability": "view",
					"type": "function"
				},
				{
					"inputs": [],
					"name": "prazoDaAposta",
					"outputs": [
						{
							"internalType": "uint256",
							"name": "",
							"type": "uint256"
						}
					],
					"stateMutability": "view",
					"type": "function"
				},
				{
					"inputs": [],
					"name": "sacarComissao",
					"outputs": [],
					"stateMutability": "nonpayable",
					"type": "function"
				}
			],
			"devdoc": {
				"kind": "dev",
				"methods": {},
				"version": 1
			},
			"evm": {
				"assembly": "    /* \"contracts/BetCandidate.sol\":324:3084  contract BetCandidate {... */\n  mstore(0x40, 0x80)\n    /* \"contracts/BetCandidate.sol\":462:466  1000 */\n  0x03e8\n    /* \"contracts/BetCandidate.sol\":451:466  uint fee = 1000 */\n  0x09\n  sstore\n    /* \"contracts/BetCandidate.sol\":627:1037  constructor(){... */\n  callvalue\n  dup1\n  iszero\n  tag_1\n  jumpi\n  0x00\n  dup1\n  revert\ntag_1:\n  pop\n    /* \"contracts/BetCandidate.sol\":659:669  msg.sender */\n  caller\n    /* \"contracts/BetCandidate.sol\":651:656  owner */\n  0x08\n  0x00\n    /* \"contracts/BetCandidate.sol\":651:669  owner = msg.sender */\n  0x0100\n  exp\n  dup2\n  sload\n  dup2\n  0xffffffffffffffffffffffffffffffffffffffff\n  mul\n  not\n  and\n  swap1\n  dup4\n  0xffffffffffffffffffffffffffffffffffffffff\n  and\n  mul\n  or\n  swap1\n  sstore\n  pop\n    /* \"contracts/BetCandidate.sol\":690:949  Dispute({... */\n  mload(0x40)\n  dup1\n  0xe0\n  add\n  0x40\n  mstore\n  dup1\n  mload(0x40)\n  dup1\n  0x40\n  add\n  0x40\n  mstore\n  dup1\n  0x08\n  dup2\n  mstore\n  0x20\n  add\n  0x442e205472756d70000000000000000000000000000000000000000000000000\n  dup2\n  mstore\n  pop\n  dup2\n  mstore\n  0x20\n  add\n  mload(0x40)\n  dup1\n  0x40\n  add\n  0x40\n  mstore\n  dup1\n  0x09\n  dup2\n  mstore\n  0x20\n  add\n  0x4b2e204861727269730000000000000000000000000000000000000000000000\n  dup2\n  mstore\n  pop\n  dup2\n  mstore\n  0x20\n  add\n  mload(0x40)\n  dup1\n  0x40\n  add\n  0x40\n  mstore\n  dup1\n  0x15\n  dup2\n  mstore\n  0x20\n  add\n  0x687474703a2f2f6269742e6c792f337a6d536669410000000000000000000000\n  dup2\n  mstore\n  pop\n  dup2\n  mstore\n  0x20\n  add\n  mload(0x40)\n  dup1\n  0x40\n  add\n  0x40\n  mstore\n  dup1\n  0x15\n  dup2\n  mstore\n  0x20\n  add\n  0x687474703a2f2f6269742e6c792f346746346d594f0000000000000000000000\n  dup2\n  mstore\n  pop\n  dup2\n  mstore\n  0x20\n  add\n    /* \"contracts/BetCandidate.sol\":888:889  0 */\n  0x00\n    /* \"contracts/BetCandidate.sol\":690:949  Dispute({... */\n  dup2\n  mstore\n  0x20\n  add\n    /* \"contracts/BetCandidate.sol\":912:913  0 */\n  0x00\n    /* \"contracts/BetCandidate.sol\":690:949  Dispute({... */\n  dup2\n  mstore\n  0x20\n  add\n    /* \"contracts/BetCandidate.sol\":936:937  0 */\n  0x00\n    /* \"contracts/BetCandidate.sol\":690:949  Dispute({... */\n  dup2\n  mstore\n  pop\n    /* \"contracts/BetCandidate.sol\":680:687  dispute */\n  0x00\n    /* \"contracts/BetCandidate.sol\":680:949  dispute = Dispute({... */\n  dup1\n  dup3\n  add\n  mload\n  dup2\n  0x00\n  add\n  swap1\n  dup2\n  tag_4\n  swap2\n  swap1\n  tag_5\n  jump\t// in\ntag_4:\n  pop\n  0x20\n  dup3\n  add\n  mload\n  dup2\n  0x01\n  add\n  swap1\n  dup2\n  tag_6\n  swap2\n  swap1\n  tag_5\n  jump\t// in\ntag_6:\n  pop\n  0x40\n  dup3\n  add\n  mload\n  dup2\n  0x02\n  add\n  swap1\n  dup2\n  tag_7\n  swap2\n  swap1\n  tag_5\n  jump\t// in\ntag_7:\n  pop\n  0x60\n  dup3\n  add\n  mload\n  dup2\n  0x03\n  add\n  swap1\n  dup2\n  tag_8\n  swap2\n  swap1\n  tag_5\n  jump\t// in\ntag_8:\n  pop\n  0x80\n  dup3\n  add\n  mload\n  dup2\n  0x04\n  add\n  sstore\n  0xa0\n  dup3\n  add\n  mload\n  dup2\n  0x05\n  add\n  sstore\n  0xc0\n  dup3\n  add\n  mload\n  dup2\n  0x06\n  add\n  sstore\n  swap1\n  pop\n  pop\n    /* \"contracts/BetCandidate.sol\":994:996  60 */\n  0x3c\n    /* \"contracts/BetCandidate.sol\":976:991  block.timestamp */\n  timestamp\n    /* \"contracts/BetCandidate.sol\":976:996  block.timestamp + 60 */\n  tag_9\n  swap2\n  swap1\n  tag_10\n  jump\t// in\ntag_9:\n    /* \"contracts/BetCandidate.sol\":960:973  prazoDaAposta */\n  0x0b\n    /* \"contracts/BetCandidate.sol\":960:996  prazoDaAposta = block.timestamp + 60 */\n  dup2\n  swap1\n  sstore\n  pop\n    /* \"contracts/BetCandidate.sol\":324:3084  contract BetCandidate {... */\n  jump(tag_11)\n    /* \"#utility.yul\":7:106   */\ntag_12:\n    /* \"#utility.yul\":59:65   */\n  0x00\n    /* \"#utility.yul\":93:98   */\n  dup2\n    /* \"#utility.yul\":87:99   */\n  mload\n    /* \"#utility.yul\":77:99   */\n  swap1\n  pop\n    /* \"#utility.yul\":7:106   */\n  swap2\n  swap1\n  pop\n  jump\t// out\n    /* \"#utility.yul\":112:292   */\ntag_13:\n    /* \"#utility.yul\":160:237   */\n  0x4e487b7100000000000000000000000000000000000000000000000000000000\n    /* \"#utility.yul\":157:158   */\n  0x00\n    /* \"#utility.yul\":150:238   */\n  mstore\n    /* \"#utility.yul\":257:261   */\n  0x41\n    /* \"#utility.yul\":254:255   */\n  0x04\n    /* \"#utility.yul\":247:262   */\n  mstore\n    /* \"#utility.yul\":281:285   */\n  0x24\n    /* \"#utility.yul\":278:279   */\n  0x00\n    /* \"#utility.yul\":271:286   */\n  revert\n    /* \"#utility.yul\":298:478   */\ntag_14:\n    /* \"#utility.yul\":346:423   */\n  0x4e487b7100000000000000000000000000000000000000000000000000000000\n    /* \"#utility.yul\":343:344   */\n  0x00\n    /* \"#utility.yul\":336:424   */\n  mstore\n    /* \"#utility.yul\":443:447   */\n  0x22\n    /* \"#utility.yul\":440:441   */\n  0x04\n    /* \"#utility.yul\":433:448   */\n  mstore\n    /* \"#utility.yul\":467:471   */\n  0x24\n    /* \"#utility.yul\":464:465   */\n  0x00\n    /* \"#utility.yul\":457:472   */\n  revert\n    /* \"#utility.yul\":484:804   */\ntag_15:\n    /* \"#utility.yul\":528:534   */\n  0x00\n    /* \"#utility.yul\":565:566   */\n  0x02\n    /* \"#utility.yul\":559:563   */\n  dup3\n    /* \"#utility.yul\":555:567   */\n  div\n    /* \"#utility.yul\":545:567   */\n  swap1\n  pop\n    /* \"#utility.yul\":612:613   */\n  0x01\n    /* \"#utility.yul\":606:610   */\n  dup3\n    /* \"#utility.yul\":602:614   */\n  and\n    /* \"#utility.yul\":633:651   */\n  dup1\n    /* \"#utility.yul\":623:704   */\n  tag_38\n  jumpi\n    /* \"#utility.yul\":689:693   */\n  0x7f\n    /* \"#utility.yul\":681:687   */\n  dup3\n    /* \"#utility.yul\":677:694   */\n  and\n    /* \"#utility.yul\":667:694   */\n  swap2\n  pop\n    /* \"#utility.yul\":623:704   */\ntag_38:\n    /* \"#utility.yul\":751:753   */\n  0x20\n    /* \"#utility.yul\":743:749   */\n  dup3\n    /* \"#utility.yul\":740:754   */\n  lt\n    /* \"#utility.yul\":720:738   */\n  dup2\n    /* \"#utility.yul\":717:755   */\n  sub\n    /* \"#utility.yul\":714:798   */\n  tag_39\n  jumpi\n    /* \"#utility.yul\":770:788   */\n  tag_40\n  tag_14\n  jump\t// in\ntag_40:\n    /* \"#utility.yul\":714:798   */\ntag_39:\n    /* \"#utility.yul\":535:804   */\n  pop\n    /* \"#utility.yul\":484:804   */\n  swap2\n  swap1\n  pop\n  jump\t// out\n    /* \"#utility.yul\":810:951   */\ntag_16:\n    /* \"#utility.yul\":859:863   */\n  0x00\n    /* \"#utility.yul\":882:885   */\n  dup2\n    /* \"#utility.yul\":874:885   */\n  swap1\n  pop\n    /* \"#utility.yul\":905:908   */\n  dup2\n    /* \"#utility.yul\":902:903   */\n  0x00\n    /* \"#utility.yul\":895:909   */\n  mstore\n    /* \"#utility.yul\":939:943   */\n  0x20\n    /* \"#utility.yul\":936:937   */\n  0x00\n    /* \"#utility.yul\":926:944   */\n  keccak256\n    /* \"#utility.yul\":918:944   */\n  swap1\n  pop\n    /* \"#utility.yul\":810:951   */\n  swap2\n  swap1\n  pop\n  jump\t// out\n    /* \"#utility.yul\":957:1050   */\ntag_17:\n    /* \"#utility.yul\":994:1000   */\n  0x00\n    /* \"#utility.yul\":1041:1043   */\n  0x20\n    /* \"#utility.yul\":1036:1038   */\n  0x1f\n    /* \"#utility.yul\":1029:1034   */\n  dup4\n    /* \"#utility.yul\":1025:1039   */\n  add\n    /* \"#utility.yul\":1021:1044   */\n  div\n    /* \"#utility.yul\":1011:1044   */\n  swap1\n  pop\n    /* \"#utility.yul\":957:1050   */\n  swap2\n  swap1\n  pop\n  jump\t// out\n    /* \"#utility.yul\":1056:1163   */\ntag_18:\n    /* \"#utility.yul\":1100:1108   */\n  0x00\n    /* \"#utility.yul\":1150:1155   */\n  dup3\n    /* \"#utility.yul\":1144:1148   */\n  dup3\n    /* \"#utility.yul\":1140:1156   */\n  shl\n    /* \"#utility.yul\":1119:1156   */\n  swap1\n  pop\n    /* \"#utility.yul\":1056:1163   */\n  swap3\n  swap2\n  pop\n  pop\n  jump\t// out\n    /* \"#utility.yul\":1169:1562   */\ntag_19:\n    /* \"#utility.yul\":1238:1244   */\n  0x00\n    /* \"#utility.yul\":1288:1289   */\n  0x08\n    /* \"#utility.yul\":1276:1286   */\n  dup4\n    /* \"#utility.yul\":1272:1290   */\n  mul\n    /* \"#utility.yul\":1311:1408   */\n  tag_45\n    /* \"#utility.yul\":1341:1407   */\n  0xffffffffffffffffffffffffffffffffffffffffffffffffffffffffffffffff\n    /* \"#utility.yul\":1330:1339   */\n  dup3\n    /* \"#utility.yul\":1311:1408   */\n  tag_18\n  jump\t// in\ntag_45:\n    /* \"#utility.yul\":1429:1468   */\n  tag_46\n    /* \"#utility.yul\":1459:1467   */\n  dup7\n    /* \"#utility.yul\":1448:1457   */\n  dup4\n    /* \"#utility.yul\":1429:1468   */\n  tag_18\n  jump\t// in\ntag_46:\n    /* \"#utility.yul\":1417:1468   */\n  swap6\n  pop\n    /* \"#utility.yul\":1501:1505   */\n  dup1\n    /* \"#utility.yul\":1497:1506   */\n  not\n    /* \"#utility.yul\":1490:1495   */\n  dup5\n    /* \"#utility.yul\":1486:1507   */\n  and\n    /* \"#utility.yul\":1477:1507   */\n  swap4\n  pop\n    /* \"#utility.yul\":1550:1554   */\n  dup1\n    /* \"#utility.yul\":1540:1548   */\n  dup7\n    /* \"#utility.yul\":1536:1555   */\n  and\n    /* \"#utility.yul\":1529:1534   */\n  dup5\n    /* \"#utility.yul\":1526:1556   */\n  or\n    /* \"#utility.yul\":1516:1556   */\n  swap3\n  pop\n    /* \"#utility.yul\":1245:1562   */\n  pop\n  pop\n    /* \"#utility.yul\":1169:1562   */\n  swap4\n  swap3\n  pop\n  pop\n  pop\n  jump\t// out\n    /* \"#utility.yul\":1568:1645   */\ntag_20:\n    /* \"#utility.yul\":1605:1612   */\n  0x00\n    /* \"#utility.yul\":1634:1639   */\n  dup2\n    /* \"#utility.yul\":1623:1639   */\n  swap1\n  pop\n    /* \"#utility.yul\":1568:1645   */\n  swap2\n  swap1\n  pop\n  jump\t// out\n    /* \"#utility.yul\":1651:1711   */\ntag_21:\n    /* \"#utility.yul\":1679:1682   */\n  0x00\n    /* \"#utility.yul\":1700:1705   */\n  dup2\n    /* \"#utility.yul\":1693:1705   */\n  swap1\n  pop\n    /* \"#utility.yul\":1651:1711   */\n  swap2\n  swap1\n  pop\n  jump\t// out\n    /* \"#utility.yul\":1717:1859   */\ntag_22:\n    /* \"#utility.yul\":1767:1776   */\n  0x00\n    /* \"#utility.yul\":1800:1853   */\n  tag_50\n    /* \"#utility.yul\":1818:1852   */\n  tag_51\n    /* \"#utility.yul\":1827:1851   */\n  tag_52\n    /* \"#utility.yul\":1845:1850   */\n  dup5\n    /* \"#utility.yul\":1827:1851   */\n  tag_20\n  jump\t// in\ntag_52:\n    /* \"#utility.yul\":1818:1852   */\n  tag_21\n  jump\t// in\ntag_51:\n    /* \"#utility.yul\":1800:1853   */\n  tag_20\n  jump\t// in\ntag_50:\n    /* \"#utility.yul\":1787:1853   */\n  swap1\n  pop\n    /* \"#utility.yul\":1717:1859   */\n  swap2\n  swap1\n  pop\n  jump\t// out\n    /* \"#utility.yul\":1865:1940   */\ntag_23:\n    /* \"#utility.yul\":1908:1911   */\n  0x00\n    /* \"#utility.yul\":1929:1934   */\n  dup2\n    /* \"#utility.yul\":1922:1934   */\n  swap1\n  pop\n    /* \"#utility.yul\":1865:1940   */\n  swap2\n  swap1\n  pop\n  jump\t// out\n    /* \"#utility.yul\":1946:2215   */\ntag_24:\n    /* \"#utility.yul\":2056:2095   */\n  tag_55\n    /* \"#utility.yul\":2087:2094   */\n  dup4\n    /* \"#utility.yul\":2056:2095   */\n  tag_22\n  jump\t// in\ntag_55:\n    /* \"#utility.yul\":2117:2208   */\n  tag_56\n    /* \"#utility.yul\":2166:2207   */\n  tag_57\n    /* \"#utility.yul\":2190:2206   */\n  dup3\n    /* \"#utility.yul\":2166:2207   */\n  tag_23\n  jump\t// in\ntag_57:\n    /* \"#utility.yul\":2158:2164   */\n  dup5\n    /* \"#utility.yul\":2151:2155   */\n  dup5\n    /* \"#utility.yul\":2145:2156   */\n  sload\n    /* \"#utility.yul\":2117:2208   */\n  tag_19\n  jump\t// in\ntag_56:\n    /* \"#utility.yul\":2111:2115   */\n  dup3\n    /* \"#utility.yul\":2104:2209   */\n  sstore\n    /* \"#utility.yul\":2022:2215   */\n  pop\n    /* \"#utility.yul\":1946:2215   */\n  pop\n  pop\n  pop\n  jump\t// out\n    /* \"#utility.yul\":2221:2294   */\ntag_25:\n    /* \"#utility.yul\":2266:2269   */\n  0x00\n    /* \"#utility.yul\":2221:2294   */\n  swap1\n  jump\t// out\n    /* \"#utility.yul\":2300:2489   */\ntag_26:\n    /* \"#utility.yul\":2377:2409   */\n  tag_60\n  tag_25\n  jump\t// in\ntag_60:\n    /* \"#utility.yul\":2418:2483   */\n  tag_61\n    /* \"#utility.yul\":2476:2482   */\n  dup2\n    /* \"#utility.yul\":2468:2474   */\n  dup5\n    /* \"#utility.yul\":2462:2466   */\n  dup5\n    /* \"#utility.yul\":2418:2483   */\n  tag_24\n  jump\t// in\ntag_61:\n    /* \"#utility.yul\":2353:2489   */\n  pop\n    /* \"#utility.yul\":2300:2489   */\n  pop\n  pop\n  jump\t// out\n    /* \"#utility.yul\":2495:2681   */\ntag_27:\n    /* \"#utility.yul\":2555:2675   */\ntag_63:\n    /* \"#utility.yul\":2572:2575   */\n  dup2\n    /* \"#utility.yul\":2565:2570   */\n  dup2\n    /* \"#utility.yul\":2562:2576   */\n  lt\n    /* \"#utility.yul\":2555:2675   */\n  iszero\n  tag_65\n  jumpi\n    /* \"#utility.yul\":2626:2665   */\n  tag_66\n    /* \"#utility.yul\":2663:2664   */\n  0x00\n    /* \"#utility.yul\":2656:2661   */\n  dup3\n    /* \"#utility.yul\":2626:2665   */\n  tag_26\n  jump\t// in\ntag_66:\n    /* \"#utility.yul\":2599:2600   */\n  0x01\n    /* \"#utility.yul\":2592:2597   */\n  dup2\n    /* \"#utility.yul\":2588:2601   */\n  add\n    /* \"#utility.yul\":2579:2601   */\n  swap1\n  pop\n    /* \"#utility.yul\":2555:2675   */\n  jump(tag_63)\ntag_65:\n    /* \"#utility.yul\":2495:2681   */\n  pop\n  pop\n  jump\t// out\n    /* \"#utility.yul\":2687:3230   */\ntag_28:\n    /* \"#utility.yul\":2788:2790   */\n  0x1f\n    /* \"#utility.yul\":2783:2786   */\n  dup3\n    /* \"#utility.yul\":2780:2791   */\n  gt\n    /* \"#utility.yul\":2777:3223   */\n  iszero\n  tag_68\n  jumpi\n    /* \"#utility.yul\":2822:2860   */\n  tag_69\n    /* \"#utility.yul\":2854:2859   */\n  dup2\n    /* \"#utility.yul\":2822:2860   */\n  tag_16\n  jump\t// in\ntag_69:\n    /* \"#utility.yul\":2906:2935   */\n  tag_70\n    /* \"#utility.yul\":2924:2934   */\n  dup5\n    /* \"#utility.yul\":2906:2935   */\n  tag_17\n  jump\t// in\ntag_70:\n    /* \"#utility.yul\":2896:2904   */\n  dup2\n    /* \"#utility.yul\":2892:2936   */\n  add\n    /* \"#utility.yul\":3089:3091   */\n  0x20\n    /* \"#utility.yul\":3077:3087   */\n  dup6\n    /* \"#utility.yul\":3074:3092   */\n  lt\n    /* \"#utility.yul\":3071:3120   */\n  iszero\n  tag_71\n  jumpi\n    /* \"#utility.yul\":3110:3118   */\n  dup2\n    /* \"#utility.yul\":3095:3118   */\n  swap1\n  pop\n    /* \"#utility.yul\":3071:3120   */\ntag_71:\n    /* \"#utility.yul\":3133:3213   */\n  tag_72\n    /* \"#utility.yul\":3189:3211   */\n  tag_73\n    /* \"#utility.yul\":3207:3210   */\n  dup6\n    /* \"#utility.yul\":3189:3211   */\n  tag_17\n  jump\t// in\ntag_73:\n    /* \"#utility.yul\":3179:3187   */\n  dup4\n    /* \"#utility.yul\":3175:3212   */\n  add\n    /* \"#utility.yul\":3162:3173   */\n  dup3\n    /* \"#utility.yul\":3133:3213   */\n  tag_27\n  jump\t// in\ntag_72:\n    /* \"#utility.yul\":2792:3223   */\n  pop\n  pop\n    /* \"#utility.yul\":2777:3223   */\ntag_68:\n    /* \"#utility.yul\":2687:3230   */\n  pop\n  pop\n  pop\n  jump\t// out\n    /* \"#utility.yul\":3236:3353   */\ntag_29:\n    /* \"#utility.yul\":3290:3298   */\n  0x00\n    /* \"#utility.yul\":3340:3345   */\n  dup3\n    /* \"#utility.yul\":3334:3338   */\n  dup3\n    /* \"#utility.yul\":3330:3346   */\n  shr\n    /* \"#utility.yul\":3309:3346   */\n  swap1\n  pop\n    /* \"#utility.yul\":3236:3353   */\n  swap3\n  swap2\n  pop\n  pop\n  jump\t// out\n    /* \"#utility.yul\":3359:3528   */\ntag_30:\n    /* \"#utility.yul\":3403:3409   */\n  0x00\n    /* \"#utility.yul\":3436:3487   */\n  tag_76\n    /* \"#utility.yul\":3484:3485   */\n  0x00\n    /* \"#utility.yul\":3480:3486   */\n  not\n    /* \"#utility.yul\":3472:3477   */\n  dup5\n    /* \"#utility.yul\":3469:3470   */\n  0x08\n    /* \"#utility.yul\":3465:3478   */\n  mul\n    /* \"#utility.yul\":3436:3487   */\n  tag_29\n  jump\t// in\ntag_76:\n    /* \"#utility.yul\":3432:3488   */\n  not\n    /* \"#utility.yul\":3517:3521   */\n  dup1\n    /* \"#utility.yul\":3511:3515   */\n  dup4\n    /* \"#utility.yul\":3507:3522   */\n  and\n    /* \"#utility.yul\":3497:3522   */\n  swap2\n  pop\n    /* \"#utility.yul\":3410:3528   */\n  pop\n    /* \"#utility.yul\":3359:3528   */\n  swap3\n  swap2\n  pop\n  pop\n  jump\t// out\n    /* \"#utility.yul\":3533:3828   */\ntag_31:\n    /* \"#utility.yul\":3609:3613   */\n  0x00\n    /* \"#utility.yul\":3755:3784   */\n  tag_78\n    /* \"#utility.yul\":3780:3783   */\n  dup4\n    /* \"#utility.yul\":3774:3778   */\n  dup4\n    /* \"#utility.yul\":3755:3784   */\n  tag_30\n  jump\t// in\ntag_78:\n    /* \"#utility.yul\":3747:3784   */\n  swap2\n  pop\n    /* \"#utility.yul\":3817:3820   */\n  dup3\n    /* \"#utility.yul\":3814:3815   */\n  0x02\n    /* \"#utility.yul\":3810:3821   */\n  mul\n    /* \"#utility.yul\":3804:3808   */\n  dup3\n    /* \"#utility.yul\":3801:3822   */\n  or\n    /* \"#utility.yul\":3793:3822   */\n  swap1\n  pop\n    /* \"#utility.yul\":3533:3828   */\n  swap3\n  swap2\n  pop\n  pop\n  jump\t// out\n    /* \"#utility.yul\":3833:5228   */\ntag_5:\n    /* \"#utility.yul\":3950:3987   */\n  tag_80\n    /* \"#utility.yul\":3983:3986   */\n  dup3\n    /* \"#utility.yul\":3950:3987   */\n  tag_12\n  jump\t// in\ntag_80:\n    /* \"#utility.yul\":4052:4070   */\n  0xffffffffffffffff\n    /* \"#utility.yul\":4044:4050   */\n  dup2\n    /* \"#utility.yul\":4041:4071   */\n  gt\n    /* \"#utility.yul\":4038:4094   */\n  iszero\n  tag_81\n  jumpi\n    /* \"#utility.yul\":4074:4092   */\n  tag_82\n  tag_13\n  jump\t// in\ntag_82:\n    /* \"#utility.yul\":4038:4094   */\ntag_81:\n    /* \"#utility.yul\":4118:4156   */\n  tag_83\n    /* \"#utility.yul\":4150:4154   */\n  dup3\n    /* \"#utility.yul\":4144:4155   */\n  sload\n    /* \"#utility.yul\":4118:4156   */\n  tag_15\n  jump\t// in\ntag_83:\n    /* \"#utility.yul\":4203:4270   */\n  tag_84\n    /* \"#utility.yul\":4263:4269   */\n  dup3\n    /* \"#utility.yul\":4255:4261   */\n  dup3\n    /* \"#utility.yul\":4249:4253   */\n  dup6\n    /* \"#utility.yul\":4203:4270   */\n  tag_28\n  jump\t// in\ntag_84:\n    /* \"#utility.yul\":4297:4298   */\n  0x00\n    /* \"#utility.yul\":4321:4325   */\n  0x20\n    /* \"#utility.yul\":4308:4325   */\n  swap1\n  pop\n    /* \"#utility.yul\":4353:4355   */\n  0x1f\n    /* \"#utility.yul\":4345:4351   */\n  dup4\n    /* \"#utility.yul\":4342:4356   */\n  gt\n    /* \"#utility.yul\":4370:4371   */\n  0x01\n    /* \"#utility.yul\":4365:4983   */\n  dup2\n  eq\n  tag_86\n  jumpi\n    /* \"#utility.yul\":5027:5028   */\n  0x00\n    /* \"#utility.yul\":5044:5050   */\n  dup5\n    /* \"#utility.yul\":5041:5118   */\n  iszero\n  tag_87\n  jumpi\n    /* \"#utility.yul\":5093:5102   */\n  dup3\n    /* \"#utility.yul\":5088:5091   */\n  dup8\n    /* \"#utility.yul\":5084:5103   */\n  add\n    /* \"#utility.yul\":5078:5104   */\n  mload\n    /* \"#utility.yul\":5069:5104   */\n  swap1\n  pop\n    /* \"#utility.yul\":5041:5118   */\ntag_87:\n    /* \"#utility.yul\":5144:5211   */\n  tag_88\n    /* \"#utility.yul\":5204:5210   */\n  dup6\n    /* \"#utility.yul\":5197:5202   */\n  dup3\n    /* \"#utility.yul\":5144:5211   */\n  tag_31\n  jump\t// in\ntag_88:\n    /* \"#utility.yul\":5138:5142   */\n  dup7\n    /* \"#utility.yul\":5131:5212   */\n  sstore\n    /* \"#utility.yul\":5000:5222   */\n  pop\n    /* \"#utility.yul\":4335:5222   */\n  jump(tag_85)\n    /* \"#utility.yul\":4365:4983   */\ntag_86:\n    /* \"#utility.yul\":4417:4421   */\n  0x1f\n    /* \"#utility.yul\":4413:4422   */\n  not\n    /* \"#utility.yul\":4405:4411   */\n  dup5\n    /* \"#utility.yul\":4401:4423   */\n  and\n    /* \"#utility.yul\":4451:4488   */\n  tag_89\n    /* \"#utility.yul\":4483:4487   */\n  dup7\n    /* \"#utility.yul\":4451:4488   */\n  tag_16\n  jump\t// in\ntag_89:\n    /* \"#utility.yul\":4510:4511   */\n  0x00\n    /* \"#utility.yul\":4524:4732   */\ntag_90:\n    /* \"#utility.yul\":4538:4545   */\n  dup3\n    /* \"#utility.yul\":4535:4536   */\n  dup2\n    /* \"#utility.yul\":4532:4546   */\n  lt\n    /* \"#utility.yul\":4524:4732   */\n  iszero\n  tag_92\n  jumpi\n    /* \"#utility.yul\":4617:4626   */\n  dup5\n    /* \"#utility.yul\":4612:4615   */\n  dup10\n    /* \"#utility.yul\":4608:4627   */\n  add\n    /* \"#utility.yul\":4602:4628   */\n  mload\n    /* \"#utility.yul\":4594:4600   */\n  dup3\n    /* \"#utility.yul\":4587:4629   */\n  sstore\n    /* \"#utility.yul\":4668:4669   */\n  0x01\n    /* \"#utility.yul\":4660:4666   */\n  dup3\n    /* \"#utility.yul\":4656:4670   */\n  add\n    /* \"#utility.yul\":4646:4670   */\n  swap2\n  pop\n    /* \"#utility.yul\":4715:4717   */\n  0x20\n    /* \"#utility.yul\":4704:4713   */\n  dup6\n    /* \"#utility.yul\":4700:4718   */\n  add\n    /* \"#utility.yul\":4687:4718   */\n  swap5\n  pop\n    /* \"#utility.yul\":4561:4565   */\n  0x20\n    /* \"#utility.yul\":4558:4559   */\n  dup2\n    /* \"#utility.yul\":4554:4566   */\n  add\n    /* \"#utility.yul\":4549:4566   */\n  swap1\n  pop\n    /* \"#utility.yul\":4524:4732   */\n  jump(tag_90)\ntag_92:\n    /* \"#utility.yul\":4760:4766   */\n  dup7\n    /* \"#utility.yul\":4751:4758   */\n  dup4\n    /* \"#utility.yul\":4748:4767   */\n  lt\n    /* \"#utility.yul\":4745:4924   */\n  iszero\n  tag_93\n  jumpi\n    /* \"#utility.yul\":4818:4827   */\n  dup5\n    /* \"#utility.yul\":4813:4816   */\n  dup10\n    /* \"#utility.yul\":4809:4828   */\n  add\n    /* \"#utility.yul\":4803:4829   */\n  mload\n    /* \"#utility.yul\":4861:4909   */\n  tag_94\n    /* \"#utility.yul\":4903:4907   */\n  0x1f\n    /* \"#utility.yul\":4895:4901   */\n  dup10\n    /* \"#utility.yul\":4891:4908   */\n  and\n    /* \"#utility.yul\":4880:4889   */\n  dup3\n    /* \"#utility.yul\":4861:4909   */\n  tag_30\n  jump\t// in\ntag_94:\n    /* \"#utility.yul\":4853:4859   */\n  dup4\n    /* \"#utility.yul\":4846:4910   */\n  sstore\n    /* \"#utility.yul\":4768:4924   */\n  pop\n    /* \"#utility.yul\":4745:4924   */\ntag_93:\n    /* \"#utility.yul\":4970:4971   */\n  0x01\n    /* \"#utility.yul\":4966:4967   */\n  0x02\n    /* \"#utility.yul\":4958:4964   */\n  dup9\n    /* \"#utility.yul\":4954:4968   */\n  mul\n    /* \"#utility.yul\":4950:4972   */\n  add\n    /* \"#utility.yul\":4944:4948   */\n  dup9\n    /* \"#utility.yul\":4937:4973   */\n  sstore\n    /* \"#utility.yul\":4372:4983   */\n  pop\n  pop\n  pop\n    /* \"#utility.yul\":4335:5222   */\ntag_85:\n  pop\n    /* \"#utility.yul\":3925:5228   */\n  pop\n  pop\n  pop\n    /* \"#utility.yul\":3833:5228   */\n  pop\n  pop\n  jump\t// out\n    /* \"#utility.yul\":5234:5414   */\ntag_32:\n    /* \"#utility.yul\":5282:5359   */\n  0x4e487b7100000000000000000000000000000000000000000000000000000000\n    /* \"#utility.yul\":5279:5280   */\n  0x00\n    /* \"#utility.yul\":5272:5360   */\n  mstore\n    /* \"#utility.yul\":5379:5383   */\n  0x11\n    /* \"#utility.yul\":5376:5377   */\n  0x04\n    /* \"#utility.yul\":5369:5384   */\n  mstore\n    /* \"#utility.yul\":5403:5407   */\n  0x24\n    /* \"#utility.yul\":5400:5401   */\n  0x00\n    /* \"#utility.yul\":5393:5408   */\n  revert\n    /* \"#utility.yul\":5420:5611   */\ntag_10:\n    /* \"#utility.yul\":5460:5463   */\n  0x00\n    /* \"#utility.yul\":5479:5499   */\n  tag_97\n    /* \"#utility.yul\":5497:5498   */\n  dup3\n    /* \"#utility.yul\":5479:5499   */\n  tag_20\n  jump\t// in\ntag_97:\n    /* \"#utility.yul\":5474:5499   */\n  swap2\n  pop\n    /* \"#utility.yul\":5513:5533   */\n  tag_98\n    /* \"#utility.yul\":5531:5532   */\n  dup4\n    /* \"#utility.yul\":5513:5533   */\n  tag_20\n  jump\t// in\ntag_98:\n    /* \"#utility.yul\":5508:5533   */\n  swap3\n  pop\n    /* \"#utility.yul\":5556:5557   */\n  dup3\n    /* \"#utility.yul\":5553:5554   */\n  dup3\n    /* \"#utility.yul\":5549:5558   */\n  add\n    /* \"#utility.yul\":5542:5558   */\n  swap1\n  pop\n    /* \"#utility.yul\":5577:5580   */\n  dup1\n    /* \"#utility.yul\":5574:5575   */\n  dup3\n    /* \"#utility.yul\":5571:5581   */\n  gt\n    /* \"#utility.yul\":5568:5604   */\n  iszero\n  tag_99\n  jumpi\n    /* \"#utility.yul\":5584:5602   */\n  tag_100\n  tag_32\n  jump\t// in\ntag_100:\n    /* \"#utility.yul\":5568:5604   */\ntag_99:\n    /* \"#utility.yul\":5420:5611   */\n  swap3\n  swap2\n  pop\n  pop\n  jump\t// out\n    /* \"contracts/BetCandidate.sol\":324:3084  contract BetCandidate {... */\ntag_11:\n  dataSize(sub_0)\n  dup1\n  dataOffset(sub_0)\n  0x00\n  codecopy\n  0x00\n  return\nstop\n\nsub_0: assembly {\n        /* \"contracts/BetCandidate.sol\":324:3084  contract BetCandidate {... */\n      mstore(0x40, 0x80)\n      jumpi(tag_1, lt(calldatasize, 0x04))\n      shr(0xe0, calldataload(0x00))\n      dup1\n      0x93bebee8\n      gt\n      tag_12\n      jumpi\n      dup1\n      0x93bebee8\n      eq\n      tag_7\n      jumpi\n      dup1\n      0xd353a1cb\n      eq\n      tag_8\n      jumpi\n      dup1\n      0xe1489191\n      eq\n      tag_9\n      jumpi\n      dup1\n      0xf240f7c3\n      eq\n      tag_10\n      jumpi\n      dup1\n      0xf93882e3\n      eq\n      tag_11\n      jumpi\n      jump(tag_1)\n    tag_12:\n      dup1\n      0x121de3f6\n      eq\n      tag_2\n      jumpi\n      dup1\n      0x4055b168\n      eq\n      tag_3\n      jumpi\n      dup1\n      0x4e71d92d\n      eq\n      tag_4\n      jumpi\n      dup1\n      0x69b10852\n      eq\n      tag_5\n      jumpi\n      dup1\n      0x7365870b\n      eq\n      tag_6\n      jumpi\n    tag_1:\n      0x00\n      dup1\n      revert\n        /* \"contracts/BetCandidate.sol\":499:519  uint public netPrize */\n    tag_2:\n      callvalue\n      dup1\n      iszero\n      tag_13\n      jumpi\n      0x00\n      dup1\n      revert\n    tag_13:\n      pop\n      tag_14\n      tag_15\n      jump\t// in\n    tag_14:\n      mload(0x40)\n      tag_16\n      swap2\n      swap1\n      tag_17\n      jump\t// in\n    tag_16:\n      mload(0x40)\n      dup1\n      swap2\n      sub\n      swap1\n      return\n        /* \"contracts/BetCandidate.sol\":2727:3081  function sacarComissao() public {... */\n    tag_3:\n      callvalue\n      dup1\n      iszero\n      tag_18\n      jumpi\n      0x00\n      dup1\n      revert\n    tag_18:\n      pop\n      tag_19\n      tag_20\n      jump\t// in\n    tag_19:\n      stop\n        /* \"contracts/BetCandidate.sol\":2198:2719  function claim() external {... */\n    tag_4:\n      callvalue\n      dup1\n      iszero\n      tag_21\n      jumpi\n      0x00\n      dup1\n      revert\n    tag_21:\n      pop\n      tag_22\n      tag_23\n      jump\t// in\n    tag_22:\n      stop\n        /* \"contracts/BetCandidate.sol\":587:618  bool public commissionWithdrawn */\n    tag_5:\n      callvalue\n      dup1\n      iszero\n      tag_24\n      jumpi\n      0x00\n      dup1\n      revert\n    tag_24:\n      pop\n      tag_25\n      tag_26\n      jump\t// in\n    tag_25:\n      mload(0x40)\n      tag_27\n      swap2\n      swap1\n      tag_28\n      jump\t// in\n    tag_27:\n      mload(0x40)\n      dup1\n      swap2\n      sub\n      swap1\n      return\n        /* \"contracts/BetCandidate.sol\":1184:1760  function bet(uint candidate) external payable antesDoPrazo {... */\n    tag_6:\n      tag_29\n      0x04\n      dup1\n      calldatasize\n      sub\n      dup2\n      add\n      swap1\n      tag_30\n      swap2\n      swap1\n      tag_31\n      jump\t// in\n    tag_30:\n      tag_32\n      jump\t// in\n    tag_29:\n      stop\n        /* \"contracts/BetCandidate.sol\":384:422  mapping(address => Bet) public allBets */\n    tag_7:\n      callvalue\n      dup1\n      iszero\n      tag_33\n      jumpi\n      0x00\n      dup1\n      revert\n    tag_33:\n      pop\n      tag_34\n      0x04\n      dup1\n      calldatasize\n      sub\n      dup2\n      add\n      swap1\n      tag_35\n      swap2\n      swap1\n      tag_36\n      jump\t// in\n    tag_35:\n      tag_37\n      jump\t// in\n    tag_34:\n      mload(0x40)\n      tag_38\n      swap5\n      swap4\n      swap3\n      swap2\n      swap1\n      tag_39\n      jump\t// in\n    tag_38:\n      mload(0x40)\n      dup1\n      swap2\n      sub\n      swap1\n      return\n        /* \"contracts/BetCandidate.sol\":1768:2190  function finish(uint winner) external {... */\n    tag_8:\n      callvalue\n      dup1\n      iszero\n      tag_40\n      jumpi\n      0x00\n      dup1\n      revert\n    tag_40:\n      pop\n      tag_41\n      0x04\n      dup1\n      calldatasize\n      sub\n      dup2\n      add\n      swap1\n      tag_42\n      swap2\n      swap1\n      tag_31\n      jump\t// in\n    tag_42:\n      tag_43\n      jump\t// in\n    tag_41:\n      stop\n        /* \"contracts/BetCandidate.sol\":558:580  uint public commission */\n    tag_9:\n      callvalue\n      dup1\n      iszero\n      tag_44\n      jumpi\n      0x00\n      dup1\n      revert\n    tag_44:\n      pop\n      tag_45\n      tag_46\n      jump\t// in\n    tag_45:\n      mload(0x40)\n      tag_47\n      swap2\n      swap1\n      tag_17\n      jump\t// in\n    tag_47:\n      mload(0x40)\n      dup1\n      swap2\n      sub\n      swap1\n      return\n        /* \"contracts/BetCandidate.sol\":355:377  Dispute public dispute */\n    tag_10:\n      callvalue\n      dup1\n      iszero\n      tag_48\n      jumpi\n      0x00\n      dup1\n      revert\n    tag_48:\n      pop\n      tag_49\n      tag_50\n      jump\t// in\n    tag_49:\n      mload(0x40)\n      tag_51\n      swap8\n      swap7\n      swap6\n      swap5\n      swap4\n      swap3\n      swap2\n      swap1\n      tag_52\n      jump\t// in\n    tag_51:\n      mload(0x40)\n      dup1\n      swap2\n      sub\n      swap1\n      return\n        /* \"contracts/BetCandidate.sol\":526:551  uint public prazoDaAposta */\n    tag_11:\n      callvalue\n      dup1\n      iszero\n      tag_53\n      jumpi\n      0x00\n      dup1\n      revert\n    tag_53:\n      pop\n      tag_54\n      tag_55\n      jump\t// in\n    tag_54:\n      mload(0x40)\n      tag_56\n      swap2\n      swap1\n      tag_17\n      jump\t// in\n    tag_56:\n      mload(0x40)\n      dup1\n      swap2\n      sub\n      swap1\n      return\n        /* \"contracts/BetCandidate.sol\":499:519  uint public netPrize */\n    tag_15:\n      sload(0x0a)\n      dup2\n      jump\t// out\n        /* \"contracts/BetCandidate.sol\":2727:3081  function sacarComissao() public {... */\n    tag_20:\n        /* \"contracts/BetCandidate.sol\":2792:2797  owner */\n      0x08\n      0x00\n      swap1\n      sload\n      swap1\n      0x0100\n      exp\n      swap1\n      div\n      0xffffffffffffffffffffffffffffffffffffffff\n      and\n        /* \"contracts/BetCandidate.sol\":2778:2797  msg.sender == owner */\n      0xffffffffffffffffffffffffffffffffffffffff\n      and\n        /* \"contracts/BetCandidate.sol\":2778:2788  msg.sender */\n      caller\n        /* \"contracts/BetCandidate.sol\":2778:2797  msg.sender == owner */\n      0xffffffffffffffffffffffffffffffffffffffff\n      and\n      eq\n        /* \"contracts/BetCandidate.sol\":2770:2846  require(msg.sender == owner, \"Somente o proprietario pode sacar a comissao\") */\n      tag_58\n      jumpi\n      mload(0x40)\n      0x08c379a000000000000000000000000000000000000000000000000000000000\n      dup2\n      mstore\n      0x04\n      add\n      tag_59\n      swap1\n      tag_60\n      jump\t// in\n    tag_59:\n      mload(0x40)\n      dup1\n      swap2\n      sub\n      swap1\n      revert\n    tag_58:\n        /* \"contracts/BetCandidate.sol\":2882:2883  0 */\n      0x00\n        /* \"contracts/BetCandidate.sol\":2865:2872  dispute */\n      dup1\n        /* \"contracts/BetCandidate.sol\":2865:2879  dispute.winner */\n      0x06\n      add\n      sload\n        /* \"contracts/BetCandidate.sol\":2865:2883  dispute.winner > 0 */\n      gt\n        /* \"contracts/BetCandidate.sol\":2857:2922  require(dispute.winner > 0, \"A disputa ainda nao foi finalizada\") */\n      tag_61\n      jumpi\n      mload(0x40)\n      0x08c379a000000000000000000000000000000000000000000000000000000000\n      dup2\n      mstore\n      0x04\n      add\n      tag_62\n      swap1\n      tag_63\n      jump\t// in\n    tag_62:\n      mload(0x40)\n      dup1\n      swap2\n      sub\n      swap1\n      revert\n    tag_61:\n        /* \"contracts/BetCandidate.sol\":2942:2961  commissionWithdrawn */\n      0x0d\n      0x00\n      swap1\n      sload\n      swap1\n      0x0100\n      exp\n      swap1\n      div\n      0xff\n      and\n        /* \"contracts/BetCandidate.sol\":2941:2961  !commissionWithdrawn */\n      iszero\n        /* \"contracts/BetCandidate.sol\":2933:2990  require(!commissionWithdrawn, \"A comissao ja foi sacada\") */\n      tag_64\n      jumpi\n      mload(0x40)\n      0x08c379a000000000000000000000000000000000000000000000000000000000\n      dup2\n      mstore\n      0x04\n      add\n      tag_65\n      swap1\n      tag_66\n      jump\t// in\n    tag_65:\n      mload(0x40)\n      dup1\n      swap2\n      sub\n      swap1\n      revert\n    tag_64:\n        /* \"contracts/BetCandidate.sol\":3023:3027  true */\n      0x01\n        /* \"contracts/BetCandidate.sol\":3001:3020  commissionWithdrawn */\n      0x0d\n      0x00\n        /* \"contracts/BetCandidate.sol\":3001:3027  commissionWithdrawn = true */\n      0x0100\n      exp\n      dup2\n      sload\n      dup2\n      0xff\n      mul\n      not\n      and\n      swap1\n      dup4\n      iszero\n      iszero\n      mul\n      or\n      swap1\n      sstore\n      pop\n        /* \"contracts/BetCandidate.sol\":3046:3051  owner */\n      0x08\n      0x00\n      swap1\n      sload\n      swap1\n      0x0100\n      exp\n      swap1\n      div\n      0xffffffffffffffffffffffffffffffffffffffff\n      and\n        /* \"contracts/BetCandidate.sol\":3038:3061  payable(owner).transfer */\n      0xffffffffffffffffffffffffffffffffffffffff\n      and\n        /* \"contracts/BetCandidate.sol\":3038:3073  payable(owner).transfer(commission) */\n      0x08fc\n        /* \"contracts/BetCandidate.sol\":3062:3072  commission */\n      sload(0x0c)\n        /* \"contracts/BetCandidate.sol\":3038:3073  payable(owner).transfer(commission) */\n      swap1\n      dup2\n      iszero\n      mul\n      swap1\n      mload(0x40)\n      0x00\n      mload(0x40)\n      dup1\n      dup4\n      sub\n      dup2\n      dup6\n      dup9\n      dup9\n      call\n      swap4\n      pop\n      pop\n      pop\n      pop\n      iszero\n      dup1\n      iszero\n      tag_68\n      jumpi\n      returndatasize\n      0x00\n      dup1\n      returndatacopy\n      revert(0x00, returndatasize)\n    tag_68:\n      pop\n        /* \"contracts/BetCandidate.sol\":2727:3081  function sacarComissao() public {... */\n      jump\t// out\n        /* \"contracts/BetCandidate.sol\":2198:2719  function claim() external {... */\n    tag_23:\n        /* \"contracts/BetCandidate.sol\":2235:2253  Bet memory userBet */\n      0x00\n        /* \"contracts/BetCandidate.sol\":2256:2263  allBets */\n      0x07\n        /* \"contracts/BetCandidate.sol\":2256:2275  allBets[msg.sender] */\n      0x00\n        /* \"contracts/BetCandidate.sol\":2264:2274  msg.sender */\n      caller\n        /* \"contracts/BetCandidate.sol\":2256:2275  allBets[msg.sender] */\n      0xffffffffffffffffffffffffffffffffffffffff\n      and\n      0xffffffffffffffffffffffffffffffffffffffff\n      and\n      dup2\n      mstore\n      0x20\n      add\n      swap1\n      dup2\n      mstore\n      0x20\n      add\n      0x00\n      keccak256\n        /* \"contracts/BetCandidate.sol\":2235:2275  Bet memory userBet = allBets[msg.sender] */\n      mload(0x40)\n      dup1\n      0x80\n      add\n      0x40\n      mstore\n      swap1\n      dup2\n      0x00\n      dup3\n      add\n      sload\n      dup2\n      mstore\n      0x20\n      add\n      0x01\n      dup3\n      add\n      sload\n      dup2\n      mstore\n      0x20\n      add\n      0x02\n      dup3\n      add\n      sload\n      dup2\n      mstore\n      0x20\n      add\n      0x03\n      dup3\n      add\n      sload\n      dup2\n      mstore\n      pop\n      pop\n      swap1\n      pop\n        /* \"contracts/BetCandidate.sol\":2311:2312  0 */\n      0x00\n        /* \"contracts/BetCandidate.sol\":2294:2301  dispute */\n      dup1\n        /* \"contracts/BetCandidate.sol\":2294:2308  dispute.winner */\n      0x06\n      add\n      sload\n        /* \"contracts/BetCandidate.sol\":2294:2312  dispute.winner > 0 */\n      gt\n        /* \"contracts/BetCandidate.sol\":2294:2351  dispute.winner > 0 && dispute.winner == userBet.candidate */\n      dup1\n      iszero\n      tag_70\n      jumpi\n      pop\n        /* \"contracts/BetCandidate.sol\":2334:2341  userBet */\n      dup1\n        /* \"contracts/BetCandidate.sol\":2334:2351  userBet.candidate */\n      0x20\n      add\n      mload\n        /* \"contracts/BetCandidate.sol\":2316:2323  dispute */\n      0x00\n        /* \"contracts/BetCandidate.sol\":2316:2330  dispute.winner */\n      0x06\n      add\n      sload\n        /* \"contracts/BetCandidate.sol\":2316:2351  dispute.winner == userBet.candidate */\n      eq\n        /* \"contracts/BetCandidate.sol\":2294:2351  dispute.winner > 0 && dispute.winner == userBet.candidate */\n    tag_70:\n        /* \"contracts/BetCandidate.sol\":2294:2375  dispute.winner > 0 && dispute.winner == userBet.candidate && userBet.claimed == 0 */\n      dup1\n      iszero\n      tag_71\n      jumpi\n      pop\n        /* \"contracts/BetCandidate.sol\":2374:2375  0 */\n      0x00\n        /* \"contracts/BetCandidate.sol\":2355:2362  userBet */\n      dup2\n        /* \"contracts/BetCandidate.sol\":2355:2370  userBet.claimed */\n      0x60\n      add\n      mload\n        /* \"contracts/BetCandidate.sol\":2355:2375  userBet.claimed == 0 */\n      eq\n        /* \"contracts/BetCandidate.sol\":2294:2375  dispute.winner > 0 && dispute.winner == userBet.candidate && userBet.claimed == 0 */\n    tag_71:\n        /* \"contracts/BetCandidate.sol\":2286:2396  require(dispute.winner > 0 && dispute.winner == userBet.candidate && userBet.claimed == 0, \"Resgate invalido\") */\n      tag_72\n      jumpi\n      mload(0x40)\n      0x08c379a000000000000000000000000000000000000000000000000000000000\n      dup2\n      mstore\n      0x04\n      add\n      tag_73\n      swap1\n      tag_74\n      jump\t// in\n    tag_73:\n      mload(0x40)\n      dup1\n      swap2\n      sub\n      swap1\n      revert\n    tag_72:\n        /* \"contracts/BetCandidate.sol\":2409:2426  uint winnerAmount */\n      0x00\n        /* \"contracts/BetCandidate.sol\":2447:2448  1 */\n      0x01\n        /* \"contracts/BetCandidate.sol\":2429:2436  dispute */\n      0x00\n        /* \"contracts/BetCandidate.sol\":2429:2443  dispute.winner */\n      0x06\n      add\n      sload\n        /* \"contracts/BetCandidate.sol\":2429:2448  dispute.winner == 1 */\n      eq\n        /* \"contracts/BetCandidate.sol\":2429:2482  dispute.winner == 1 ? dispute.total1 : dispute.total2 */\n      tag_75\n      jumpi\n        /* \"contracts/BetCandidate.sol\":2468:2475  dispute */\n      0x00\n        /* \"contracts/BetCandidate.sol\":2468:2482  dispute.total2 */\n      0x05\n      add\n      sload\n        /* \"contracts/BetCandidate.sol\":2429:2482  dispute.winner == 1 ? dispute.total1 : dispute.total2 */\n      jump(tag_76)\n    tag_75:\n        /* \"contracts/BetCandidate.sol\":2451:2458  dispute */\n      0x00\n        /* \"contracts/BetCandidate.sol\":2451:2465  dispute.total1 */\n      0x04\n      add\n      sload\n        /* \"contracts/BetCandidate.sol\":2429:2482  dispute.winner == 1 ? dispute.total1 : dispute.total2 */\n    tag_76:\n        /* \"contracts/BetCandidate.sol\":2409:2482  uint winnerAmount = dispute.winner == 1 ? dispute.total1 : dispute.total2 */\n      swap1\n      pop\n        /* \"contracts/BetCandidate.sol\":2493:2503  uint ratio */\n      0x00\n        /* \"contracts/BetCandidate.sol\":2531:2543  winnerAmount */\n      dup2\n        /* \"contracts/BetCandidate.sol\":2524:2527  1e4 */\n      0x2710\n        /* \"contracts/BetCandidate.sol\":2507:2514  userBet */\n      dup5\n        /* \"contracts/BetCandidate.sol\":2507:2521  userBet.amount */\n      0x00\n      add\n      mload\n        /* \"contracts/BetCandidate.sol\":2507:2527  userBet.amount * 1e4 */\n      tag_77\n      swap2\n      swap1\n      tag_78\n      jump\t// in\n    tag_77:\n        /* \"contracts/BetCandidate.sol\":2506:2543  (userBet.amount * 1e4) / winnerAmount */\n      tag_79\n      swap2\n      swap1\n      tag_80\n      jump\t// in\n    tag_79:\n        /* \"contracts/BetCandidate.sol\":2493:2543  uint ratio = (userBet.amount * 1e4) / winnerAmount */\n      swap1\n      pop\n        /* \"contracts/BetCandidate.sol\":2554:2574  uint individualPrize */\n      0x00\n        /* \"contracts/BetCandidate.sol\":2596:2599  1e4 */\n      0x2710\n        /* \"contracts/BetCandidate.sol\":2588:2593  ratio */\n      dup3\n        /* \"contracts/BetCandidate.sol\":2577:2585  netPrize */\n      sload(0x0a)\n        /* \"contracts/BetCandidate.sol\":2577:2593  netPrize * ratio */\n      tag_81\n      swap2\n      swap1\n      tag_78\n      jump\t// in\n    tag_81:\n        /* \"contracts/BetCandidate.sol\":2577:2599  netPrize * ratio / 1e4 */\n      tag_82\n      swap2\n      swap1\n      tag_80\n      jump\t// in\n    tag_82:\n        /* \"contracts/BetCandidate.sol\":2554:2599  uint individualPrize = netPrize * ratio / 1e4 */\n      swap1\n      pop\n        /* \"contracts/BetCandidate.sol\":2640:2655  individualPrize */\n      dup1\n        /* \"contracts/BetCandidate.sol\":2610:2617  allBets */\n      0x07\n        /* \"contracts/BetCandidate.sol\":2610:2629  allBets[msg.sender] */\n      0x00\n        /* \"contracts/BetCandidate.sol\":2618:2628  msg.sender */\n      caller\n        /* \"contracts/BetCandidate.sol\":2610:2629  allBets[msg.sender] */\n      0xffffffffffffffffffffffffffffffffffffffff\n      and\n      0xffffffffffffffffffffffffffffffffffffffff\n      and\n      dup2\n      mstore\n      0x20\n      add\n      swap1\n      dup2\n      mstore\n      0x20\n      add\n      0x00\n      keccak256\n        /* \"contracts/BetCandidate.sol\":2610:2637  allBets[msg.sender].claimed */\n      0x03\n      add\n        /* \"contracts/BetCandidate.sol\":2610:2655  allBets[msg.sender].claimed = individualPrize */\n      dup2\n      swap1\n      sstore\n      pop\n        /* \"contracts/BetCandidate.sol\":2674:2684  msg.sender */\n      caller\n        /* \"contracts/BetCandidate.sol\":2666:2694  payable(msg.sender).transfer */\n      0xffffffffffffffffffffffffffffffffffffffff\n      and\n        /* \"contracts/BetCandidate.sol\":2666:2711  payable(msg.sender).transfer(individualPrize) */\n      0x08fc\n        /* \"contracts/BetCandidate.sol\":2695:2710  individualPrize */\n      dup3\n        /* \"contracts/BetCandidate.sol\":2666:2711  payable(msg.sender).transfer(individualPrize) */\n      swap1\n      dup2\n      iszero\n      mul\n      swap1\n      mload(0x40)\n      0x00\n      mload(0x40)\n      dup1\n      dup4\n      sub\n      dup2\n      dup6\n      dup9\n      dup9\n      call\n      swap4\n      pop\n      pop\n      pop\n      pop\n      iszero\n      dup1\n      iszero\n      tag_84\n      jumpi\n      returndatasize\n      0x00\n      dup1\n      returndatacopy\n      revert(0x00, returndatasize)\n    tag_84:\n      pop\n        /* \"contracts/BetCandidate.sol\":2224:2719  {... */\n      pop\n      pop\n      pop\n      pop\n        /* \"contracts/BetCandidate.sol\":2198:2719  function claim() external {... */\n      jump\t// out\n        /* \"contracts/BetCandidate.sol\":587:618  bool public commissionWithdrawn */\n    tag_26:\n      0x0d\n      0x00\n      swap1\n      sload\n      swap1\n      0x0100\n      exp\n      swap1\n      div\n      0xff\n      and\n      dup2\n      jump\t// out\n        /* \"contracts/BetCandidate.sol\":1184:1760  function bet(uint candidate) external payable antesDoPrazo {... */\n    tag_32:\n        /* \"contracts/BetCandidate.sol\":1106:1119  prazoDaAposta */\n      sload(0x0b)\n        /* \"contracts/BetCandidate.sol\":1088:1103  block.timestamp */\n      timestamp\n        /* \"contracts/BetCandidate.sol\":1088:1119  block.timestamp < prazoDaAposta */\n      lt\n        /* \"contracts/BetCandidate.sol\":1080:1156  require(block.timestamp < prazoDaAposta, \"O periodo de apostas ja terminou\") */\n      tag_86\n      jumpi\n      mload(0x40)\n      0x08c379a000000000000000000000000000000000000000000000000000000000\n      dup2\n      mstore\n      0x04\n      add\n      tag_87\n      swap1\n      tag_88\n      jump\t// in\n    tag_87:\n      mload(0x40)\n      dup1\n      swap2\n      sub\n      swap1\n      revert\n    tag_86:\n        /* \"contracts/BetCandidate.sol\":1275:1276  1 */\n      0x01\n        /* \"contracts/BetCandidate.sol\":1262:1271  candidate */\n      dup2\n        /* \"contracts/BetCandidate.sol\":1262:1276  candidate == 1 */\n      eq\n        /* \"contracts/BetCandidate.sol\":1262:1294  candidate == 1 || candidate == 2 */\n      dup1\n      tag_90\n      jumpi\n      pop\n        /* \"contracts/BetCandidate.sol\":1293:1294  2 */\n      0x02\n        /* \"contracts/BetCandidate.sol\":1280:1289  candidate */\n      dup2\n        /* \"contracts/BetCandidate.sol\":1280:1294  candidate == 2 */\n      eq\n        /* \"contracts/BetCandidate.sol\":1262:1294  candidate == 1 || candidate == 2 */\n    tag_90:\n        /* \"contracts/BetCandidate.sol\":1254:1317  require(candidate == 1 || candidate == 2, \"Candidato invalido\") */\n      tag_91\n      jumpi\n      mload(0x40)\n      0x08c379a000000000000000000000000000000000000000000000000000000000\n      dup2\n      mstore\n      0x04\n      add\n      tag_92\n      swap1\n      tag_93\n      jump\t// in\n    tag_92:\n      mload(0x40)\n      dup1\n      swap2\n      sub\n      swap1\n      revert\n    tag_91:\n        /* \"contracts/BetCandidate.sol\":1348:1349  0 */\n      0x00\n        /* \"contracts/BetCandidate.sol\":1336:1345  msg.value */\n      callvalue\n        /* \"contracts/BetCandidate.sol\":1336:1349  msg.value > 0 */\n      gt\n        /* \"contracts/BetCandidate.sol\":1328:1369  require(msg.value > 0, \"Aposta invalida\") */\n      tag_94\n      jumpi\n      mload(0x40)\n      0x08c379a000000000000000000000000000000000000000000000000000000000\n      dup2\n      mstore\n      0x04\n      add\n      tag_95\n      swap1\n      tag_96\n      jump\t// in\n    tag_95:\n      mload(0x40)\n      dup1\n      swap2\n      sub\n      swap1\n      revert\n    tag_94:\n        /* \"contracts/BetCandidate.sol\":1406:1407  0 */\n      0x00\n        /* \"contracts/BetCandidate.sol\":1388:1395  dispute */\n      dup1\n        /* \"contracts/BetCandidate.sol\":1388:1402  dispute.winner */\n      0x06\n      add\n      sload\n        /* \"contracts/BetCandidate.sol\":1388:1407  dispute.winner == 0 */\n      eq\n        /* \"contracts/BetCandidate.sol\":1380:1429  require(dispute.winner == 0, \"Disputa encerrada\") */\n      tag_97\n      jumpi\n      mload(0x40)\n      0x08c379a000000000000000000000000000000000000000000000000000000000\n      dup2\n      mstore\n      0x04\n      add\n      tag_98\n      swap1\n      tag_99\n      jump\t// in\n    tag_98:\n      mload(0x40)\n      dup1\n      swap2\n      sub\n      swap1\n      revert\n    tag_97:\n        /* \"contracts/BetCandidate.sol\":1442:1459  Bet memory newBet */\n      tag_100\n      tag_101\n      jump\t// in\n    tag_100:\n        /* \"contracts/BetCandidate.sol\":1486:1495  msg.value */\n      callvalue\n        /* \"contracts/BetCandidate.sol\":1470:1476  newBet */\n      dup2\n        /* \"contracts/BetCandidate.sol\":1470:1483  newBet.amount */\n      0x00\n      add\n        /* \"contracts/BetCandidate.sol\":1470:1495  newBet.amount = msg.value */\n      dup2\n      dup2\n      mstore\n      pop\n      pop\n        /* \"contracts/BetCandidate.sol\":1525:1534  candidate */\n      dup2\n        /* \"contracts/BetCandidate.sol\":1506:1512  newBet */\n      dup2\n        /* \"contracts/BetCandidate.sol\":1506:1522  newBet.candidate */\n      0x20\n      add\n        /* \"contracts/BetCandidate.sol\":1506:1534  newBet.candidate = candidate */\n      dup2\n      dup2\n      mstore\n      pop\n      pop\n        /* \"contracts/BetCandidate.sol\":1564:1579  block.timestamp */\n      timestamp\n        /* \"contracts/BetCandidate.sol\":1545:1551  newBet */\n      dup2\n        /* \"contracts/BetCandidate.sol\":1545:1561  newBet.timestamp */\n      0x40\n      add\n        /* \"contracts/BetCandidate.sol\":1545:1579  newBet.timestamp = block.timestamp */\n      dup2\n      dup2\n      mstore\n      pop\n      pop\n        /* \"contracts/BetCandidate.sol\":1614:1620  newBet */\n      dup1\n        /* \"contracts/BetCandidate.sol\":1592:1599  allBets */\n      0x07\n        /* \"contracts/BetCandidate.sol\":1592:1611  allBets[msg.sender] */\n      0x00\n        /* \"contracts/BetCandidate.sol\":1600:1610  msg.sender */\n      caller\n        /* \"contracts/BetCandidate.sol\":1592:1611  allBets[msg.sender] */\n      0xffffffffffffffffffffffffffffffffffffffff\n      and\n      0xffffffffffffffffffffffffffffffffffffffff\n      and\n      dup2\n      mstore\n      0x20\n      add\n      swap1\n      dup2\n      mstore\n      0x20\n      add\n      0x00\n      keccak256\n        /* \"contracts/BetCandidate.sol\":1592:1620  allBets[msg.sender] = newBet */\n      0x00\n      dup3\n      add\n      mload\n      dup2\n      0x00\n      add\n      sstore\n      0x20\n      dup3\n      add\n      mload\n      dup2\n      0x01\n      add\n      sstore\n      0x40\n      dup3\n      add\n      mload\n      dup2\n      0x02\n      add\n      sstore\n      0x60\n      dup3\n      add\n      mload\n      dup2\n      0x03\n      add\n      sstore\n      swap1\n      pop\n      pop\n        /* \"contracts/BetCandidate.sol\":1649:1650  1 */\n      0x01\n        /* \"contracts/BetCandidate.sol\":1636:1645  candidate */\n      dup3\n        /* \"contracts/BetCandidate.sol\":1636:1650  candidate == 1 */\n      sub\n        /* \"contracts/BetCandidate.sol\":1633:1748  if(candidate == 1)... */\n      tag_102\n      jumpi\n        /* \"contracts/BetCandidate.sol\":1683:1692  msg.value */\n      callvalue\n        /* \"contracts/BetCandidate.sol\":1665:1672  dispute */\n      0x00\n        /* \"contracts/BetCandidate.sol\":1665:1679  dispute.total1 */\n      0x04\n      add\n      0x00\n        /* \"contracts/BetCandidate.sol\":1665:1692  dispute.total1 += msg.value */\n      dup3\n      dup3\n      sload\n      tag_103\n      swap2\n      swap1\n      tag_104\n      jump\t// in\n    tag_103:\n      swap3\n      pop\n      pop\n      dup2\n      swap1\n      sstore\n      pop\n        /* \"contracts/BetCandidate.sol\":1633:1748  if(candidate == 1)... */\n      jump(tag_105)\n    tag_102:\n        /* \"contracts/BetCandidate.sol\":1739:1748  msg.value */\n      callvalue\n        /* \"contracts/BetCandidate.sol\":1721:1728  dispute */\n      0x00\n        /* \"contracts/BetCandidate.sol\":1721:1735  dispute.total2 */\n      0x05\n      add\n      0x00\n        /* \"contracts/BetCandidate.sol\":1721:1748  dispute.total2 += msg.value */\n      dup3\n      dup3\n      sload\n      tag_106\n      swap2\n      swap1\n      tag_104\n      jump\t// in\n    tag_106:\n      swap3\n      pop\n      pop\n      dup2\n      swap1\n      sstore\n      pop\n        /* \"contracts/BetCandidate.sol\":1633:1748  if(candidate == 1)... */\n    tag_105:\n        /* \"contracts/BetCandidate.sol\":1243:1760  {... */\n      pop\n        /* \"contracts/BetCandidate.sol\":1184:1760  function bet(uint candidate) external payable antesDoPrazo {... */\n      pop\n      jump\t// out\n        /* \"contracts/BetCandidate.sol\":384:422  mapping(address => Bet) public allBets */\n    tag_37:\n      mstore(0x20, 0x07)\n      dup1\n      0x00\n      mstore\n      keccak256(0x00, 0x40)\n      0x00\n      swap2\n      pop\n      swap1\n      pop\n      dup1\n      0x00\n      add\n      sload\n      swap1\n      dup1\n      0x01\n      add\n      sload\n      swap1\n      dup1\n      0x02\n      add\n      sload\n      swap1\n      dup1\n      0x03\n      add\n      sload\n      swap1\n      pop\n      dup5\n      jump\t// out\n        /* \"contracts/BetCandidate.sol\":1768:2190  function finish(uint winner) external {... */\n    tag_43:\n        /* \"contracts/BetCandidate.sol\":1839:1844  owner */\n      0x08\n      0x00\n      swap1\n      sload\n      swap1\n      0x0100\n      exp\n      swap1\n      div\n      0xffffffffffffffffffffffffffffffffffffffff\n      and\n        /* \"contracts/BetCandidate.sol\":1825:1844  msg.sender == owner */\n      0xffffffffffffffffffffffffffffffffffffffff\n      and\n        /* \"contracts/BetCandidate.sol\":1825:1835  msg.sender */\n      caller\n        /* \"contracts/BetCandidate.sol\":1825:1844  msg.sender == owner */\n      0xffffffffffffffffffffffffffffffffffffffff\n      and\n      eq\n        /* \"contracts/BetCandidate.sol\":1817:1863  require(msg.sender == owner, \"Conta invalida\") */\n      tag_108\n      jumpi\n      mload(0x40)\n      0x08c379a000000000000000000000000000000000000000000000000000000000\n      dup2\n      mstore\n      0x04\n      add\n      tag_109\n      swap1\n      tag_110\n      jump\t// in\n    tag_109:\n      mload(0x40)\n      dup1\n      swap2\n      sub\n      swap1\n      revert\n    tag_108:\n        /* \"contracts/BetCandidate.sol\":1892:1893  1 */\n      0x01\n        /* \"contracts/BetCandidate.sol\":1882:1888  winner */\n      dup2\n        /* \"contracts/BetCandidate.sol\":1882:1893  winner == 1 */\n      eq\n        /* \"contracts/BetCandidate.sol\":1882:1908  winner == 1 || winner == 2 */\n      dup1\n      tag_111\n      jumpi\n      pop\n        /* \"contracts/BetCandidate.sol\":1907:1908  2 */\n      0x02\n        /* \"contracts/BetCandidate.sol\":1897:1903  winner */\n      dup2\n        /* \"contracts/BetCandidate.sol\":1897:1908  winner == 2 */\n      eq\n        /* \"contracts/BetCandidate.sol\":1882:1908  winner == 1 || winner == 2 */\n    tag_111:\n        /* \"contracts/BetCandidate.sol\":1874:1931  require(winner == 1 || winner == 2, \"Candidato invalido\") */\n      tag_112\n      jumpi\n      mload(0x40)\n      0x08c379a000000000000000000000000000000000000000000000000000000000\n      dup2\n      mstore\n      0x04\n      add\n      tag_113\n      swap1\n      tag_93\n      jump\t// in\n    tag_113:\n      mload(0x40)\n      dup1\n      swap2\n      sub\n      swap1\n      revert\n    tag_112:\n        /* \"contracts/BetCandidate.sol\":1968:1969  0 */\n      0x00\n        /* \"contracts/BetCandidate.sol\":1950:1957  dispute */\n      dup1\n        /* \"contracts/BetCandidate.sol\":1950:1964  dispute.winner */\n      0x06\n      add\n      sload\n        /* \"contracts/BetCandidate.sol\":1950:1969  dispute.winner == 0 */\n      eq\n        /* \"contracts/BetCandidate.sol\":1942:1991  require(dispute.winner == 0, \"Disputa encerrada\") */\n      tag_114\n      jumpi\n      mload(0x40)\n      0x08c379a000000000000000000000000000000000000000000000000000000000\n      dup2\n      mstore\n      0x04\n      add\n      tag_115\n      swap1\n      tag_99\n      jump\t// in\n    tag_115:\n      mload(0x40)\n      dup1\n      swap2\n      sub\n      swap1\n      revert\n    tag_114:\n        /* \"contracts/BetCandidate.sol\":2021:2027  winner */\n      dup1\n        /* \"contracts/BetCandidate.sol\":2004:2011  dispute */\n      0x00\n        /* \"contracts/BetCandidate.sol\":2004:2018  dispute.winner */\n      0x06\n      add\n        /* \"contracts/BetCandidate.sol\":2004:2027  dispute.winner = winner */\n      dup2\n      swap1\n      sstore\n      pop\n        /* \"contracts/BetCandidate.sol\":2040:2055  uint grossPrize */\n      0x00\n        /* \"contracts/BetCandidate.sol\":2075:2082  dispute */\n      dup1\n        /* \"contracts/BetCandidate.sol\":2075:2089  dispute.total2 */\n      0x05\n      add\n      sload\n        /* \"contracts/BetCandidate.sol\":2058:2065  dispute */\n      0x00\n        /* \"contracts/BetCandidate.sol\":2058:2072  dispute.total1 */\n      0x04\n      add\n      sload\n        /* \"contracts/BetCandidate.sol\":2058:2089  dispute.total1 + dispute.total2 */\n      tag_116\n      swap2\n      swap1\n      tag_104\n      jump\t// in\n    tag_116:\n        /* \"contracts/BetCandidate.sol\":2040:2089  uint grossPrize = dispute.total1 + dispute.total2 */\n      swap1\n      pop\n        /* \"contracts/BetCandidate.sol\":2134:2137  1e4 */\n      0x2710\n        /* \"contracts/BetCandidate.sol\":2127:2130  fee */\n      sload(0x09)\n        /* \"contracts/BetCandidate.sol\":2114:2124  grossPrize */\n      dup3\n        /* \"contracts/BetCandidate.sol\":2114:2130  grossPrize * fee */\n      tag_117\n      swap2\n      swap1\n      tag_78\n      jump\t// in\n    tag_117:\n        /* \"contracts/BetCandidate.sol\":2113:2137  (grossPrize * fee) / 1e4 */\n      tag_118\n      swap2\n      swap1\n      tag_80\n      jump\t// in\n    tag_118:\n        /* \"contracts/BetCandidate.sol\":2100:2110  commission */\n      0x0c\n        /* \"contracts/BetCandidate.sol\":2100:2137  commission = (grossPrize * fee) / 1e4 */\n      dup2\n      swap1\n      sstore\n      pop\n        /* \"contracts/BetCandidate.sol\":2172:2182  commission */\n      sload(0x0c)\n        /* \"contracts/BetCandidate.sol\":2159:2169  grossPrize */\n      dup2\n        /* \"contracts/BetCandidate.sol\":2159:2182  grossPrize - commission */\n      tag_119\n      swap2\n      swap1\n      tag_120\n      jump\t// in\n    tag_119:\n        /* \"contracts/BetCandidate.sol\":2148:2156  netPrize */\n      0x0a\n        /* \"contracts/BetCandidate.sol\":2148:2182  netPrize = grossPrize - commission */\n      dup2\n      swap1\n      sstore\n      pop\n        /* \"contracts/BetCandidate.sol\":1806:2190  {... */\n      pop\n        /* \"contracts/BetCandidate.sol\":1768:2190  function finish(uint winner) external {... */\n      pop\n      jump\t// out\n        /* \"contracts/BetCandidate.sol\":558:580  uint public commission */\n    tag_46:\n      sload(0x0c)\n      dup2\n      jump\t// out\n        /* \"contracts/BetCandidate.sol\":355:377  Dispute public dispute */\n    tag_50:\n      0x00\n      dup1\n      0x00\n      add\n      dup1\n      sload\n      tag_121\n      swap1\n      tag_122\n      jump\t// in\n    tag_121:\n      dup1\n      0x1f\n      add\n      0x20\n      dup1\n      swap2\n      div\n      mul\n      0x20\n      add\n      mload(0x40)\n      swap1\n      dup2\n      add\n      0x40\n      mstore\n      dup1\n      swap3\n      swap2\n      swap1\n      dup2\n      dup2\n      mstore\n      0x20\n      add\n      dup3\n      dup1\n      sload\n      tag_123\n      swap1\n      tag_122\n      jump\t// in\n    tag_123:\n      dup1\n      iszero\n      tag_124\n      jumpi\n      dup1\n      0x1f\n      lt\n      tag_125\n      jumpi\n      0x0100\n      dup1\n      dup4\n      sload\n      div\n      mul\n      dup4\n      mstore\n      swap2\n      0x20\n      add\n      swap2\n      jump(tag_124)\n    tag_125:\n      dup3\n      add\n      swap2\n      swap1\n      0x00\n      mstore\n      keccak256(0x00, 0x20)\n      swap1\n    tag_126:\n      dup2\n      sload\n      dup2\n      mstore\n      swap1\n      0x01\n      add\n      swap1\n      0x20\n      add\n      dup1\n      dup4\n      gt\n      tag_126\n      jumpi\n      dup3\n      swap1\n      sub\n      0x1f\n      and\n      dup3\n      add\n      swap2\n    tag_124:\n      pop\n      pop\n      pop\n      pop\n      pop\n      swap1\n      dup1\n      0x01\n      add\n      dup1\n      sload\n      tag_127\n      swap1\n      tag_122\n      jump\t// in\n    tag_127:\n      dup1\n      0x1f\n      add\n      0x20\n      dup1\n      swap2\n      div\n      mul\n      0x20\n      add\n      mload(0x40)\n      swap1\n      dup2\n      add\n      0x40\n      mstore\n      dup1\n      swap3\n      swap2\n      swap1\n      dup2\n      dup2\n      mstore\n      0x20\n      add\n      dup3\n      dup1\n      sload\n      tag_128\n      swap1\n      tag_122\n      jump\t// in\n    tag_128:\n      dup1\n      iszero\n      tag_129\n      jumpi\n      dup1\n      0x1f\n      lt\n      tag_130\n      jumpi\n      0x0100\n      dup1\n      dup4\n      sload\n      div\n      mul\n      dup4\n      mstore\n      swap2\n      0x20\n      add\n      swap2\n      jump(tag_129)\n    tag_130:\n      dup3\n      add\n      swap2\n      swap1\n      0x00\n      mstore\n      keccak256(0x00, 0x20)\n      swap1\n    tag_131:\n      dup2\n      sload\n      dup2\n      mstore\n      swap1\n      0x01\n      add\n      swap1\n      0x20\n      add\n      dup1\n      dup4\n      gt\n      tag_131\n      jumpi\n      dup3\n      swap1\n      sub\n      0x1f\n      and\n      dup3\n      add\n      swap2\n    tag_129:\n      pop\n      pop\n      pop\n      pop\n      pop\n      swap1\n      dup1\n      0x02\n      add\n      dup1\n      sload\n      tag_132\n      swap1\n      tag_122\n      jump\t// in\n    tag_132:\n      dup1\n      0x1f\n      add\n      0x20\n      dup1\n      swap2\n      div\n      mul\n      0x20\n      add\n      mload(0x40)\n      swap1\n      dup2\n      add\n      0x40\n      mstore\n      dup1\n      swap3\n      swap2\n      swap1\n      dup2\n      dup2\n      mstore\n      0x20\n      add\n      dup3\n      dup1\n      sload\n      tag_133\n      swap1\n      tag_122\n      jump\t// in\n    tag_133:\n      dup1\n      iszero\n      tag_134\n      jumpi\n      dup1\n      0x1f\n      lt\n      tag_135\n      jumpi\n      0x0100\n      dup1\n      dup4\n      sload\n      div\n      mul\n      dup4\n      mstore\n      swap2\n      0x20\n      add\n      swap2\n      jump(tag_134)\n    tag_135:\n      dup3\n      add\n      swap2\n      swap1\n      0x00\n      mstore\n      keccak256(0x00, 0x20)\n      swap1\n    tag_136:\n      dup2\n      sload\n      dup2\n      mstore\n      swap1\n      0x01\n      add\n      swap1\n      0x20\n      add\n      dup1\n      dup4\n      gt\n      tag_136\n      jumpi\n      dup3\n      swap1\n      sub\n      0x1f\n      and\n      dup3\n      add\n      swap2\n    tag_134:\n      pop\n      pop\n      pop\n      pop\n      pop\n      swap1\n      dup1\n      0x03\n      add\n      dup1\n      sload\n      tag_137\n      swap1\n      tag_122\n      jump\t// in\n    tag_137:\n      dup1\n      0x1f\n      add\n      0x20\n      dup1\n      swap2\n      div\n      mul\n      0x20\n      add\n      mload(0x40)\n      swap1\n      dup2\n      add\n      0x40\n      mstore\n      dup1\n      swap3\n      swap2\n      swap1\n      dup2\n      dup2\n      mstore\n      0x20\n      add\n      dup3\n      dup1\n      sload\n      tag_138\n      swap1\n      tag_122\n      jump\t// in\n    tag_138:\n      dup1\n      iszero\n      tag_139\n      jumpi\n      dup1\n      0x1f\n      lt\n      tag_140\n      jumpi\n      0x0100\n      dup1\n      dup4\n      sload\n      div\n      mul\n      dup4\n      mstore\n      swap2\n      0x20\n      add\n      swap2\n      jump(tag_139)\n    tag_140:\n      dup3\n      add\n      swap2\n      swap1\n      0x00\n      mstore\n      keccak256(0x00, 0x20)\n      swap1\n    tag_141:\n      dup2\n      sload\n      dup2\n      mstore\n      swap1\n      0x01\n      add\n      swap1\n      0x20\n      add\n      dup1\n      dup4\n      gt\n      tag_141\n      jumpi\n      dup3\n      swap1\n      sub\n      0x1f\n      and\n      dup3\n      add\n      swap2\n    tag_139:\n      pop\n      pop\n      pop\n      pop\n      pop\n      swap1\n      dup1\n      0x04\n      add\n      sload\n      swap1\n      dup1\n      0x05\n      add\n      sload\n      swap1\n      dup1\n      0x06\n      add\n      sload\n      swap1\n      pop\n      dup8\n      jump\t// out\n        /* \"contracts/BetCandidate.sol\":526:551  uint public prazoDaAposta */\n    tag_55:\n      sload(0x0b)\n      dup2\n      jump\t// out\n    tag_101:\n      mload(0x40)\n      dup1\n      0x80\n      add\n      0x40\n      mstore\n      dup1\n      0x00\n      dup2\n      mstore\n      0x20\n      add\n      0x00\n      dup2\n      mstore\n      0x20\n      add\n      0x00\n      dup2\n      mstore\n      0x20\n      add\n      0x00\n      dup2\n      mstore\n      pop\n      swap1\n      jump\t// out\n        /* \"#utility.yul\":7:84   */\n    tag_142:\n        /* \"#utility.yul\":44:51   */\n      0x00\n        /* \"#utility.yul\":73:78   */\n      dup2\n        /* \"#utility.yul\":62:78   */\n      swap1\n      pop\n        /* \"#utility.yul\":7:84   */\n      swap2\n      swap1\n      pop\n      jump\t// out\n        /* \"#utility.yul\":90:208   */\n    tag_143:\n        /* \"#utility.yul\":177:201   */\n      tag_184\n        /* \"#utility.yul\":195:200   */\n      dup2\n        /* \"#utility.yul\":177:201   */\n      tag_142\n      jump\t// in\n    tag_184:\n        /* \"#utility.yul\":172:175   */\n      dup3\n        /* \"#utility.yul\":165:202   */\n      mstore\n        /* \"#utility.yul\":90:208   */\n      pop\n      pop\n      jump\t// out\n        /* \"#utility.yul\":214:436   */\n    tag_17:\n        /* \"#utility.yul\":307:311   */\n      0x00\n        /* \"#utility.yul\":345:347   */\n      0x20\n        /* \"#utility.yul\":334:343   */\n      dup3\n        /* \"#utility.yul\":330:348   */\n      add\n        /* \"#utility.yul\":322:348   */\n      swap1\n      pop\n        /* \"#utility.yul\":358:429   */\n      tag_186\n        /* \"#utility.yul\":426:427   */\n      0x00\n        /* \"#utility.yul\":415:424   */\n      dup4\n        /* \"#utility.yul\":411:428   */\n      add\n        /* \"#utility.yul\":402:408   */\n      dup5\n        /* \"#utility.yul\":358:429   */\n      tag_143\n      jump\t// in\n    tag_186:\n        /* \"#utility.yul\":214:436   */\n      swap3\n      swap2\n      pop\n      pop\n      jump\t// out\n        /* \"#utility.yul\":442:532   */\n    tag_144:\n        /* \"#utility.yul\":476:483   */\n      0x00\n        /* \"#utility.yul\":519:524   */\n      dup2\n        /* \"#utility.yul\":512:525   */\n      iszero\n        /* \"#utility.yul\":505:526   */\n      iszero\n        /* \"#utility.yul\":494:526   */\n      swap1\n      pop\n        /* \"#utility.yul\":442:532   */\n      swap2\n      swap1\n      pop\n      jump\t// out\n        /* \"#utility.yul\":538:647   */\n    tag_145:\n        /* \"#utility.yul\":619:640   */\n      tag_189\n        /* \"#utility.yul\":634:639   */\n      dup2\n        /* \"#utility.yul\":619:640   */\n      tag_144\n      jump\t// in\n    tag_189:\n        /* \"#utility.yul\":614:617   */\n      dup3\n        /* \"#utility.yul\":607:641   */\n      mstore\n        /* \"#utility.yul\":538:647   */\n      pop\n      pop\n      jump\t// out\n        /* \"#utility.yul\":653:863   */\n    tag_28:\n        /* \"#utility.yul\":740:744   */\n      0x00\n        /* \"#utility.yul\":778:780   */\n      0x20\n        /* \"#utility.yul\":767:776   */\n      dup3\n        /* \"#utility.yul\":763:781   */\n      add\n        /* \"#utility.yul\":755:781   */\n      swap1\n      pop\n        /* \"#utility.yul\":791:856   */\n      tag_191\n        /* \"#utility.yul\":853:854   */\n      0x00\n        /* \"#utility.yul\":842:851   */\n      dup4\n        /* \"#utility.yul\":838:855   */\n      add\n        /* \"#utility.yul\":829:835   */\n      dup5\n        /* \"#utility.yul\":791:856   */\n      tag_145\n      jump\t// in\n    tag_191:\n        /* \"#utility.yul\":653:863   */\n      swap3\n      swap2\n      pop\n      pop\n      jump\t// out\n        /* \"#utility.yul\":950:1067   */\n    tag_147:\n        /* \"#utility.yul\":1059:1060   */\n      0x00\n        /* \"#utility.yul\":1056:1057   */\n      dup1\n        /* \"#utility.yul\":1049:1061   */\n      revert\n        /* \"#utility.yul\":1196:1318   */\n    tag_149:\n        /* \"#utility.yul\":1269:1293   */\n      tag_196\n        /* \"#utility.yul\":1287:1292   */\n      dup2\n        /* \"#utility.yul\":1269:1293   */\n      tag_142\n      jump\t// in\n    tag_196:\n        /* \"#utility.yul\":1262:1267   */\n      dup2\n        /* \"#utility.yul\":1259:1294   */\n      eq\n        /* \"#utility.yul\":1249:1312   */\n      tag_197\n      jumpi\n        /* \"#utility.yul\":1308:1309   */\n      0x00\n        /* \"#utility.yul\":1305:1306   */\n      dup1\n        /* \"#utility.yul\":1298:1310   */\n      revert\n        /* \"#utility.yul\":1249:1312   */\n    tag_197:\n        /* \"#utility.yul\":1196:1318   */\n      pop\n      jump\t// out\n        /* \"#utility.yul\":1324:1463   */\n    tag_150:\n        /* \"#utility.yul\":1370:1375   */\n      0x00\n        /* \"#utility.yul\":1408:1414   */\n      dup2\n        /* \"#utility.yul\":1395:1415   */\n      calldataload\n        /* \"#utility.yul\":1386:1415   */\n      swap1\n      pop\n        /* \"#utility.yul\":1424:1457   */\n      tag_199\n        /* \"#utility.yul\":1451:1456   */\n      dup2\n        /* \"#utility.yul\":1424:1457   */\n      tag_149\n      jump\t// in\n    tag_199:\n        /* \"#utility.yul\":1324:1463   */\n      swap3\n      swap2\n      pop\n      pop\n      jump\t// out\n        /* \"#utility.yul\":1469:1798   */\n    tag_31:\n        /* \"#utility.yul\":1528:1534   */\n      0x00\n        /* \"#utility.yul\":1577:1579   */\n      0x20\n        /* \"#utility.yul\":1565:1574   */\n      dup3\n        /* \"#utility.yul\":1556:1563   */\n      dup5\n        /* \"#utility.yul\":1552:1575   */\n      sub\n        /* \"#utility.yul\":1548:1580   */\n      slt\n        /* \"#utility.yul\":1545:1664   */\n      iszero\n      tag_201\n      jumpi\n        /* \"#utility.yul\":1583:1662   */\n      tag_202\n      tag_147\n      jump\t// in\n    tag_202:\n        /* \"#utility.yul\":1545:1664   */\n    tag_201:\n        /* \"#utility.yul\":1703:1704   */\n      0x00\n        /* \"#utility.yul\":1728:1781   */\n      tag_203\n        /* \"#utility.yul\":1773:1780   */\n      dup5\n        /* \"#utility.yul\":1764:1770   */\n      dup3\n        /* \"#utility.yul\":1753:1762   */\n      dup6\n        /* \"#utility.yul\":1749:1771   */\n      add\n        /* \"#utility.yul\":1728:1781   */\n      tag_150\n      jump\t// in\n    tag_203:\n        /* \"#utility.yul\":1718:1781   */\n      swap2\n      pop\n        /* \"#utility.yul\":1674:1791   */\n      pop\n        /* \"#utility.yul\":1469:1798   */\n      swap3\n      swap2\n      pop\n      pop\n      jump\t// out\n        /* \"#utility.yul\":1804:1930   */\n    tag_151:\n        /* \"#utility.yul\":1841:1848   */\n      0x00\n        /* \"#utility.yul\":1881:1923   */\n      0xffffffffffffffffffffffffffffffffffffffff\n        /* \"#utility.yul\":1874:1879   */\n      dup3\n        /* \"#utility.yul\":1870:1924   */\n      and\n        /* \"#utility.yul\":1859:1924   */\n      swap1\n      pop\n        /* \"#utility.yul\":1804:1930   */\n      swap2\n      swap1\n      pop\n      jump\t// out\n        /* \"#utility.yul\":1936:2032   */\n    tag_152:\n        /* \"#utility.yul\":1973:1980   */\n      0x00\n        /* \"#utility.yul\":2002:2026   */\n      tag_206\n        /* \"#utility.yul\":2020:2025   */\n      dup3\n        /* \"#utility.yul\":2002:2026   */\n      tag_151\n      jump\t// in\n    tag_206:\n        /* \"#utility.yul\":1991:2026   */\n      swap1\n      pop\n        /* \"#utility.yul\":1936:2032   */\n      swap2\n      swap1\n      pop\n      jump\t// out\n        /* \"#utility.yul\":2038:2160   */\n    tag_153:\n        /* \"#utility.yul\":2111:2135   */\n      tag_208\n        /* \"#utility.yul\":2129:2134   */\n      dup2\n        /* \"#utility.yul\":2111:2135   */\n      tag_152\n      jump\t// in\n    tag_208:\n        /* \"#utility.yul\":2104:2109   */\n      dup2\n        /* \"#utility.yul\":2101:2136   */\n      eq\n        /* \"#utility.yul\":2091:2154   */\n      tag_209\n      jumpi\n        /* \"#utility.yul\":2150:2151   */\n      0x00\n        /* \"#utility.yul\":2147:2148   */\n      dup1\n        /* \"#utility.yul\":2140:2152   */\n      revert\n        /* \"#utility.yul\":2091:2154   */\n    tag_209:\n        /* \"#utility.yul\":2038:2160   */\n      pop\n      jump\t// out\n        /* \"#utility.yul\":2166:2305   */\n    tag_154:\n        /* \"#utility.yul\":2212:2217   */\n      0x00\n        /* \"#utility.yul\":2250:2256   */\n      dup2\n        /* \"#utility.yul\":2237:2257   */\n      calldataload\n        /* \"#utility.yul\":2228:2257   */\n      swap1\n      pop\n        /* \"#utility.yul\":2266:2299   */\n      tag_211\n        /* \"#utility.yul\":2293:2298   */\n      dup2\n        /* \"#utility.yul\":2266:2299   */\n      tag_153\n      jump\t// in\n    tag_211:\n        /* \"#utility.yul\":2166:2305   */\n      swap3\n      swap2\n      pop\n      pop\n      jump\t// out\n        /* \"#utility.yul\":2311:2640   */\n    tag_36:\n        /* \"#utility.yul\":2370:2376   */\n      0x00\n        /* \"#utility.yul\":2419:2421   */\n      0x20\n        /* \"#utility.yul\":2407:2416   */\n      dup3\n        /* \"#utility.yul\":2398:2405   */\n      dup5\n        /* \"#utility.yul\":2394:2417   */\n      sub\n        /* \"#utility.yul\":2390:2422   */\n      slt\n        /* \"#utility.yul\":2387:2506   */\n      iszero\n      tag_213\n      jumpi\n        /* \"#utility.yul\":2425:2504   */\n      tag_214\n      tag_147\n      jump\t// in\n    tag_214:\n        /* \"#utility.yul\":2387:2506   */\n    tag_213:\n        /* \"#utility.yul\":2545:2546   */\n      0x00\n        /* \"#utility.yul\":2570:2623   */\n      tag_215\n        /* \"#utility.yul\":2615:2622   */\n      dup5\n        /* \"#utility.yul\":2606:2612   */\n      dup3\n        /* \"#utility.yul\":2595:2604   */\n      dup6\n        /* \"#utility.yul\":2591:2613   */\n      add\n        /* \"#utility.yul\":2570:2623   */\n      tag_154\n      jump\t// in\n    tag_215:\n        /* \"#utility.yul\":2560:2623   */\n      swap2\n      pop\n        /* \"#utility.yul\":2516:2633   */\n      pop\n        /* \"#utility.yul\":2311:2640   */\n      swap3\n      swap2\n      pop\n      pop\n      jump\t// out\n        /* \"#utility.yul\":2646:3199   */\n    tag_39:\n        /* \"#utility.yul\":2823:2827   */\n      0x00\n        /* \"#utility.yul\":2861:2864   */\n      0x80\n        /* \"#utility.yul\":2850:2859   */\n      dup3\n        /* \"#utility.yul\":2846:2865   */\n      add\n        /* \"#utility.yul\":2838:2865   */\n      swap1\n      pop\n        /* \"#utility.yul\":2875:2946   */\n      tag_217\n        /* \"#utility.yul\":2943:2944   */\n      0x00\n        /* \"#utility.yul\":2932:2941   */\n      dup4\n        /* \"#utility.yul\":2928:2945   */\n      add\n        /* \"#utility.yul\":2919:2925   */\n      dup8\n        /* \"#utility.yul\":2875:2946   */\n      tag_143\n      jump\t// in\n    tag_217:\n        /* \"#utility.yul\":2956:3028   */\n      tag_218\n        /* \"#utility.yul\":3024:3026   */\n      0x20\n        /* \"#utility.yul\":3013:3022   */\n      dup4\n        /* \"#utility.yul\":3009:3027   */\n      add\n        /* \"#utility.yul\":3000:3006   */\n      dup7\n        /* \"#utility.yul\":2956:3028   */\n      tag_143\n      jump\t// in\n    tag_218:\n        /* \"#utility.yul\":3038:3110   */\n      tag_219\n        /* \"#utility.yul\":3106:3108   */\n      0x40\n        /* \"#utility.yul\":3095:3104   */\n      dup4\n        /* \"#utility.yul\":3091:3109   */\n      add\n        /* \"#utility.yul\":3082:3088   */\n      dup6\n        /* \"#utility.yul\":3038:3110   */\n      tag_143\n      jump\t// in\n    tag_219:\n        /* \"#utility.yul\":3120:3192   */\n      tag_220\n        /* \"#utility.yul\":3188:3190   */\n      0x60\n        /* \"#utility.yul\":3177:3186   */\n      dup4\n        /* \"#utility.yul\":3173:3191   */\n      add\n        /* \"#utility.yul\":3164:3170   */\n      dup5\n        /* \"#utility.yul\":3120:3192   */\n      tag_143\n      jump\t// in\n    tag_220:\n        /* \"#utility.yul\":2646:3199   */\n      swap6\n      swap5\n      pop\n      pop\n      pop\n      pop\n      pop\n      jump\t// out\n        /* \"#utility.yul\":3205:3304   */\n    tag_155:\n        /* \"#utility.yul\":3257:3263   */\n      0x00\n        /* \"#utility.yul\":3291:3296   */\n      dup2\n        /* \"#utility.yul\":3285:3297   */\n      mload\n        /* \"#utility.yul\":3275:3297   */\n      swap1\n      pop\n        /* \"#utility.yul\":3205:3304   */\n      swap2\n      swap1\n      pop\n      jump\t// out\n        /* \"#utility.yul\":3310:3479   */\n    tag_156:\n        /* \"#utility.yul\":3394:3405   */\n      0x00\n        /* \"#utility.yul\":3428:3434   */\n      dup3\n        /* \"#utility.yul\":3423:3426   */\n      dup3\n        /* \"#utility.yul\":3416:3435   */\n      mstore\n        /* \"#utility.yul\":3468:3472   */\n      0x20\n        /* \"#utility.yul\":3463:3466   */\n      dup3\n        /* \"#utility.yul\":3459:3473   */\n      add\n        /* \"#utility.yul\":3444:3473   */\n      swap1\n      pop\n        /* \"#utility.yul\":3310:3479   */\n      swap3\n      swap2\n      pop\n      pop\n      jump\t// out\n        /* \"#utility.yul\":3485:3624   */\n    tag_157:\n        /* \"#utility.yul\":3574:3580   */\n      dup3\n        /* \"#utility.yul\":3569:3572   */\n      dup2\n        /* \"#utility.yul\":3564:3567   */\n      dup4\n        /* \"#utility.yul\":3558:3581   */\n      mcopy\n        /* \"#utility.yul\":3615:3616   */\n      0x00\n        /* \"#utility.yul\":3606:3612   */\n      dup4\n        /* \"#utility.yul\":3601:3604   */\n      dup4\n        /* \"#utility.yul\":3597:3613   */\n      add\n        /* \"#utility.yul\":3590:3617   */\n      mstore\n        /* \"#utility.yul\":3485:3624   */\n      pop\n      pop\n      pop\n      jump\t// out\n        /* \"#utility.yul\":3630:3732   */\n    tag_158:\n        /* \"#utility.yul\":3671:3677   */\n      0x00\n        /* \"#utility.yul\":3722:3724   */\n      0x1f\n        /* \"#utility.yul\":3718:3725   */\n      not\n        /* \"#utility.yul\":3713:3715   */\n      0x1f\n        /* \"#utility.yul\":3706:3711   */\n      dup4\n        /* \"#utility.yul\":3702:3716   */\n      add\n        /* \"#utility.yul\":3698:3726   */\n      and\n        /* \"#utility.yul\":3688:3726   */\n      swap1\n      pop\n        /* \"#utility.yul\":3630:3732   */\n      swap2\n      swap1\n      pop\n      jump\t// out\n        /* \"#utility.yul\":3738:4115   */\n    tag_159:\n        /* \"#utility.yul\":3826:3829   */\n      0x00\n        /* \"#utility.yul\":3854:3893   */\n      tag_226\n        /* \"#utility.yul\":3887:3892   */\n      dup3\n        /* \"#utility.yul\":3854:3893   */\n      tag_155\n      jump\t// in\n    tag_226:\n        /* \"#utility.yul\":3909:3980   */\n      tag_227\n        /* \"#utility.yul\":3973:3979   */\n      dup2\n        /* \"#utility.yul\":3968:3971   */\n      dup6\n        /* \"#utility.yul\":3909:3980   */\n      tag_156\n      jump\t// in\n    tag_227:\n        /* \"#utility.yul\":3902:3980   */\n      swap4\n      pop\n        /* \"#utility.yul\":3989:4054   */\n      tag_228\n        /* \"#utility.yul\":4047:4053   */\n      dup2\n        /* \"#utility.yul\":4042:4045   */\n      dup6\n        /* \"#utility.yul\":4035:4039   */\n      0x20\n        /* \"#utility.yul\":4028:4033   */\n      dup7\n        /* \"#utility.yul\":4024:4040   */\n      add\n        /* \"#utility.yul\":3989:4054   */\n      tag_157\n      jump\t// in\n    tag_228:\n        /* \"#utility.yul\":4079:4108   */\n      tag_229\n        /* \"#utility.yul\":4101:4107   */\n      dup2\n        /* \"#utility.yul\":4079:4108   */\n      tag_158\n      jump\t// in\n    tag_229:\n        /* \"#utility.yul\":4074:4077   */\n      dup5\n        /* \"#utility.yul\":4070:4109   */\n      add\n        /* \"#utility.yul\":4063:4109   */\n      swap2\n      pop\n        /* \"#utility.yul\":3830:4115   */\n      pop\n        /* \"#utility.yul\":3738:4115   */\n      swap3\n      swap2\n      pop\n      pop\n      jump\t// out\n        /* \"#utility.yul\":4121:5371   */\n    tag_52:\n        /* \"#utility.yul\":4462:4466   */\n      0x00\n        /* \"#utility.yul\":4500:4503   */\n      0xe0\n        /* \"#utility.yul\":4489:4498   */\n      dup3\n        /* \"#utility.yul\":4485:4504   */\n      add\n        /* \"#utility.yul\":4477:4504   */\n      swap1\n      pop\n        /* \"#utility.yul\":4550:4559   */\n      dup2\n        /* \"#utility.yul\":4544:4548   */\n      dup2\n        /* \"#utility.yul\":4540:4560   */\n      sub\n        /* \"#utility.yul\":4536:4537   */\n      0x00\n        /* \"#utility.yul\":4525:4534   */\n      dup4\n        /* \"#utility.yul\":4521:4538   */\n      add\n        /* \"#utility.yul\":4514:4561   */\n      mstore\n        /* \"#utility.yul\":4578:4656   */\n      tag_231\n        /* \"#utility.yul\":4651:4655   */\n      dup2\n        /* \"#utility.yul\":4642:4648   */\n      dup11\n        /* \"#utility.yul\":4578:4656   */\n      tag_159\n      jump\t// in\n    tag_231:\n        /* \"#utility.yul\":4570:4656   */\n      swap1\n      pop\n        /* \"#utility.yul\":4703:4712   */\n      dup2\n        /* \"#utility.yul\":4697:4701   */\n      dup2\n        /* \"#utility.yul\":4693:4713   */\n      sub\n        /* \"#utility.yul\":4688:4690   */\n      0x20\n        /* \"#utility.yul\":4677:4686   */\n      dup4\n        /* \"#utility.yul\":4673:4691   */\n      add\n        /* \"#utility.yul\":4666:4714   */\n      mstore\n        /* \"#utility.yul\":4731:4809   */\n      tag_232\n        /* \"#utility.yul\":4804:4808   */\n      dup2\n        /* \"#utility.yul\":4795:4801   */\n      dup10\n        /* \"#utility.yul\":4731:4809   */\n      tag_159\n      jump\t// in\n    tag_232:\n        /* \"#utility.yul\":4723:4809   */\n      swap1\n      pop\n        /* \"#utility.yul\":4856:4865   */\n      dup2\n        /* \"#utility.yul\":4850:4854   */\n      dup2\n        /* \"#utility.yul\":4846:4866   */\n      sub\n        /* \"#utility.yul\":4841:4843   */\n      0x40\n        /* \"#utility.yul\":4830:4839   */\n      dup4\n        /* \"#utility.yul\":4826:4844   */\n      add\n        /* \"#utility.yul\":4819:4867   */\n      mstore\n        /* \"#utility.yul\":4884:4962   */\n      tag_233\n        /* \"#utility.yul\":4957:4961   */\n      dup2\n        /* \"#utility.yul\":4948:4954   */\n      dup9\n        /* \"#utility.yul\":4884:4962   */\n      tag_159\n      jump\t// in\n    tag_233:\n        /* \"#utility.yul\":4876:4962   */\n      swap1\n      pop\n        /* \"#utility.yul\":5009:5018   */\n      dup2\n        /* \"#utility.yul\":5003:5007   */\n      dup2\n        /* \"#utility.yul\":4999:5019   */\n      sub\n        /* \"#utility.yul\":4994:4996   */\n      0x60\n        /* \"#utility.yul\":4983:4992   */\n      dup4\n        /* \"#utility.yul\":4979:4997   */\n      add\n        /* \"#utility.yul\":4972:5020   */\n      mstore\n        /* \"#utility.yul\":5037:5115   */\n      tag_234\n        /* \"#utility.yul\":5110:5114   */\n      dup2\n        /* \"#utility.yul\":5101:5107   */\n      dup8\n        /* \"#utility.yul\":5037:5115   */\n      tag_159\n      jump\t// in\n    tag_234:\n        /* \"#utility.yul\":5029:5115   */\n      swap1\n      pop\n        /* \"#utility.yul\":5125:5198   */\n      tag_235\n        /* \"#utility.yul\":5193:5196   */\n      0x80\n        /* \"#utility.yul\":5182:5191   */\n      dup4\n        /* \"#utility.yul\":5178:5197   */\n      add\n        /* \"#utility.yul\":5169:5175   */\n      dup7\n        /* \"#utility.yul\":5125:5198   */\n      tag_143\n      jump\t// in\n    tag_235:\n        /* \"#utility.yul\":5208:5281   */\n      tag_236\n        /* \"#utility.yul\":5276:5279   */\n      0xa0\n        /* \"#utility.yul\":5265:5274   */\n      dup4\n        /* \"#utility.yul\":5261:5280   */\n      add\n        /* \"#utility.yul\":5252:5258   */\n      dup6\n        /* \"#utility.yul\":5208:5281   */\n      tag_143\n      jump\t// in\n    tag_236:\n        /* \"#utility.yul\":5291:5364   */\n      tag_237\n        /* \"#utility.yul\":5359:5362   */\n      0xc0\n        /* \"#utility.yul\":5348:5357   */\n      dup4\n        /* \"#utility.yul\":5344:5363   */\n      add\n        /* \"#utility.yul\":5335:5341   */\n      dup5\n        /* \"#utility.yul\":5291:5364   */\n      tag_143\n      jump\t// in\n    tag_237:\n        /* \"#utility.yul\":4121:5371   */\n      swap9\n      swap8\n      pop\n      pop\n      pop\n      pop\n      pop\n      pop\n      pop\n      pop\n      jump\t// out\n        /* \"#utility.yul\":5377:5608   */\n    tag_160:\n        /* \"#utility.yul\":5517:5551   */\n      0x536f6d656e7465206f2070726f70726965746172696f20706f64652073616361\n        /* \"#utility.yul\":5513:5514   */\n      0x00\n        /* \"#utility.yul\":5505:5511   */\n      dup3\n        /* \"#utility.yul\":5501:5515   */\n      add\n        /* \"#utility.yul\":5494:5552   */\n      mstore\n        /* \"#utility.yul\":5586:5600   */\n      0x72206120636f6d697373616f0000000000000000000000000000000000000000\n        /* \"#utility.yul\":5581:5583   */\n      0x20\n        /* \"#utility.yul\":5573:5579   */\n      dup3\n        /* \"#utility.yul\":5569:5584   */\n      add\n        /* \"#utility.yul\":5562:5601   */\n      mstore\n        /* \"#utility.yul\":5377:5608   */\n      pop\n      jump\t// out\n        /* \"#utility.yul\":5614:5980   */\n    tag_161:\n        /* \"#utility.yul\":5756:5759   */\n      0x00\n        /* \"#utility.yul\":5777:5844   */\n      tag_240\n        /* \"#utility.yul\":5841:5843   */\n      0x2c\n        /* \"#utility.yul\":5836:5839   */\n      dup4\n        /* \"#utility.yul\":5777:5844   */\n      tag_156\n      jump\t// in\n    tag_240:\n        /* \"#utility.yul\":5770:5844   */\n      swap2\n      pop\n        /* \"#utility.yul\":5853:5946   */\n      tag_241\n        /* \"#utility.yul\":5942:5945   */\n      dup3\n        /* \"#utility.yul\":5853:5946   */\n      tag_160\n      jump\t// in\n    tag_241:\n        /* \"#utility.yul\":5971:5973   */\n      0x40\n        /* \"#utility.yul\":5966:5969   */\n      dup3\n        /* \"#utility.yul\":5962:5974   */\n      add\n        /* \"#utility.yul\":5955:5974   */\n      swap1\n      pop\n        /* \"#utility.yul\":5614:5980   */\n      swap2\n      swap1\n      pop\n      jump\t// out\n        /* \"#utility.yul\":5986:6405   */\n    tag_60:\n        /* \"#utility.yul\":6152:6156   */\n      0x00\n        /* \"#utility.yul\":6190:6192   */\n      0x20\n        /* \"#utility.yul\":6179:6188   */\n      dup3\n        /* \"#utility.yul\":6175:6193   */\n      add\n        /* \"#utility.yul\":6167:6193   */\n      swap1\n      pop\n        /* \"#utility.yul\":6239:6248   */\n      dup2\n        /* \"#utility.yul\":6233:6237   */\n      dup2\n        /* \"#utility.yul\":6229:6249   */\n      sub\n        /* \"#utility.yul\":6225:6226   */\n      0x00\n        /* \"#utility.yul\":6214:6223   */\n      dup4\n        /* \"#utility.yul\":6210:6227   */\n      add\n        /* \"#utility.yul\":6203:6250   */\n      mstore\n        /* \"#utility.yul\":6267:6398   */\n      tag_243\n        /* \"#utility.yul\":6393:6397   */\n      dup2\n        /* \"#utility.yul\":6267:6398   */\n      tag_161\n      jump\t// in\n    tag_243:\n        /* \"#utility.yul\":6259:6398   */\n      swap1\n      pop\n        /* \"#utility.yul\":5986:6405   */\n      swap2\n      swap1\n      pop\n      jump\t// out\n        /* \"#utility.yul\":6411:6632   */\n    tag_162:\n        /* \"#utility.yul\":6551:6585   */\n      0x4120646973707574612061696e6461206e616f20666f692066696e616c697a61\n        /* \"#utility.yul\":6547:6548   */\n      0x00\n        /* \"#utility.yul\":6539:6545   */\n      dup3\n        /* \"#utility.yul\":6535:6549   */\n      add\n        /* \"#utility.yul\":6528:6586   */\n      mstore\n        /* \"#utility.yul\":6620:6624   */\n      0x6461000000000000000000000000000000000000000000000000000000000000\n        /* \"#utility.yul\":6615:6617   */\n      0x20\n        /* \"#utility.yul\":6607:6613   */\n      dup3\n        /* \"#utility.yul\":6603:6618   */\n      add\n        /* \"#utility.yul\":6596:6625   */\n      mstore\n        /* \"#utility.yul\":6411:6632   */\n      pop\n      jump\t// out\n        /* \"#utility.yul\":6638:7004   */\n    tag_163:\n        /* \"#utility.yul\":6780:6783   */\n      0x00\n        /* \"#utility.yul\":6801:6868   */\n      tag_246\n        /* \"#utility.yul\":6865:6867   */\n      0x22\n        /* \"#utility.yul\":6860:6863   */\n      dup4\n        /* \"#utility.yul\":6801:6868   */\n      tag_156\n      jump\t// in\n    tag_246:\n        /* \"#utility.yul\":6794:6868   */\n      swap2\n      pop\n        /* \"#utility.yul\":6877:6970   */\n      tag_247\n        /* \"#utility.yul\":6966:6969   */\n      dup3\n        /* \"#utility.yul\":6877:6970   */\n      tag_162\n      jump\t// in\n    tag_247:\n        /* \"#utility.yul\":6995:6997   */\n      0x40\n        /* \"#utility.yul\":6990:6993   */\n      dup3\n        /* \"#utility.yul\":6986:6998   */\n      add\n        /* \"#utility.yul\":6979:6998   */\n      swap1\n      pop\n        /* \"#utility.yul\":6638:7004   */\n      swap2\n      swap1\n      pop\n      jump\t// out\n        /* \"#utility.yul\":7010:7429   */\n    tag_63:\n        /* \"#utility.yul\":7176:7180   */\n      0x00\n        /* \"#utility.yul\":7214:7216   */\n      0x20\n        /* \"#utility.yul\":7203:7212   */\n      dup3\n        /* \"#utility.yul\":7199:7217   */\n      add\n        /* \"#utility.yul\":7191:7217   */\n      swap1\n      pop\n        /* \"#utility.yul\":7263:7272   */\n      dup2\n        /* \"#utility.yul\":7257:7261   */\n      dup2\n        /* \"#utility.yul\":7253:7273   */\n      sub\n        /* \"#utility.yul\":7249:7250   */\n      0x00\n        /* \"#utility.yul\":7238:7247   */\n      dup4\n        /* \"#utility.yul\":7234:7251   */\n      add\n        /* \"#utility.yul\":7227:7274   */\n      mstore\n        /* \"#utility.yul\":7291:7422   */\n      tag_249\n        /* \"#utility.yul\":7417:7421   */\n      dup2\n        /* \"#utility.yul\":7291:7422   */\n      tag_163\n      jump\t// in\n    tag_249:\n        /* \"#utility.yul\":7283:7422   */\n      swap1\n      pop\n        /* \"#utility.yul\":7010:7429   */\n      swap2\n      swap1\n      pop\n      jump\t// out\n        /* \"#utility.yul\":7435:7609   */\n    tag_164:\n        /* \"#utility.yul\":7575:7601   */\n      0x4120636f6d697373616f206a6120666f69207361636164610000000000000000\n        /* \"#utility.yul\":7571:7572   */\n      0x00\n        /* \"#utility.yul\":7563:7569   */\n      dup3\n        /* \"#utility.yul\":7559:7573   */\n      add\n        /* \"#utility.yul\":7552:7602   */\n      mstore\n        /* \"#utility.yul\":7435:7609   */\n      pop\n      jump\t// out\n        /* \"#utility.yul\":7615:7981   */\n    tag_165:\n        /* \"#utility.yul\":7757:7760   */\n      0x00\n        /* \"#utility.yul\":7778:7845   */\n      tag_252\n        /* \"#utility.yul\":7842:7844   */\n      0x18\n        /* \"#utility.yul\":7837:7840   */\n      dup4\n        /* \"#utility.yul\":7778:7845   */\n      tag_156\n      jump\t// in\n    tag_252:\n        /* \"#utility.yul\":7771:7845   */\n      swap2\n      pop\n        /* \"#utility.yul\":7854:7947   */\n      tag_253\n        /* \"#utility.yul\":7943:7946   */\n      dup3\n        /* \"#utility.yul\":7854:7947   */\n      tag_164\n      jump\t// in\n    tag_253:\n        /* \"#utility.yul\":7972:7974   */\n      0x20\n        /* \"#utility.yul\":7967:7970   */\n      dup3\n        /* \"#utility.yul\":7963:7975   */\n      add\n        /* \"#utility.yul\":7956:7975   */\n      swap1\n      pop\n        /* \"#utility.yul\":7615:7981   */\n      swap2\n      swap1\n      pop\n      jump\t// out\n        /* \"#utility.yul\":7987:8406   */\n    tag_66:\n        /* \"#utility.yul\":8153:8157   */\n      0x00\n        /* \"#utility.yul\":8191:8193   */\n      0x20\n        /* \"#utility.yul\":8180:8189   */\n      dup3\n        /* \"#utility.yul\":8176:8194   */\n      add\n        /* \"#utility.yul\":8168:8194   */\n      swap1\n      pop\n        /* \"#utility.yul\":8240:8249   */\n      dup2\n        /* \"#utility.yul\":8234:8238   */\n      dup2\n        /* \"#utility.yul\":8230:8250   */\n      sub\n        /* \"#utility.yul\":8226:8227   */\n      0x00\n        /* \"#utility.yul\":8215:8224   */\n      dup4\n        /* \"#utility.yul\":8211:8228   */\n      add\n        /* \"#utility.yul\":8204:8251   */\n      mstore\n        /* \"#utility.yul\":8268:8399   */\n      tag_255\n        /* \"#utility.yul\":8394:8398   */\n      dup2\n        /* \"#utility.yul\":8268:8399   */\n      tag_165\n      jump\t// in\n    tag_255:\n        /* \"#utility.yul\":8260:8399   */\n      swap1\n      pop\n        /* \"#utility.yul\":7987:8406   */\n      swap2\n      swap1\n      pop\n      jump\t// out\n        /* \"#utility.yul\":8412:8578   */\n    tag_166:\n        /* \"#utility.yul\":8552:8570   */\n      0x5265736761746520696e76616c69646f00000000000000000000000000000000\n        /* \"#utility.yul\":8548:8549   */\n      0x00\n        /* \"#utility.yul\":8540:8546   */\n      dup3\n        /* \"#utility.yul\":8536:8550   */\n      add\n        /* \"#utility.yul\":8529:8571   */\n      mstore\n        /* \"#utility.yul\":8412:8578   */\n      pop\n      jump\t// out\n        /* \"#utility.yul\":8584:8950   */\n    tag_167:\n        /* \"#utility.yul\":8726:8729   */\n      0x00\n        /* \"#utility.yul\":8747:8814   */\n      tag_258\n        /* \"#utility.yul\":8811:8813   */\n      0x10\n        /* \"#utility.yul\":8806:8809   */\n      dup4\n        /* \"#utility.yul\":8747:8814   */\n      tag_156\n      jump\t// in\n    tag_258:\n        /* \"#utility.yul\":8740:8814   */\n      swap2\n      pop\n        /* \"#utility.yul\":8823:8916   */\n      tag_259\n        /* \"#utility.yul\":8912:8915   */\n      dup3\n        /* \"#utility.yul\":8823:8916   */\n      tag_166\n      jump\t// in\n    tag_259:\n        /* \"#utility.yul\":8941:8943   */\n      0x20\n        /* \"#utility.yul\":8936:8939   */\n      dup3\n        /* \"#utility.yul\":8932:8944   */\n      add\n        /* \"#utility.yul\":8925:8944   */\n      swap1\n      pop\n        /* \"#utility.yul\":8584:8950   */\n      swap2\n      swap1\n      pop\n      jump\t// out\n        /* \"#utility.yul\":8956:9375   */\n    tag_74:\n        /* \"#utility.yul\":9122:9126   */\n      0x00\n        /* \"#utility.yul\":9160:9162   */\n      0x20\n        /* \"#utility.yul\":9149:9158   */\n      dup3\n        /* \"#utility.yul\":9145:9163   */\n      add\n        /* \"#utility.yul\":9137:9163   */\n      swap1\n      pop\n        /* \"#utility.yul\":9209:9218   */\n      dup2\n        /* \"#utility.yul\":9203:9207   */\n      dup2\n        /* \"#utility.yul\":9199:9219   */\n      sub\n        /* \"#utility.yul\":9195:9196   */\n      0x00\n        /* \"#utility.yul\":9184:9193   */\n      dup4\n        /* \"#utility.yul\":9180:9197   */\n      add\n        /* \"#utility.yul\":9173:9220   */\n      mstore\n        /* \"#utility.yul\":9237:9368   */\n      tag_261\n        /* \"#utility.yul\":9363:9367   */\n      dup2\n        /* \"#utility.yul\":9237:9368   */\n      tag_167\n      jump\t// in\n    tag_261:\n        /* \"#utility.yul\":9229:9368   */\n      swap1\n      pop\n        /* \"#utility.yul\":8956:9375   */\n      swap2\n      swap1\n      pop\n      jump\t// out\n        /* \"#utility.yul\":9381:9561   */\n    tag_168:\n        /* \"#utility.yul\":9429:9506   */\n      0x4e487b7100000000000000000000000000000000000000000000000000000000\n        /* \"#utility.yul\":9426:9427   */\n      0x00\n        /* \"#utility.yul\":9419:9507   */\n      mstore\n        /* \"#utility.yul\":9526:9530   */\n      0x11\n        /* \"#utility.yul\":9523:9524   */\n      0x04\n        /* \"#utility.yul\":9516:9531   */\n      mstore\n        /* \"#utility.yul\":9550:9554   */\n      0x24\n        /* \"#utility.yul\":9547:9548   */\n      0x00\n        /* \"#utility.yul\":9540:9555   */\n      revert\n        /* \"#utility.yul\":9567:9977   */\n    tag_78:\n        /* \"#utility.yul\":9607:9614   */\n      0x00\n        /* \"#utility.yul\":9630:9650   */\n      tag_264\n        /* \"#utility.yul\":9648:9649   */\n      dup3\n        /* \"#utility.yul\":9630:9650   */\n      tag_142\n      jump\t// in\n    tag_264:\n        /* \"#utility.yul\":9625:9650   */\n      swap2\n      pop\n        /* \"#utility.yul\":9664:9684   */\n      tag_265\n        /* \"#utility.yul\":9682:9683   */\n      dup4\n        /* \"#utility.yul\":9664:9684   */\n      tag_142\n      jump\t// in\n    tag_265:\n        /* \"#utility.yul\":9659:9684   */\n      swap3\n      pop\n        /* \"#utility.yul\":9719:9720   */\n      dup3\n        /* \"#utility.yul\":9716:9717   */\n      dup3\n        /* \"#utility.yul\":9712:9721   */\n      mul\n        /* \"#utility.yul\":9741:9771   */\n      tag_266\n        /* \"#utility.yul\":9759:9770   */\n      dup2\n        /* \"#utility.yul\":9741:9771   */\n      tag_142\n      jump\t// in\n    tag_266:\n        /* \"#utility.yul\":9730:9771   */\n      swap2\n      pop\n        /* \"#utility.yul\":9920:9921   */\n      dup3\n        /* \"#utility.yul\":9911:9918   */\n      dup3\n        /* \"#utility.yul\":9907:9922   */\n      div\n        /* \"#utility.yul\":9904:9905   */\n      dup5\n        /* \"#utility.yul\":9901:9923   */\n      eq\n        /* \"#utility.yul\":9881:9882   */\n      dup4\n        /* \"#utility.yul\":9874:9883   */\n      iszero\n        /* \"#utility.yul\":9854:9937   */\n      or\n        /* \"#utility.yul\":9831:9970   */\n      tag_267\n      jumpi\n        /* \"#utility.yul\":9950:9968   */\n      tag_268\n      tag_168\n      jump\t// in\n    tag_268:\n        /* \"#utility.yul\":9831:9970   */\n    tag_267:\n        /* \"#utility.yul\":9615:9977   */\n      pop\n        /* \"#utility.yul\":9567:9977   */\n      swap3\n      swap2\n      pop\n      pop\n      jump\t// out\n        /* \"#utility.yul\":9983:10163   */\n    tag_169:\n        /* \"#utility.yul\":10031:10108   */\n      0x4e487b7100000000000000000000000000000000000000000000000000000000\n        /* \"#utility.yul\":10028:10029   */\n      0x00\n        /* \"#utility.yul\":10021:10109   */\n      mstore\n        /* \"#utility.yul\":10128:10132   */\n      0x12\n        /* \"#utility.yul\":10125:10126   */\n      0x04\n        /* \"#utility.yul\":10118:10133   */\n      mstore\n        /* \"#utility.yul\":10152:10156   */\n      0x24\n        /* \"#utility.yul\":10149:10150   */\n      0x00\n        /* \"#utility.yul\":10142:10157   */\n      revert\n        /* \"#utility.yul\":10169:10354   */\n    tag_80:\n        /* \"#utility.yul\":10209:10210   */\n      0x00\n        /* \"#utility.yul\":10226:10246   */\n      tag_271\n        /* \"#utility.yul\":10244:10245   */\n      dup3\n        /* \"#utility.yul\":10226:10246   */\n      tag_142\n      jump\t// in\n    tag_271:\n        /* \"#utility.yul\":10221:10246   */\n      swap2\n      pop\n        /* \"#utility.yul\":10260:10280   */\n      tag_272\n        /* \"#utility.yul\":10278:10279   */\n      dup4\n        /* \"#utility.yul\":10260:10280   */\n      tag_142\n      jump\t// in\n    tag_272:\n        /* \"#utility.yul\":10255:10280   */\n      swap3\n      pop\n        /* \"#utility.yul\":10299:10300   */\n      dup3\n        /* \"#utility.yul\":10289:10324   */\n      tag_273\n      jumpi\n        /* \"#utility.yul\":10304:10322   */\n      tag_274\n      tag_169\n      jump\t// in\n    tag_274:\n        /* \"#utility.yul\":10289:10324   */\n    tag_273:\n        /* \"#utility.yul\":10346:10347   */\n      dup3\n        /* \"#utility.yul\":10343:10344   */\n      dup3\n        /* \"#utility.yul\":10339:10348   */\n      div\n        /* \"#utility.yul\":10334:10348   */\n      swap1\n      pop\n        /* \"#utility.yul\":10169:10354   */\n      swap3\n      swap2\n      pop\n      pop\n      jump\t// out\n        /* \"#utility.yul\":10360:10542   */\n    tag_170:\n        /* \"#utility.yul\":10500:10534   */\n      0x4f20706572696f646f2064652061706f73746173206a61207465726d696e6f75\n        /* \"#utility.yul\":10496:10497   */\n      0x00\n        /* \"#utility.yul\":10488:10494   */\n      dup3\n        /* \"#utility.yul\":10484:10498   */\n      add\n        /* \"#utility.yul\":10477:10535   */\n      mstore\n        /* \"#utility.yul\":10360:10542   */\n      pop\n      jump\t// out\n        /* \"#utility.yul\":10548:10914   */\n    tag_171:\n        /* \"#utility.yul\":10690:10693   */\n      0x00\n        /* \"#utility.yul\":10711:10778   */\n      tag_277\n        /* \"#utility.yul\":10775:10777   */\n      0x20\n        /* \"#utility.yul\":10770:10773   */\n      dup4\n        /* \"#utility.yul\":10711:10778   */\n      tag_156\n      jump\t// in\n    tag_277:\n        /* \"#utility.yul\":10704:10778   */\n      swap2\n      pop\n        /* \"#utility.yul\":10787:10880   */\n      tag_278\n        /* \"#utility.yul\":10876:10879   */\n      dup3\n        /* \"#utility.yul\":10787:10880   */\n      tag_170\n      jump\t// in\n    tag_278:\n        /* \"#utility.yul\":10905:10907   */\n      0x20\n        /* \"#utility.yul\":10900:10903   */\n      dup3\n        /* \"#utility.yul\":10896:10908   */\n      add\n        /* \"#utility.yul\":10889:10908   */\n      swap1\n      pop\n        /* \"#utility.yul\":10548:10914   */\n      swap2\n      swap1\n      pop\n      jump\t// out\n        /* \"#utility.yul\":10920:11339   */\n    tag_88:\n        /* \"#utility.yul\":11086:11090   */\n      0x00\n        /* \"#utility.yul\":11124:11126   */\n      0x20\n        /* \"#utility.yul\":11113:11122   */\n      dup3\n        /* \"#utility.yul\":11109:11127   */\n      add\n        /* \"#utility.yul\":11101:11127   */\n      swap1\n      pop\n        /* \"#utility.yul\":11173:11182   */\n      dup2\n        /* \"#utility.yul\":11167:11171   */\n      dup2\n        /* \"#utility.yul\":11163:11183   */\n      sub\n        /* \"#utility.yul\":11159:11160   */\n      0x00\n        /* \"#utility.yul\":11148:11157   */\n      dup4\n        /* \"#utility.yul\":11144:11161   */\n      add\n        /* \"#utility.yul\":11137:11184   */\n      mstore\n        /* \"#utility.yul\":11201:11332   */\n      tag_280\n        /* \"#utility.yul\":11327:11331   */\n      dup2\n        /* \"#utility.yul\":11201:11332   */\n      tag_171\n      jump\t// in\n    tag_280:\n        /* \"#utility.yul\":11193:11332   */\n      swap1\n      pop\n        /* \"#utility.yul\":10920:11339   */\n      swap2\n      swap1\n      pop\n      jump\t// out\n        /* \"#utility.yul\":11345:11513   */\n    tag_172:\n        /* \"#utility.yul\":11485:11505   */\n      0x43616e64696461746f20696e76616c69646f0000000000000000000000000000\n        /* \"#utility.yul\":11481:11482   */\n      0x00\n        /* \"#utility.yul\":11473:11479   */\n      dup3\n        /* \"#utility.yul\":11469:11483   */\n      add\n        /* \"#utility.yul\":11462:11506   */\n      mstore\n        /* \"#utility.yul\":11345:11513   */\n      pop\n      jump\t// out\n        /* \"#utility.yul\":11519:11885   */\n    tag_173:\n        /* \"#utility.yul\":11661:11664   */\n      0x00\n        /* \"#utility.yul\":11682:11749   */\n      tag_283\n        /* \"#utility.yul\":11746:11748   */\n      0x12\n        /* \"#utility.yul\":11741:11744   */\n      dup4\n        /* \"#utility.yul\":11682:11749   */\n      tag_156\n      jump\t// in\n    tag_283:\n        /* \"#utility.yul\":11675:11749   */\n      swap2\n      pop\n        /* \"#utility.yul\":11758:11851   */\n      tag_284\n        /* \"#utility.yul\":11847:11850   */\n      dup3\n        /* \"#utility.yul\":11758:11851   */\n      tag_172\n      jump\t// in\n    tag_284:\n        /* \"#utility.yul\":11876:11878   */\n      0x20\n        /* \"#utility.yul\":11871:11874   */\n      dup3\n        /* \"#utility.yul\":11867:11879   */\n      add\n        /* \"#utility.yul\":11860:11879   */\n      swap1\n      pop\n        /* \"#utility.yul\":11519:11885   */\n      swap2\n      swap1\n      pop\n      jump\t// out\n        /* \"#utility.yul\":11891:12310   */\n    tag_93:\n        /* \"#utility.yul\":12057:12061   */\n      0x00\n        /* \"#utility.yul\":12095:12097   */\n      0x20\n        /* \"#utility.yul\":12084:12093   */\n      dup3\n        /* \"#utility.yul\":12080:12098   */\n      add\n        /* \"#utility.yul\":12072:12098   */\n      swap1\n      pop\n        /* \"#utility.yul\":12144:12153   */\n      dup2\n        /* \"#utility.yul\":12138:12142   */\n      dup2\n        /* \"#utility.yul\":12134:12154   */\n      sub\n        /* \"#utility.yul\":12130:12131   */\n      0x00\n        /* \"#utility.yul\":12119:12128   */\n      dup4\n        /* \"#utility.yul\":12115:12132   */\n      add\n        /* \"#utility.yul\":12108:12155   */\n      mstore\n        /* \"#utility.yul\":12172:12303   */\n      tag_286\n        /* \"#utility.yul\":12298:12302   */\n      dup2\n        /* \"#utility.yul\":12172:12303   */\n      tag_173\n      jump\t// in\n    tag_286:\n        /* \"#utility.yul\":12164:12303   */\n      swap1\n      pop\n        /* \"#utility.yul\":11891:12310   */\n      swap2\n      swap1\n      pop\n      jump\t// out\n        /* \"#utility.yul\":12316:12481   */\n    tag_174:\n        /* \"#utility.yul\":12456:12473   */\n      0x41706f73746120696e76616c6964610000000000000000000000000000000000\n        /* \"#utility.yul\":12452:12453   */\n      0x00\n        /* \"#utility.yul\":12444:12450   */\n      dup3\n        /* \"#utility.yul\":12440:12454   */\n      add\n        /* \"#utility.yul\":12433:12474   */\n      mstore\n        /* \"#utility.yul\":12316:12481   */\n      pop\n      jump\t// out\n        /* \"#utility.yul\":12487:12853   */\n    tag_175:\n        /* \"#utility.yul\":12629:12632   */\n      0x00\n        /* \"#utility.yul\":12650:12717   */\n      tag_289\n        /* \"#utility.yul\":12714:12716   */\n      0x0f\n        /* \"#utility.yul\":12709:12712   */\n      dup4\n        /* \"#utility.yul\":12650:12717   */\n      tag_156\n      jump\t// in\n    tag_289:\n        /* \"#utility.yul\":12643:12717   */\n      swap2\n      pop\n        /* \"#utility.yul\":12726:12819   */\n      tag_290\n        /* \"#utility.yul\":12815:12818   */\n      dup3\n        /* \"#utility.yul\":12726:12819   */\n      tag_174\n      jump\t// in\n    tag_290:\n        /* \"#utility.yul\":12844:12846   */\n      0x20\n        /* \"#utility.yul\":12839:12842   */\n      dup3\n        /* \"#utility.yul\":12835:12847   */\n      add\n        /* \"#utility.yul\":12828:12847   */\n      swap1\n      pop\n        /* \"#utility.yul\":12487:12853   */\n      swap2\n      swap1\n      pop\n      jump\t// out\n        /* \"#utility.yul\":12859:13278   */\n    tag_96:\n        /* \"#utility.yul\":13025:13029   */\n      0x00\n        /* \"#utility.yul\":13063:13065   */\n      0x20\n        /* \"#utility.yul\":13052:13061   */\n      dup3\n        /* \"#utility.yul\":13048:13066   */\n      add\n        /* \"#utility.yul\":13040:13066   */\n      swap1\n      pop\n        /* \"#utility.yul\":13112:13121   */\n      dup2\n        /* \"#utility.yul\":13106:13110   */\n      dup2\n        /* \"#utility.yul\":13102:13122   */\n      sub\n        /* \"#utility.yul\":13098:13099   */\n      0x00\n        /* \"#utility.yul\":13087:13096   */\n      dup4\n        /* \"#utility.yul\":13083:13100   */\n      add\n        /* \"#utility.yul\":13076:13123   */\n      mstore\n        /* \"#utility.yul\":13140:13271   */\n      tag_292\n        /* \"#utility.yul\":13266:13270   */\n      dup2\n        /* \"#utility.yul\":13140:13271   */\n      tag_175\n      jump\t// in\n    tag_292:\n        /* \"#utility.yul\":13132:13271   */\n      swap1\n      pop\n        /* \"#utility.yul\":12859:13278   */\n      swap2\n      swap1\n      pop\n      jump\t// out\n        /* \"#utility.yul\":13284:13451   */\n    tag_176:\n        /* \"#utility.yul\":13424:13443   */\n      0x4469737075746120656e63657272616461000000000000000000000000000000\n        /* \"#utility.yul\":13420:13421   */\n      0x00\n        /* \"#utility.yul\":13412:13418   */\n      dup3\n        /* \"#utility.yul\":13408:13422   */\n      add\n        /* \"#utility.yul\":13401:13444   */\n      mstore\n        /* \"#utility.yul\":13284:13451   */\n      pop\n      jump\t// out\n        /* \"#utility.yul\":13457:13823   */\n    tag_177:\n        /* \"#utility.yul\":13599:13602   */\n      0x00\n        /* \"#utility.yul\":13620:13687   */\n      tag_295\n        /* \"#utility.yul\":13684:13686   */\n      0x11\n        /* \"#utility.yul\":13679:13682   */\n      dup4\n        /* \"#utility.yul\":13620:13687   */\n      tag_156\n      jump\t// in\n    tag_295:\n        /* \"#utility.yul\":13613:13687   */\n      swap2\n      pop\n        /* \"#utility.yul\":13696:13789   */\n      tag_296\n        /* \"#utility.yul\":13785:13788   */\n      dup3\n        /* \"#utility.yul\":13696:13789   */\n      tag_176\n      jump\t// in\n    tag_296:\n        /* \"#utility.yul\":13814:13816   */\n      0x20\n        /* \"#utility.yul\":13809:13812   */\n      dup3\n        /* \"#utility.yul\":13805:13817   */\n      add\n        /* \"#utility.yul\":13798:13817   */\n      swap1\n      pop\n        /* \"#utility.yul\":13457:13823   */\n      swap2\n      swap1\n      pop\n      jump\t// out\n        /* \"#utility.yul\":13829:14248   */\n    tag_99:\n        /* \"#utility.yul\":13995:13999   */\n      0x00\n        /* \"#utility.yul\":14033:14035   */\n      0x20\n        /* \"#utility.yul\":14022:14031   */\n      dup3\n        /* \"#utility.yul\":14018:14036   */\n      add\n        /* \"#utility.yul\":14010:14036   */\n      swap1\n      pop\n        /* \"#utility.yul\":14082:14091   */\n      dup2\n        /* \"#utility.yul\":14076:14080   */\n      dup2\n        /* \"#utility.yul\":14072:14092   */\n      sub\n        /* \"#utility.yul\":14068:14069   */\n      0x00\n        /* \"#utility.yul\":14057:14066   */\n      dup4\n        /* \"#utility.yul\":14053:14070   */\n      add\n        /* \"#utility.yul\":14046:14093   */\n      mstore\n        /* \"#utility.yul\":14110:14241   */\n      tag_298\n        /* \"#utility.yul\":14236:14240   */\n      dup2\n        /* \"#utility.yul\":14110:14241   */\n      tag_177\n      jump\t// in\n    tag_298:\n        /* \"#utility.yul\":14102:14241   */\n      swap1\n      pop\n        /* \"#utility.yul\":13829:14248   */\n      swap2\n      swap1\n      pop\n      jump\t// out\n        /* \"#utility.yul\":14254:14445   */\n    tag_104:\n        /* \"#utility.yul\":14294:14297   */\n      0x00\n        /* \"#utility.yul\":14313:14333   */\n      tag_300\n        /* \"#utility.yul\":14331:14332   */\n      dup3\n        /* \"#utility.yul\":14313:14333   */\n      tag_142\n      jump\t// in\n    tag_300:\n        /* \"#utility.yul\":14308:14333   */\n      swap2\n      pop\n        /* \"#utility.yul\":14347:14367   */\n      tag_301\n        /* \"#utility.yul\":14365:14366   */\n      dup4\n        /* \"#utility.yul\":14347:14367   */\n      tag_142\n      jump\t// in\n    tag_301:\n        /* \"#utility.yul\":14342:14367   */\n      swap3\n      pop\n        /* \"#utility.yul\":14390:14391   */\n      dup3\n        /* \"#utility.yul\":14387:14388   */\n      dup3\n        /* \"#utility.yul\":14383:14392   */\n      add\n        /* \"#utility.yul\":14376:14392   */\n      swap1\n      pop\n        /* \"#utility.yul\":14411:14414   */\n      dup1\n        /* \"#utility.yul\":14408:14409   */\n      dup3\n        /* \"#utility.yul\":14405:14415   */\n      gt\n        /* \"#utility.yul\":14402:14438   */\n      iszero\n      tag_302\n      jumpi\n        /* \"#utility.yul\":14418:14436   */\n      tag_303\n      tag_168\n      jump\t// in\n    tag_303:\n        /* \"#utility.yul\":14402:14438   */\n    tag_302:\n        /* \"#utility.yul\":14254:14445   */\n      swap3\n      swap2\n      pop\n      pop\n      jump\t// out\n        /* \"#utility.yul\":14451:14615   */\n    tag_178:\n        /* \"#utility.yul\":14591:14607   */\n      0x436f6e746120696e76616c696461000000000000000000000000000000000000\n        /* \"#utility.yul\":14587:14588   */\n      0x00\n        /* \"#utility.yul\":14579:14585   */\n      dup3\n        /* \"#utility.yul\":14575:14589   */\n      add\n        /* \"#utility.yul\":14568:14608   */\n      mstore\n        /* \"#utility.yul\":14451:14615   */\n      pop\n      jump\t// out\n        /* \"#utility.yul\":14621:14987   */\n    tag_179:\n        /* \"#utility.yul\":14763:14766   */\n      0x00\n        /* \"#utility.yul\":14784:14851   */\n      tag_306\n        /* \"#utility.yul\":14848:14850   */\n      0x0e\n        /* \"#utility.yul\":14843:14846   */\n      dup4\n        /* \"#utility.yul\":14784:14851   */\n      tag_156\n      jump\t// in\n    tag_306:\n        /* \"#utility.yul\":14777:14851   */\n      swap2\n      pop\n        /* \"#utility.yul\":14860:14953   */\n      tag_307\n        /* \"#utility.yul\":14949:14952   */\n      dup3\n        /* \"#utility.yul\":14860:14953   */\n      tag_178\n      jump\t// in\n    tag_307:\n        /* \"#utility.yul\":14978:14980   */\n      0x20\n        /* \"#utility.yul\":14973:14976   */\n      dup3\n        /* \"#utility.yul\":14969:14981   */\n      add\n        /* \"#utility.yul\":14962:14981   */\n      swap1\n      pop\n        /* \"#utility.yul\":14621:14987   */\n      swap2\n      swap1\n      pop\n      jump\t// out\n        /* \"#utility.yul\":14993:15412   */\n    tag_110:\n        /* \"#utility.yul\":15159:15163   */\n      0x00\n        /* \"#utility.yul\":15197:15199   */\n      0x20\n        /* \"#utility.yul\":15186:15195   */\n      dup3\n        /* \"#utility.yul\":15182:15200   */\n      add\n        /* \"#utility.yul\":15174:15200   */\n      swap1\n      pop\n        /* \"#utility.yul\":15246:15255   */\n      dup2\n        /* \"#utility.yul\":15240:15244   */\n      dup2\n        /* \"#utility.yul\":15236:15256   */\n      sub\n        /* \"#utility.yul\":15232:15233   */\n      0x00\n        /* \"#utility.yul\":15221:15230   */\n      dup4\n        /* \"#utility.yul\":15217:15234   */\n      add\n        /* \"#utility.yul\":15210:15257   */\n      mstore\n        /* \"#utility.yul\":15274:15405   */\n      tag_309\n        /* \"#utility.yul\":15400:15404   */\n      dup2\n        /* \"#utility.yul\":15274:15405   */\n      tag_179\n      jump\t// in\n    tag_309:\n        /* \"#utility.yul\":15266:15405   */\n      swap1\n      pop\n        /* \"#utility.yul\":14993:15412   */\n      swap2\n      swap1\n      pop\n      jump\t// out\n        /* \"#utility.yul\":15418:15612   */\n    tag_120:\n        /* \"#utility.yul\":15458:15462   */\n      0x00\n        /* \"#utility.yul\":15478:15498   */\n      tag_311\n        /* \"#utility.yul\":15496:15497   */\n      dup3\n        /* \"#utility.yul\":15478:15498   */\n      tag_142\n      jump\t// in\n    tag_311:\n        /* \"#utility.yul\":15473:15498   */\n      swap2\n      pop\n        /* \"#utility.yul\":15512:15532   */\n      tag_312\n        /* \"#utility.yul\":15530:15531   */\n      dup4\n        /* \"#utility.yul\":15512:15532   */\n      tag_142\n      jump\t// in\n    tag_312:\n        /* \"#utility.yul\":15507:15532   */\n      swap3\n      pop\n        /* \"#utility.yul\":15556:15557   */\n      dup3\n        /* \"#utility.yul\":15553:15554   */\n      dup3\n        /* \"#utility.yul\":15549:15558   */\n      sub\n        /* \"#utility.yul\":15541:15558   */\n      swap1\n      pop\n        /* \"#utility.yul\":15580:15581   */\n      dup2\n        /* \"#utility.yul\":15574:15578   */\n      dup2\n        /* \"#utility.yul\":15571:15582   */\n      gt\n        /* \"#utility.yul\":15568:15605   */\n      iszero\n      tag_313\n      jumpi\n        /* \"#utility.yul\":15585:15603   */\n      tag_314\n      tag_168\n      jump\t// in\n    tag_314:\n        /* \"#utility.yul\":15568:15605   */\n    tag_313:\n        /* \"#utility.yul\":15418:15612   */\n      swap3\n      swap2\n      pop\n      pop\n      jump\t// out\n        /* \"#utility.yul\":15618:15798   */\n    tag_180:\n        /* \"#utility.yul\":15666:15743   */\n      0x4e487b7100000000000000000000000000000000000000000000000000000000\n        /* \"#utility.yul\":15663:15664   */\n      0x00\n        /* \"#utility.yul\":15656:15744   */\n      mstore\n        /* \"#utility.yul\":15763:15767   */\n      0x22\n        /* \"#utility.yul\":15760:15761   */\n      0x04\n        /* \"#utility.yul\":15753:15768   */\n      mstore\n        /* \"#utility.yul\":15787:15791   */\n      0x24\n        /* \"#utility.yul\":15784:15785   */\n      0x00\n        /* \"#utility.yul\":15777:15792   */\n      revert\n        /* \"#utility.yul\":15804:16124   */\n    tag_122:\n        /* \"#utility.yul\":15848:15854   */\n      0x00\n        /* \"#utility.yul\":15885:15886   */\n      0x02\n        /* \"#utility.yul\":15879:15883   */\n      dup3\n        /* \"#utility.yul\":15875:15887   */\n      div\n        /* \"#utility.yul\":15865:15887   */\n      swap1\n      pop\n        /* \"#utility.yul\":15932:15933   */\n      0x01\n        /* \"#utility.yul\":15926:15930   */\n      dup3\n        /* \"#utility.yul\":15922:15934   */\n      and\n        /* \"#utility.yul\":15953:15971   */\n      dup1\n        /* \"#utility.yul\":15943:16024   */\n      tag_317\n      jumpi\n        /* \"#utility.yul\":16009:16013   */\n      0x7f\n        /* \"#utility.yul\":16001:16007   */\n      dup3\n        /* \"#utility.yul\":15997:16014   */\n      and\n        /* \"#utility.yul\":15987:16014   */\n      swap2\n      pop\n        /* \"#utility.yul\":15943:16024   */\n    tag_317:\n        /* \"#utility.yul\":16071:16073   */\n      0x20\n        /* \"#utility.yul\":16063:16069   */\n      dup3\n        /* \"#utility.yul\":16060:16074   */\n      lt\n        /* \"#utility.yul\":16040:16058   */\n      dup2\n        /* \"#utility.yul\":16037:16075   */\n      sub\n        /* \"#utility.yul\":16034:16118   */\n      tag_318\n      jumpi\n        /* \"#utility.yul\":16090:16108   */\n      tag_319\n      tag_180\n      jump\t// in\n    tag_319:\n        /* \"#utility.yul\":16034:16118   */\n    tag_318:\n        /* \"#utility.yul\":15855:16124   */\n      pop\n        /* \"#utility.yul\":15804:16124   */\n      swap2\n      swap1\n      pop\n      jump\t// out\n\n    auxdata: 0xa2646970667358221220e83b9c9960fc07fa6013430d67f12b04bc7d9fca3551218ae3be846290e0075c64736f6c634300081a0033\n}\n",
				"bytecode": {
					"linkReferences": {},
					"object": "60806040526103e8600955348015610015575f80fd5b503360085f6101000a81548173ffffffffffffffffffffffffffffffffffffffff021916908373ffffffffffffffffffffffffffffffffffffffff1602179055506040518060e001604052806040518060400160405280600881526020017f442e205472756d7000000000000000000000000000000000000000000000000081525081526020016040518060400160405280600981526020017f4b2e20486172726973000000000000000000000000000000000000000000000081525081526020016040518060400160405280601581526020017f687474703a2f2f6269742e6c792f337a6d53666941000000000000000000000081525081526020016040518060400160405280601581526020017f687474703a2f2f6269742e6c792f346746346d594f000000000000000000000081525081526020015f81526020015f81526020015f8152505f80820151815f0190816101719190610427565b5060208201518160010190816101879190610427565b50604082015181600201908161019d9190610427565b5060608201518160030190816101b39190610427565b506080820151816004015560a0820151816005015560c08201518160060155905050603c426101e29190610523565b600b81905550610556565b5f81519050919050565b7f4e487b71000000000000000000000000000000000000000000000000000000005f52604160045260245ffd5b7f4e487b71000000000000000000000000000000000000000000000000000000005f52602260045260245ffd5b5f600282049050600182168061026857607f821691505b60208210810361027b5761027a610224565b5b50919050565b5f819050815f5260205f209050919050565b5f6020601f8301049050919050565b5f82821b905092915050565b5f600883026102dd7fffffffffffffffffffffffffffffffffffffffffffffffffffffffffffffffff826102a2565b6102e786836102a2565b95508019841693508086168417925050509392505050565b5f819050919050565b5f819050919050565b5f61032b610326610321846102ff565b610308565b6102ff565b9050919050565b5f819050919050565b61034483610311565b61035861035082610332565b8484546102ae565b825550505050565b5f90565b61036c610360565b61037781848461033b565b505050565b5b8181101561039a5761038f5f82610364565b60018101905061037d565b5050565b601f8211156103df576103b081610281565b6103b984610293565b810160208510156103c8578190505b6103dc6103d485610293565b83018261037c565b50505b505050565b5f82821c905092915050565b5f6103ff5f19846008026103e4565b1980831691505092915050565b5f61041783836103f0565b9150826002028217905092915050565b610430826101ed565b67ffffffffffffffff811115610449576104486101f7565b5b6104538254610251565b61045e82828561039e565b5f60209050601f83116001811461048f575f841561047d578287015190505b610487858261040c565b8655506104ee565b601f19841661049d86610281565b5f5b828110156104c45784890151825560018201915060208501945060208101905061049f565b868310156104e157848901516104dd601f8916826103f0565b8355505b6001600288020188555050505b505050505050565b7f4e487b71000000000000000000000000000000000000000000000000000000005f52601160045260245ffd5b5f61052d826102ff565b9150610538836102ff565b92508282019050808211156105505761054f6104f6565b5b92915050565b6113df806105635f395ff3fe608060405260043610610090575f3560e01c806393bebee81161005857806393bebee814610130578063d353a1cb1461016f578063e148919114610197578063f240f7c3146101c1578063f93882e3146101f157610090565b8063121de3f6146100945780634055b168146100be5780634e71d92d146100d457806369b10852146100ea5780637365870b14610114575b5f80fd5b34801561009f575f80fd5b506100a861021b565b6040516100b59190610bc1565b60405180910390f35b3480156100c9575f80fd5b506100d2610221565b005b3480156100df575f80fd5b506100e86103c8565b005b3480156100f5575f80fd5b506100fe61058d565b60405161010b9190610bf4565b60405180910390f35b61012e60048036038101906101299190610c3b565b61059f565b005b34801561013b575f80fd5b5061015660048036038101906101519190610cc0565b61078b565b6040516101669493929190610ceb565b60405180910390f35b34801561017a575f80fd5b5061019560048036038101906101909190610c3b565b6107b7565b005b3480156101a2575f80fd5b506101ab610933565b6040516101b89190610bc1565b60405180910390f35b3480156101cc575f80fd5b506101d5610939565b6040516101e89796959493929190610d9e565b60405180910390f35b3480156101fc575f80fd5b50610205610b7f565b6040516102129190610bc1565b60405180910390f35b600a5481565b60085f9054906101000a900473ffffffffffffffffffffffffffffffffffffffff1673ffffffffffffffffffffffffffffffffffffffff163373ffffffffffffffffffffffffffffffffffffffff16146102b0576040517f08c379a00000000000000000000000000000000000000000000000000000000081526004016102a790610e97565b60405180910390fd5b5f8060060154116102f6576040517f08c379a00000000000000000000000000000000000000000000000000000000081526004016102ed90610f25565b60405180910390fd5b600d5f9054906101000a900460ff1615610345576040517f08c379a000000000000000000000000000000000000000000000000000000000815260040161033c90610f8d565b60405180910390fd5b6001600d5f6101000a81548160ff02191690831515021790555060085f9054906101000a900473ffffffffffffffffffffffffffffffffffffffff1673ffffffffffffffffffffffffffffffffffffffff166108fc600c5490811502906040515f60405180830381858888f193505050501580156103c5573d5f803e3d5ffd5b50565b5f60075f3373ffffffffffffffffffffffffffffffffffffffff1673ffffffffffffffffffffffffffffffffffffffff1681526020019081526020015f206040518060800160405290815f8201548152602001600182015481526020016002820154815260200160038201548152505090505f8060060154118015610454575080602001515f60060154145b801561046357505f8160600151145b6104a2576040517f08c379a000000000000000000000000000000000000000000000000000000000815260040161049990610ff5565b60405180910390fd5b5f60015f60060154146104b9575f600501546104bf565b5f600401545b90505f81612710845f01516104d49190611040565b6104de91906110ae565b90505f61271082600a546104f29190611040565b6104fc91906110ae565b90508060075f3373ffffffffffffffffffffffffffffffffffffffff1673ffffffffffffffffffffffffffffffffffffffff1681526020019081526020015f20600301819055503373ffffffffffffffffffffffffffffffffffffffff166108fc8290811502906040515f60405180830381858888f19350505050158015610586573d5f803e3d5ffd5b5050505050565b600d5f9054906101000a900460ff1681565b600b5442106105e3576040517f08c379a00000000000000000000000000000000000000000000000000000000081526004016105da90611128565b60405180910390fd5b60018114806105f25750600281145b610631576040517f08c379a000000000000000000000000000000000000000000000000000000000815260040161062890611190565b60405180910390fd5b5f3411610673576040517f08c379a000000000000000000000000000000000000000000000000000000000815260040161066a906111f8565b60405180910390fd5b5f8060060154146106b9576040517f08c379a00000000000000000000000000000000000000000000000000000000081526004016106b090611260565b60405180910390fd5b6106c1610b85565b34815f01818152505081816020018181525050428160400181815250508060075f3373ffffffffffffffffffffffffffffffffffffffff1673ffffffffffffffffffffffffffffffffffffffff1681526020019081526020015f205f820151815f01556020820151816001015560408201518160020155606082015181600301559050506001820361076c57345f6004015f828254610760919061127e565b92505081905550610787565b345f6005015f82825461077f919061127e565b925050819055505b5050565b6007602052805f5260405f205f91509050805f0154908060010154908060020154908060030154905084565b60085f9054906101000a900473ffffffffffffffffffffffffffffffffffffffff1673ffffffffffffffffffffffffffffffffffffffff163373ffffffffffffffffffffffffffffffffffffffff1614610846576040517f08c379a000000000000000000000000000000000000000000000000000000000815260040161083d906112fb565b60405180910390fd5b60018114806108555750600281145b610894576040517f08c379a000000000000000000000000000000000000000000000000000000000815260040161088b90611190565b60405180910390fd5b5f8060060154146108da576040517f08c379a00000000000000000000000000000000000000000000000000000000081526004016108d190611260565b60405180910390fd5b805f600601819055505f80600501545f600401546108f8919061127e565b90506127106009548261090b9190611040565b61091591906110ae565b600c81905550600c54816109299190611319565b600a819055505050565b600c5481565b5f805f01805461094890611379565b80601f016020809104026020016040519081016040528092919081815260200182805461097490611379565b80156109bf5780601f10610996576101008083540402835291602001916109bf565b820191905f5260205f20905b8154815290600101906020018083116109a257829003601f168201915b5050505050908060010180546109d490611379565b80601f0160208091040260200160405190810160405280929190818152602001828054610a0090611379565b8015610a4b5780601f10610a2257610100808354040283529160200191610a4b565b820191905f5260205f20905b815481529060010190602001808311610a2e57829003601f168201915b505050505090806002018054610a6090611379565b80601f0160208091040260200160405190810160405280929190818152602001828054610a8c90611379565b8015610ad75780601f10610aae57610100808354040283529160200191610ad7565b820191905f5260205f20905b815481529060010190602001808311610aba57829003601f168201915b505050505090806003018054610aec90611379565b80601f0160208091040260200160405190810160405280929190818152602001828054610b1890611379565b8015610b635780601f10610b3a57610100808354040283529160200191610b63565b820191905f5260205f20905b815481529060010190602001808311610b4657829003601f168201915b5050505050908060040154908060050154908060060154905087565b600b5481565b60405180608001604052805f81526020015f81526020015f81526020015f81525090565b5f819050919050565b610bbb81610ba9565b82525050565b5f602082019050610bd45f830184610bb2565b92915050565b5f8115159050919050565b610bee81610bda565b82525050565b5f602082019050610c075f830184610be5565b92915050565b5f80fd5b610c1a81610ba9565b8114610c24575f80fd5b50565b5f81359050610c3581610c11565b92915050565b5f60208284031215610c5057610c4f610c0d565b5b5f610c5d84828501610c27565b91505092915050565b5f73ffffffffffffffffffffffffffffffffffffffff82169050919050565b5f610c8f82610c66565b9050919050565b610c9f81610c85565b8114610ca9575f80fd5b50565b5f81359050610cba81610c96565b92915050565b5f60208284031215610cd557610cd4610c0d565b5b5f610ce284828501610cac565b91505092915050565b5f608082019050610cfe5f830187610bb2565b610d0b6020830186610bb2565b610d186040830185610bb2565b610d256060830184610bb2565b95945050505050565b5f81519050919050565b5f82825260208201905092915050565b8281835e5f83830152505050565b5f601f19601f8301169050919050565b5f610d7082610d2e565b610d7a8185610d38565b9350610d8a818560208601610d48565b610d9381610d56565b840191505092915050565b5f60e0820190508181035f830152610db6818a610d66565b90508181036020830152610dca8189610d66565b90508181036040830152610dde8188610d66565b90508181036060830152610df28187610d66565b9050610e016080830186610bb2565b610e0e60a0830185610bb2565b610e1b60c0830184610bb2565b98975050505050505050565b7f536f6d656e7465206f2070726f70726965746172696f20706f646520736163615f8201527f72206120636f6d697373616f0000000000000000000000000000000000000000602082015250565b5f610e81602c83610d38565b9150610e8c82610e27565b604082019050919050565b5f6020820190508181035f830152610eae81610e75565b9050919050565b7f4120646973707574612061696e6461206e616f20666f692066696e616c697a615f8201527f6461000000000000000000000000000000000000000000000000000000000000602082015250565b5f610f0f602283610d38565b9150610f1a82610eb5565b604082019050919050565b5f6020820190508181035f830152610f3c81610f03565b9050919050565b7f4120636f6d697373616f206a6120666f692073616361646100000000000000005f82015250565b5f610f77601883610d38565b9150610f8282610f43565b602082019050919050565b5f6020820190508181035f830152610fa481610f6b565b9050919050565b7f5265736761746520696e76616c69646f000000000000000000000000000000005f82015250565b5f610fdf601083610d38565b9150610fea82610fab565b602082019050919050565b5f6020820190508181035f83015261100c81610fd3565b9050919050565b7f4e487b71000000000000000000000000000000000000000000000000000000005f52601160045260245ffd5b5f61104a82610ba9565b915061105583610ba9565b925082820261106381610ba9565b9150828204841483151761107a57611079611013565b5b5092915050565b7f4e487b71000000000000000000000000000000000000000000000000000000005f52601260045260245ffd5b5f6110b882610ba9565b91506110c383610ba9565b9250826110d3576110d2611081565b5b828204905092915050565b7f4f20706572696f646f2064652061706f73746173206a61207465726d696e6f755f82015250565b5f611112602083610d38565b915061111d826110de565b602082019050919050565b5f6020820190508181035f83015261113f81611106565b9050919050565b7f43616e64696461746f20696e76616c69646f00000000000000000000000000005f82015250565b5f61117a601283610d38565b915061118582611146565b602082019050919050565b5f6020820190508181035f8301526111a78161116e565b9050919050565b7f41706f73746120696e76616c69646100000000000000000000000000000000005f82015250565b5f6111e2600f83610d38565b91506111ed826111ae565b602082019050919050565b5f6020820190508181035f83015261120f816111d6565b9050919050565b7f4469737075746120656e636572726164610000000000000000000000000000005f82015250565b5f61124a601183610d38565b915061125582611216565b602082019050919050565b5f6020820190508181035f8301526112778161123e565b9050919050565b5f61128882610ba9565b915061129383610ba9565b92508282019050808211156112ab576112aa611013565b5b92915050565b7f436f6e746120696e76616c6964610000000000000000000000000000000000005f82015250565b5f6112e5600e83610d38565b91506112f0826112b1565b602082019050919050565b5f6020820190508181035f830152611312816112d9565b9050919050565b5f61132382610ba9565b915061132e83610ba9565b925082820390508181111561134657611345611013565b5b92915050565b7f4e487b71000000000000000000000000000000000000000000000000000000005f52602260045260245ffd5b5f600282049050600182168061139057607f821691505b6020821081036113a3576113a261134c565b5b5091905056fea2646970667358221220e83b9c9960fc07fa6013430d67f12b04bc7d9fca3551218ae3be846290e0075c64736f6c634300081a0033",
					"opcodes": "PUSH1 0x80 PUSH1 0x40 MSTORE PUSH2 0x3E8 PUSH1 0x9 SSTORE CALLVALUE DUP1 ISZERO PUSH2 0x15 JUMPI PUSH0 DUP1 REVERT JUMPDEST POP CALLER PUSH1 0x8 PUSH0 PUSH2 0x100 EXP DUP2 SLOAD DUP2 PUSH20 0xFFFFFFFFFFFFFFFFFFFFFFFFFFFFFFFFFFFFFFFF MUL NOT AND SWAP1 DUP4 PUSH20 0xFFFFFFFFFFFFFFFFFFFFFFFFFFFFFFFFFFFFFFFF AND MUL OR SWAP1 SSTORE POP PUSH1 0x40 MLOAD DUP1 PUSH1 0xE0 ADD PUSH1 0x40 MSTORE DUP1 PUSH1 0x40 MLOAD DUP1 PUSH1 0x40 ADD PUSH1 0x40 MSTORE DUP1 PUSH1 0x8 DUP2 MSTORE PUSH1 0x20 ADD PUSH32 0x442E205472756D70000000000000000000000000000000000000000000000000 DUP2 MSTORE POP DUP2 MSTORE PUSH1 0x20 ADD PUSH1 0x40 MLOAD DUP1 PUSH1 0x40 ADD PUSH1 0x40 MSTORE DUP1 PUSH1 0x9 DUP2 MSTORE PUSH1 0x20 ADD PUSH32 0x4B2E204861727269730000000000000000000000000000000000000000000000 DUP2 MSTORE POP DUP2 MSTORE PUSH1 0x20 ADD PUSH1 0x40 MLOAD DUP1 PUSH1 0x40 ADD PUSH1 0x40 MSTORE DUP1 PUSH1 0x15 DUP2 MSTORE PUSH1 0x20 ADD PUSH32 0x687474703A2F2F6269742E6C792F337A6D536669410000000000000000000000 DUP2 MSTORE POP DUP2 MSTORE PUSH1 0x20 ADD PUSH1 0x40 MLOAD DUP1 PUSH1 0x40 ADD PUSH1 0x40 MSTORE DUP1 PUSH1 0x15 DUP2 MSTORE PUSH1 0x20 ADD PUSH32 0x687474703A2F2F6269742E6C792F346746346D594F0000000000000000000000 DUP2 MSTORE POP DUP2 MSTORE PUSH1 0x20 ADD PUSH0 DUP2 MSTORE PUSH1 0x20 ADD PUSH0 DUP2 MSTORE PUSH1 0x20 ADD PUSH0 DUP2 MSTORE POP PUSH0 DUP1 DUP3 ADD MLOAD DUP2 PUSH0 ADD SWAP1 DUP2 PUSH2 0x171 SWAP2 SWAP1 PUSH2 0x427 JUMP JUMPDEST POP PUSH1 0x20 DUP3 ADD MLOAD DUP2 PUSH1 0x1 ADD SWAP1 DUP2 PUSH2 0x187 SWAP2 SWAP1 PUSH2 0x427 JUMP JUMPDEST POP PUSH1 0x40 DUP3 ADD MLOAD DUP2 PUSH1 0x2 ADD SWAP1 DUP2 PUSH2 0x19D SWAP2 SWAP1 PUSH2 0x427 JUMP JUMPDEST POP PUSH1 0x60 DUP3 ADD MLOAD DUP2 PUSH1 0x3 ADD SWAP1 DUP2 PUSH2 0x1B3 SWAP2 SWAP1 PUSH2 0x427 JUMP JUMPDEST POP PUSH1 0x80 DUP3 ADD MLOAD DUP2 PUSH1 0x4 ADD SSTORE PUSH1 0xA0 DUP3 ADD MLOAD DUP2 PUSH1 0x5 ADD SSTORE PUSH1 0xC0 DUP3 ADD MLOAD DUP2 PUSH1 0x6 ADD SSTORE SWAP1 POP POP PUSH1 0x3C TIMESTAMP PUSH2 0x1E2 SWAP2 SWAP1 PUSH2 0x523 JUMP JUMPDEST PUSH1 0xB DUP2 SWAP1 SSTORE POP PUSH2 0x556 JUMP JUMPDEST PUSH0 DUP2 MLOAD SWAP1 POP SWAP2 SWAP1 POP JUMP JUMPDEST PUSH32 0x4E487B7100000000000000000000000000000000000000000000000000000000 PUSH0 MSTORE PUSH1 0x41 PUSH1 0x4 MSTORE PUSH1 0x24 PUSH0 REVERT JUMPDEST PUSH32 0x4E487B7100000000000000000000000000000000000000000000000000000000 PUSH0 MSTORE PUSH1 0x22 PUSH1 0x4 MSTORE PUSH1 0x24 PUSH0 REVERT JUMPDEST PUSH0 PUSH1 0x2 DUP3 DIV SWAP1 POP PUSH1 0x1 DUP3 AND DUP1 PUSH2 0x268 JUMPI PUSH1 0x7F DUP3 AND SWAP2 POP JUMPDEST PUSH1 0x20 DUP3 LT DUP2 SUB PUSH2 0x27B JUMPI PUSH2 0x27A PUSH2 0x224 JUMP JUMPDEST JUMPDEST POP SWAP2 SWAP1 POP JUMP JUMPDEST PUSH0 DUP2 SWAP1 POP DUP2 PUSH0 MSTORE PUSH1 0x20 PUSH0 KECCAK256 SWAP1 POP SWAP2 SWAP1 POP JUMP JUMPDEST PUSH0 PUSH1 0x20 PUSH1 0x1F DUP4 ADD DIV SWAP1 POP SWAP2 SWAP1 POP JUMP JUMPDEST PUSH0 DUP3 DUP3 SHL SWAP1 POP SWAP3 SWAP2 POP POP JUMP JUMPDEST PUSH0 PUSH1 0x8 DUP4 MUL PUSH2 0x2DD PUSH32 0xFFFFFFFFFFFFFFFFFFFFFFFFFFFFFFFFFFFFFFFFFFFFFFFFFFFFFFFFFFFFFFFF DUP3 PUSH2 0x2A2 JUMP JUMPDEST PUSH2 0x2E7 DUP7 DUP4 PUSH2 0x2A2 JUMP JUMPDEST SWAP6 POP DUP1 NOT DUP5 AND SWAP4 POP DUP1 DUP7 AND DUP5 OR SWAP3 POP POP POP SWAP4 SWAP3 POP POP POP JUMP JUMPDEST PUSH0 DUP2 SWAP1 POP SWAP2 SWAP1 POP JUMP JUMPDEST PUSH0 DUP2 SWAP1 POP SWAP2 SWAP1 POP JUMP JUMPDEST PUSH0 PUSH2 0x32B PUSH2 0x326 PUSH2 0x321 DUP5 PUSH2 0x2FF JUMP JUMPDEST PUSH2 0x308 JUMP JUMPDEST PUSH2 0x2FF JUMP JUMPDEST SWAP1 POP SWAP2 SWAP1 POP JUMP JUMPDEST PUSH0 DUP2 SWAP1 POP SWAP2 SWAP1 POP JUMP JUMPDEST PUSH2 0x344 DUP4 PUSH2 0x311 JUMP JUMPDEST PUSH2 0x358 PUSH2 0x350 DUP3 PUSH2 0x332 JUMP JUMPDEST DUP5 DUP5 SLOAD PUSH2 0x2AE JUMP JUMPDEST DUP3 SSTORE POP POP POP POP JUMP JUMPDEST PUSH0 SWAP1 JUMP JUMPDEST PUSH2 0x36C PUSH2 0x360 JUMP JUMPDEST PUSH2 0x377 DUP2 DUP5 DUP5 PUSH2 0x33B JUMP JUMPDEST POP POP POP JUMP JUMPDEST JUMPDEST DUP2 DUP2 LT ISZERO PUSH2 0x39A JUMPI PUSH2 0x38F PUSH0 DUP3 PUSH2 0x364 JUMP JUMPDEST PUSH1 0x1 DUP2 ADD SWAP1 POP PUSH2 0x37D JUMP JUMPDEST POP POP JUMP JUMPDEST PUSH1 0x1F DUP3 GT ISZERO PUSH2 0x3DF JUMPI PUSH2 0x3B0 DUP2 PUSH2 0x281 JUMP JUMPDEST PUSH2 0x3B9 DUP5 PUSH2 0x293 JUMP JUMPDEST DUP2 ADD PUSH1 0x20 DUP6 LT ISZERO PUSH2 0x3C8 JUMPI DUP2 SWAP1 POP JUMPDEST PUSH2 0x3DC PUSH2 0x3D4 DUP6 PUSH2 0x293 JUMP JUMPDEST DUP4 ADD DUP3 PUSH2 0x37C JUMP JUMPDEST POP POP JUMPDEST POP POP POP JUMP JUMPDEST PUSH0 DUP3 DUP3 SHR SWAP1 POP SWAP3 SWAP2 POP POP JUMP JUMPDEST PUSH0 PUSH2 0x3FF PUSH0 NOT DUP5 PUSH1 0x8 MUL PUSH2 0x3E4 JUMP JUMPDEST NOT DUP1 DUP4 AND SWAP2 POP POP SWAP3 SWAP2 POP POP JUMP JUMPDEST PUSH0 PUSH2 0x417 DUP4 DUP4 PUSH2 0x3F0 JUMP JUMPDEST SWAP2 POP DUP3 PUSH1 0x2 MUL DUP3 OR SWAP1 POP SWAP3 SWAP2 POP POP JUMP JUMPDEST PUSH2 0x430 DUP3 PUSH2 0x1ED JUMP JUMPDEST PUSH8 0xFFFFFFFFFFFFFFFF DUP2 GT ISZERO PUSH2 0x449 JUMPI PUSH2 0x448 PUSH2 0x1F7 JUMP JUMPDEST JUMPDEST PUSH2 0x453 DUP3 SLOAD PUSH2 0x251 JUMP JUMPDEST PUSH2 0x45E DUP3 DUP3 DUP6 PUSH2 0x39E JUMP JUMPDEST PUSH0 PUSH1 0x20 SWAP1 POP PUSH1 0x1F DUP4 GT PUSH1 0x1 DUP2 EQ PUSH2 0x48F JUMPI PUSH0 DUP5 ISZERO PUSH2 0x47D JUMPI DUP3 DUP8 ADD MLOAD SWAP1 POP JUMPDEST PUSH2 0x487 DUP6 DUP3 PUSH2 0x40C JUMP JUMPDEST DUP7 SSTORE POP PUSH2 0x4EE JUMP JUMPDEST PUSH1 0x1F NOT DUP5 AND PUSH2 0x49D DUP7 PUSH2 0x281 JUMP JUMPDEST PUSH0 JUMPDEST DUP3 DUP2 LT ISZERO PUSH2 0x4C4 JUMPI DUP5 DUP10 ADD MLOAD DUP3 SSTORE PUSH1 0x1 DUP3 ADD SWAP2 POP PUSH1 0x20 DUP6 ADD SWAP5 POP PUSH1 0x20 DUP2 ADD SWAP1 POP PUSH2 0x49F JUMP JUMPDEST DUP7 DUP4 LT ISZERO PUSH2 0x4E1 JUMPI DUP5 DUP10 ADD MLOAD PUSH2 0x4DD PUSH1 0x1F DUP10 AND DUP3 PUSH2 0x3F0 JUMP JUMPDEST DUP4 SSTORE POP JUMPDEST PUSH1 0x1 PUSH1 0x2 DUP9 MUL ADD DUP9 SSTORE POP POP POP JUMPDEST POP POP POP POP POP POP JUMP JUMPDEST PUSH32 0x4E487B7100000000000000000000000000000000000000000000000000000000 PUSH0 MSTORE PUSH1 0x11 PUSH1 0x4 MSTORE PUSH1 0x24 PUSH0 REVERT JUMPDEST PUSH0 PUSH2 0x52D DUP3 PUSH2 0x2FF JUMP JUMPDEST SWAP2 POP PUSH2 0x538 DUP4 PUSH2 0x2FF JUMP JUMPDEST SWAP3 POP DUP3 DUP3 ADD SWAP1 POP DUP1 DUP3 GT ISZERO PUSH2 0x550 JUMPI PUSH2 0x54F PUSH2 0x4F6 JUMP JUMPDEST JUMPDEST SWAP3 SWAP2 POP POP JUMP JUMPDEST PUSH2 0x13DF DUP1 PUSH2 0x563 PUSH0 CODECOPY PUSH0 RETURN INVALID PUSH1 0x80 PUSH1 0x40 MSTORE PUSH1 0x4 CALLDATASIZE LT PUSH2 0x90 JUMPI PUSH0 CALLDATALOAD PUSH1 0xE0 SHR DUP1 PUSH4 0x93BEBEE8 GT PUSH2 0x58 JUMPI DUP1 PUSH4 0x93BEBEE8 EQ PUSH2 0x130 JUMPI DUP1 PUSH4 0xD353A1CB EQ PUSH2 0x16F JUMPI DUP1 PUSH4 0xE1489191 EQ PUSH2 0x197 JUMPI DUP1 PUSH4 0xF240F7C3 EQ PUSH2 0x1C1 JUMPI DUP1 PUSH4 0xF93882E3 EQ PUSH2 0x1F1 JUMPI PUSH2 0x90 JUMP JUMPDEST DUP1 PUSH4 0x121DE3F6 EQ PUSH2 0x94 JUMPI DUP1 PUSH4 0x4055B168 EQ PUSH2 0xBE JUMPI DUP1 PUSH4 0x4E71D92D EQ PUSH2 0xD4 JUMPI DUP1 PUSH4 0x69B10852 EQ PUSH2 0xEA JUMPI DUP1 PUSH4 0x7365870B EQ PUSH2 0x114 JUMPI JUMPDEST PUSH0 DUP1 REVERT JUMPDEST CALLVALUE DUP1 ISZERO PUSH2 0x9F JUMPI PUSH0 DUP1 REVERT JUMPDEST POP PUSH2 0xA8 PUSH2 0x21B JUMP JUMPDEST PUSH1 0x40 MLOAD PUSH2 0xB5 SWAP2 SWAP1 PUSH2 0xBC1 JUMP JUMPDEST PUSH1 0x40 MLOAD DUP1 SWAP2 SUB SWAP1 RETURN JUMPDEST CALLVALUE DUP1 ISZERO PUSH2 0xC9 JUMPI PUSH0 DUP1 REVERT JUMPDEST POP PUSH2 0xD2 PUSH2 0x221 JUMP JUMPDEST STOP JUMPDEST CALLVALUE DUP1 ISZERO PUSH2 0xDF JUMPI PUSH0 DUP1 REVERT JUMPDEST POP PUSH2 0xE8 PUSH2 0x3C8 JUMP JUMPDEST STOP JUMPDEST CALLVALUE DUP1 ISZERO PUSH2 0xF5 JUMPI PUSH0 DUP1 REVERT JUMPDEST POP PUSH2 0xFE PUSH2 0x58D JUMP JUMPDEST PUSH1 0x40 MLOAD PUSH2 0x10B SWAP2 SWAP1 PUSH2 0xBF4 JUMP JUMPDEST PUSH1 0x40 MLOAD DUP1 SWAP2 SUB SWAP1 RETURN JUMPDEST PUSH2 0x12E PUSH1 0x4 DUP1 CALLDATASIZE SUB DUP2 ADD SWAP1 PUSH2 0x129 SWAP2 SWAP1 PUSH2 0xC3B JUMP JUMPDEST PUSH2 0x59F JUMP JUMPDEST STOP JUMPDEST CALLVALUE DUP1 ISZERO PUSH2 0x13B JUMPI PUSH0 DUP1 REVERT JUMPDEST POP PUSH2 0x156 PUSH1 0x4 DUP1 CALLDATASIZE SUB DUP2 ADD SWAP1 PUSH2 0x151 SWAP2 SWAP1 PUSH2 0xCC0 JUMP JUMPDEST PUSH2 0x78B JUMP JUMPDEST PUSH1 0x40 MLOAD PUSH2 0x166 SWAP5 SWAP4 SWAP3 SWAP2 SWAP1 PUSH2 0xCEB JUMP JUMPDEST PUSH1 0x40 MLOAD DUP1 SWAP2 SUB SWAP1 RETURN JUMPDEST CALLVALUE DUP1 ISZERO PUSH2 0x17A JUMPI PUSH0 DUP1 REVERT JUMPDEST POP PUSH2 0x195 PUSH1 0x4 DUP1 CALLDATASIZE SUB DUP2 ADD SWAP1 PUSH2 0x190 SWAP2 SWAP1 PUSH2 0xC3B JUMP JUMPDEST PUSH2 0x7B7 JUMP JUMPDEST STOP JUMPDEST CALLVALUE DUP1 ISZERO PUSH2 0x1A2 JUMPI PUSH0 DUP1 REVERT JUMPDEST POP PUSH2 0x1AB PUSH2 0x933 JUMP JUMPDEST PUSH1 0x40 MLOAD PUSH2 0x1B8 SWAP2 SWAP1 PUSH2 0xBC1 JUMP JUMPDEST PUSH1 0x40 MLOAD DUP1 SWAP2 SUB SWAP1 RETURN JUMPDEST CALLVALUE DUP1 ISZERO PUSH2 0x1CC JUMPI PUSH0 DUP1 REVERT JUMPDEST POP PUSH2 0x1D5 PUSH2 0x939 JUMP JUMPDEST PUSH1 0x40 MLOAD PUSH2 0x1E8 SWAP8 SWAP7 SWAP6 SWAP5 SWAP4 SWAP3 SWAP2 SWAP1 PUSH2 0xD9E JUMP JUMPDEST PUSH1 0x40 MLOAD DUP1 SWAP2 SUB SWAP1 RETURN JUMPDEST CALLVALUE DUP1 ISZERO PUSH2 0x1FC JUMPI PUSH0 DUP1 REVERT JUMPDEST POP PUSH2 0x205 PUSH2 0xB7F JUMP JUMPDEST PUSH1 0x40 MLOAD PUSH2 0x212 SWAP2 SWAP1 PUSH2 0xBC1 JUMP JUMPDEST PUSH1 0x40 MLOAD DUP1 SWAP2 SUB SWAP1 RETURN JUMPDEST PUSH1 0xA SLOAD DUP2 JUMP JUMPDEST PUSH1 0x8 PUSH0 SWAP1 SLOAD SWAP1 PUSH2 0x100 EXP SWAP1 DIV PUSH20 0xFFFFFFFFFFFFFFFFFFFFFFFFFFFFFFFFFFFFFFFF AND PUSH20 0xFFFFFFFFFFFFFFFFFFFFFFFFFFFFFFFFFFFFFFFF AND CALLER PUSH20 0xFFFFFFFFFFFFFFFFFFFFFFFFFFFFFFFFFFFFFFFF AND EQ PUSH2 0x2B0 JUMPI PUSH1 0x40 MLOAD PUSH32 0x8C379A000000000000000000000000000000000000000000000000000000000 DUP2 MSTORE PUSH1 0x4 ADD PUSH2 0x2A7 SWAP1 PUSH2 0xE97 JUMP JUMPDEST PUSH1 0x40 MLOAD DUP1 SWAP2 SUB SWAP1 REVERT JUMPDEST PUSH0 DUP1 PUSH1 0x6 ADD SLOAD GT PUSH2 0x2F6 JUMPI PUSH1 0x40 MLOAD PUSH32 0x8C379A000000000000000000000000000000000000000000000000000000000 DUP2 MSTORE PUSH1 0x4 ADD PUSH2 0x2ED SWAP1 PUSH2 0xF25 JUMP JUMPDEST PUSH1 0x40 MLOAD DUP1 SWAP2 SUB SWAP1 REVERT JUMPDEST PUSH1 0xD PUSH0 SWAP1 SLOAD SWAP1 PUSH2 0x100 EXP SWAP1 DIV PUSH1 0xFF AND ISZERO PUSH2 0x345 JUMPI PUSH1 0x40 MLOAD PUSH32 0x8C379A000000000000000000000000000000000000000000000000000000000 DUP2 MSTORE PUSH1 0x4 ADD PUSH2 0x33C SWAP1 PUSH2 0xF8D JUMP JUMPDEST PUSH1 0x40 MLOAD DUP1 SWAP2 SUB SWAP1 REVERT JUMPDEST PUSH1 0x1 PUSH1 0xD PUSH0 PUSH2 0x100 EXP DUP2 SLOAD DUP2 PUSH1 0xFF MUL NOT AND SWAP1 DUP4 ISZERO ISZERO MUL OR SWAP1 SSTORE POP PUSH1 0x8 PUSH0 SWAP1 SLOAD SWAP1 PUSH2 0x100 EXP SWAP1 DIV PUSH20 0xFFFFFFFFFFFFFFFFFFFFFFFFFFFFFFFFFFFFFFFF AND PUSH20 0xFFFFFFFFFFFFFFFFFFFFFFFFFFFFFFFFFFFFFFFF AND PUSH2 0x8FC PUSH1 0xC SLOAD SWAP1 DUP2 ISZERO MUL SWAP1 PUSH1 0x40 MLOAD PUSH0 PUSH1 0x40 MLOAD DUP1 DUP4 SUB DUP2 DUP6 DUP9 DUP9 CALL SWAP4 POP POP POP POP ISZERO DUP1 ISZERO PUSH2 0x3C5 JUMPI RETURNDATASIZE PUSH0 DUP1 RETURNDATACOPY RETURNDATASIZE PUSH0 REVERT JUMPDEST POP JUMP JUMPDEST PUSH0 PUSH1 0x7 PUSH0 CALLER PUSH20 0xFFFFFFFFFFFFFFFFFFFFFFFFFFFFFFFFFFFFFFFF AND PUSH20 0xFFFFFFFFFFFFFFFFFFFFFFFFFFFFFFFFFFFFFFFF AND DUP2 MSTORE PUSH1 0x20 ADD SWAP1 DUP2 MSTORE PUSH1 0x20 ADD PUSH0 KECCAK256 PUSH1 0x40 MLOAD DUP1 PUSH1 0x80 ADD PUSH1 0x40 MSTORE SWAP1 DUP2 PUSH0 DUP3 ADD SLOAD DUP2 MSTORE PUSH1 0x20 ADD PUSH1 0x1 DUP3 ADD SLOAD DUP2 MSTORE PUSH1 0x20 ADD PUSH1 0x2 DUP3 ADD SLOAD DUP2 MSTORE PUSH1 0x20 ADD PUSH1 0x3 DUP3 ADD SLOAD DUP2 MSTORE POP POP SWAP1 POP PUSH0 DUP1 PUSH1 0x6 ADD SLOAD GT DUP1 ISZERO PUSH2 0x454 JUMPI POP DUP1 PUSH1 0x20 ADD MLOAD PUSH0 PUSH1 0x6 ADD SLOAD EQ JUMPDEST DUP1 ISZERO PUSH2 0x463 JUMPI POP PUSH0 DUP2 PUSH1 0x60 ADD MLOAD EQ JUMPDEST PUSH2 0x4A2 JUMPI PUSH1 0x40 MLOAD PUSH32 0x8C379A000000000000000000000000000000000000000000000000000000000 DUP2 MSTORE PUSH1 0x4 ADD PUSH2 0x499 SWAP1 PUSH2 0xFF5 JUMP JUMPDEST PUSH1 0x40 MLOAD DUP1 SWAP2 SUB SWAP1 REVERT JUMPDEST PUSH0 PUSH1 0x1 PUSH0 PUSH1 0x6 ADD SLOAD EQ PUSH2 0x4B9 JUMPI PUSH0 PUSH1 0x5 ADD SLOAD PUSH2 0x4BF JUMP JUMPDEST PUSH0 PUSH1 0x4 ADD SLOAD JUMPDEST SWAP1 POP PUSH0 DUP2 PUSH2 0x2710 DUP5 PUSH0 ADD MLOAD PUSH2 0x4D4 SWAP2 SWAP1 PUSH2 0x1040 JUMP JUMPDEST PUSH2 0x4DE SWAP2 SWAP1 PUSH2 0x10AE JUMP JUMPDEST SWAP1 POP PUSH0 PUSH2 0x2710 DUP3 PUSH1 0xA SLOAD PUSH2 0x4F2 SWAP2 SWAP1 PUSH2 0x1040 JUMP JUMPDEST PUSH2 0x4FC SWAP2 SWAP1 PUSH2 0x10AE JUMP JUMPDEST SWAP1 POP DUP1 PUSH1 0x7 PUSH0 CALLER PUSH20 0xFFFFFFFFFFFFFFFFFFFFFFFFFFFFFFFFFFFFFFFF AND PUSH20 0xFFFFFFFFFFFFFFFFFFFFFFFFFFFFFFFFFFFFFFFF AND DUP2 MSTORE PUSH1 0x20 ADD SWAP1 DUP2 MSTORE PUSH1 0x20 ADD PUSH0 KECCAK256 PUSH1 0x3 ADD DUP2 SWAP1 SSTORE POP CALLER PUSH20 0xFFFFFFFFFFFFFFFFFFFFFFFFFFFFFFFFFFFFFFFF AND PUSH2 0x8FC DUP3 SWAP1 DUP2 ISZERO MUL SWAP1 PUSH1 0x40 MLOAD PUSH0 PUSH1 0x40 MLOAD DUP1 DUP4 SUB DUP2 DUP6 DUP9 DUP9 CALL SWAP4 POP POP POP POP ISZERO DUP1 ISZERO PUSH2 0x586 JUMPI RETURNDATASIZE PUSH0 DUP1 RETURNDATACOPY RETURNDATASIZE PUSH0 REVERT JUMPDEST POP POP POP POP POP JUMP JUMPDEST PUSH1 0xD PUSH0 SWAP1 SLOAD SWAP1 PUSH2 0x100 EXP SWAP1 DIV PUSH1 0xFF AND DUP2 JUMP JUMPDEST PUSH1 0xB SLOAD TIMESTAMP LT PUSH2 0x5E3 JUMPI PUSH1 0x40 MLOAD PUSH32 0x8C379A000000000000000000000000000000000000000000000000000000000 DUP2 MSTORE PUSH1 0x4 ADD PUSH2 0x5DA SWAP1 PUSH2 0x1128 JUMP JUMPDEST PUSH1 0x40 MLOAD DUP1 SWAP2 SUB SWAP1 REVERT JUMPDEST PUSH1 0x1 DUP2 EQ DUP1 PUSH2 0x5F2 JUMPI POP PUSH1 0x2 DUP2 EQ JUMPDEST PUSH2 0x631 JUMPI PUSH1 0x40 MLOAD PUSH32 0x8C379A000000000000000000000000000000000000000000000000000000000 DUP2 MSTORE PUSH1 0x4 ADD PUSH2 0x628 SWAP1 PUSH2 0x1190 JUMP JUMPDEST PUSH1 0x40 MLOAD DUP1 SWAP2 SUB SWAP1 REVERT JUMPDEST PUSH0 CALLVALUE GT PUSH2 0x673 JUMPI PUSH1 0x40 MLOAD PUSH32 0x8C379A000000000000000000000000000000000000000000000000000000000 DUP2 MSTORE PUSH1 0x4 ADD PUSH2 0x66A SWAP1 PUSH2 0x11F8 JUMP JUMPDEST PUSH1 0x40 MLOAD DUP1 SWAP2 SUB SWAP1 REVERT JUMPDEST PUSH0 DUP1 PUSH1 0x6 ADD SLOAD EQ PUSH2 0x6B9 JUMPI PUSH1 0x40 MLOAD PUSH32 0x8C379A000000000000000000000000000000000000000000000000000000000 DUP2 MSTORE PUSH1 0x4 ADD PUSH2 0x6B0 SWAP1 PUSH2 0x1260 JUMP JUMPDEST PUSH1 0x40 MLOAD DUP1 SWAP2 SUB SWAP1 REVERT JUMPDEST PUSH2 0x6C1 PUSH2 0xB85 JUMP JUMPDEST CALLVALUE DUP2 PUSH0 ADD DUP2 DUP2 MSTORE POP POP DUP2 DUP2 PUSH1 0x20 ADD DUP2 DUP2 MSTORE POP POP TIMESTAMP DUP2 PUSH1 0x40 ADD DUP2 DUP2 MSTORE POP POP DUP1 PUSH1 0x7 PUSH0 CALLER PUSH20 0xFFFFFFFFFFFFFFFFFFFFFFFFFFFFFFFFFFFFFFFF AND PUSH20 0xFFFFFFFFFFFFFFFFFFFFFFFFFFFFFFFFFFFFFFFF AND DUP2 MSTORE PUSH1 0x20 ADD SWAP1 DUP2 MSTORE PUSH1 0x20 ADD PUSH0 KECCAK256 PUSH0 DUP3 ADD MLOAD DUP2 PUSH0 ADD SSTORE PUSH1 0x20 DUP3 ADD MLOAD DUP2 PUSH1 0x1 ADD SSTORE PUSH1 0x40 DUP3 ADD MLOAD DUP2 PUSH1 0x2 ADD SSTORE PUSH1 0x60 DUP3 ADD MLOAD DUP2 PUSH1 0x3 ADD SSTORE SWAP1 POP POP PUSH1 0x1 DUP3 SUB PUSH2 0x76C JUMPI CALLVALUE PUSH0 PUSH1 0x4 ADD PUSH0 DUP3 DUP3 SLOAD PUSH2 0x760 SWAP2 SWAP1 PUSH2 0x127E JUMP JUMPDEST SWAP3 POP POP DUP2 SWAP1 SSTORE POP PUSH2 0x787 JUMP JUMPDEST CALLVALUE PUSH0 PUSH1 0x5 ADD PUSH0 DUP3 DUP3 SLOAD PUSH2 0x77F SWAP2 SWAP1 PUSH2 0x127E JUMP JUMPDEST SWAP3 POP POP DUP2 SWAP1 SSTORE POP JUMPDEST POP POP JUMP JUMPDEST PUSH1 0x7 PUSH1 0x20 MSTORE DUP1 PUSH0 MSTORE PUSH1 0x40 PUSH0 KECCAK256 PUSH0 SWAP2 POP SWAP1 POP DUP1 PUSH0 ADD SLOAD SWAP1 DUP1 PUSH1 0x1 ADD SLOAD SWAP1 DUP1 PUSH1 0x2 ADD SLOAD SWAP1 DUP1 PUSH1 0x3 ADD SLOAD SWAP1 POP DUP5 JUMP JUMPDEST PUSH1 0x8 PUSH0 SWAP1 SLOAD SWAP1 PUSH2 0x100 EXP SWAP1 DIV PUSH20 0xFFFFFFFFFFFFFFFFFFFFFFFFFFFFFFFFFFFFFFFF AND PUSH20 0xFFFFFFFFFFFFFFFFFFFFFFFFFFFFFFFFFFFFFFFF AND CALLER PUSH20 0xFFFFFFFFFFFFFFFFFFFFFFFFFFFFFFFFFFFFFFFF AND EQ PUSH2 0x846 JUMPI PUSH1 0x40 MLOAD PUSH32 0x8C379A000000000000000000000000000000000000000000000000000000000 DUP2 MSTORE PUSH1 0x4 ADD PUSH2 0x83D SWAP1 PUSH2 0x12FB JUMP JUMPDEST PUSH1 0x40 MLOAD DUP1 SWAP2 SUB SWAP1 REVERT JUMPDEST PUSH1 0x1 DUP2 EQ DUP1 PUSH2 0x855 JUMPI POP PUSH1 0x2 DUP2 EQ JUMPDEST PUSH2 0x894 JUMPI PUSH1 0x40 MLOAD PUSH32 0x8C379A000000000000000000000000000000000000000000000000000000000 DUP2 MSTORE PUSH1 0x4 ADD PUSH2 0x88B SWAP1 PUSH2 0x1190 JUMP JUMPDEST PUSH1 0x40 MLOAD DUP1 SWAP2 SUB SWAP1 REVERT JUMPDEST PUSH0 DUP1 PUSH1 0x6 ADD SLOAD EQ PUSH2 0x8DA JUMPI PUSH1 0x40 MLOAD PUSH32 0x8C379A000000000000000000000000000000000000000000000000000000000 DUP2 MSTORE PUSH1 0x4 ADD PUSH2 0x8D1 SWAP1 PUSH2 0x1260 JUMP JUMPDEST PUSH1 0x40 MLOAD DUP1 SWAP2 SUB SWAP1 REVERT JUMPDEST DUP1 PUSH0 PUSH1 0x6 ADD DUP2 SWAP1 SSTORE POP PUSH0 DUP1 PUSH1 0x5 ADD SLOAD PUSH0 PUSH1 0x4 ADD SLOAD PUSH2 0x8F8 SWAP2 SWAP1 PUSH2 0x127E JUMP JUMPDEST SWAP1 POP PUSH2 0x2710 PUSH1 0x9 SLOAD DUP3 PUSH2 0x90B SWAP2 SWAP1 PUSH2 0x1040 JUMP JUMPDEST PUSH2 0x915 SWAP2 SWAP1 PUSH2 0x10AE JUMP JUMPDEST PUSH1 0xC DUP2 SWAP1 SSTORE POP PUSH1 0xC SLOAD DUP2 PUSH2 0x929 SWAP2 SWAP1 PUSH2 0x1319 JUMP JUMPDEST PUSH1 0xA DUP2 SWAP1 SSTORE POP POP POP JUMP JUMPDEST PUSH1 0xC SLOAD DUP2 JUMP JUMPDEST PUSH0 DUP1 PUSH0 ADD DUP1 SLOAD PUSH2 0x948 SWAP1 PUSH2 0x1379 JUMP JUMPDEST DUP1 PUSH1 0x1F ADD PUSH1 0x20 DUP1 SWAP2 DIV MUL PUSH1 0x20 ADD PUSH1 0x40 MLOAD SWAP1 DUP2 ADD PUSH1 0x40 MSTORE DUP1 SWAP3 SWAP2 SWAP1 DUP2 DUP2 MSTORE PUSH1 0x20 ADD DUP3 DUP1 SLOAD PUSH2 0x974 SWAP1 PUSH2 0x1379 JUMP JUMPDEST DUP1 ISZERO PUSH2 0x9BF JUMPI DUP1 PUSH1 0x1F LT PUSH2 0x996 JUMPI PUSH2 0x100 DUP1 DUP4 SLOAD DIV MUL DUP4 MSTORE SWAP2 PUSH1 0x20 ADD SWAP2 PUSH2 0x9BF JUMP JUMPDEST DUP3 ADD SWAP2 SWAP1 PUSH0 MSTORE PUSH1 0x20 PUSH0 KECCAK256 SWAP1 JUMPDEST DUP2 SLOAD DUP2 MSTORE SWAP1 PUSH1 0x1 ADD SWAP1 PUSH1 0x20 ADD DUP1 DUP4 GT PUSH2 0x9A2 JUMPI DUP3 SWAP1 SUB PUSH1 0x1F AND DUP3 ADD SWAP2 JUMPDEST POP POP POP POP POP SWAP1 DUP1 PUSH1 0x1 ADD DUP1 SLOAD PUSH2 0x9D4 SWAP1 PUSH2 0x1379 JUMP JUMPDEST DUP1 PUSH1 0x1F ADD PUSH1 0x20 DUP1 SWAP2 DIV MUL PUSH1 0x20 ADD PUSH1 0x40 MLOAD SWAP1 DUP2 ADD PUSH1 0x40 MSTORE DUP1 SWAP3 SWAP2 SWAP1 DUP2 DUP2 MSTORE PUSH1 0x20 ADD DUP3 DUP1 SLOAD PUSH2 0xA00 SWAP1 PUSH2 0x1379 JUMP JUMPDEST DUP1 ISZERO PUSH2 0xA4B JUMPI DUP1 PUSH1 0x1F LT PUSH2 0xA22 JUMPI PUSH2 0x100 DUP1 DUP4 SLOAD DIV MUL DUP4 MSTORE SWAP2 PUSH1 0x20 ADD SWAP2 PUSH2 0xA4B JUMP JUMPDEST DUP3 ADD SWAP2 SWAP1 PUSH0 MSTORE PUSH1 0x20 PUSH0 KECCAK256 SWAP1 JUMPDEST DUP2 SLOAD DUP2 MSTORE SWAP1 PUSH1 0x1 ADD SWAP1 PUSH1 0x20 ADD DUP1 DUP4 GT PUSH2 0xA2E JUMPI DUP3 SWAP1 SUB PUSH1 0x1F AND DUP3 ADD SWAP2 JUMPDEST POP POP POP POP POP SWAP1 DUP1 PUSH1 0x2 ADD DUP1 SLOAD PUSH2 0xA60 SWAP1 PUSH2 0x1379 JUMP JUMPDEST DUP1 PUSH1 0x1F ADD PUSH1 0x20 DUP1 SWAP2 DIV MUL PUSH1 0x20 ADD PUSH1 0x40 MLOAD SWAP1 DUP2 ADD PUSH1 0x40 MSTORE DUP1 SWAP3 SWAP2 SWAP1 DUP2 DUP2 MSTORE PUSH1 0x20 ADD DUP3 DUP1 SLOAD PUSH2 0xA8C SWAP1 PUSH2 0x1379 JUMP JUMPDEST DUP1 ISZERO PUSH2 0xAD7 JUMPI DUP1 PUSH1 0x1F LT PUSH2 0xAAE JUMPI PUSH2 0x100 DUP1 DUP4 SLOAD DIV MUL DUP4 MSTORE SWAP2 PUSH1 0x20 ADD SWAP2 PUSH2 0xAD7 JUMP JUMPDEST DUP3 ADD SWAP2 SWAP1 PUSH0 MSTORE PUSH1 0x20 PUSH0 KECCAK256 SWAP1 JUMPDEST DUP2 SLOAD DUP2 MSTORE SWAP1 PUSH1 0x1 ADD SWAP1 PUSH1 0x20 ADD DUP1 DUP4 GT PUSH2 0xABA JUMPI DUP3 SWAP1 SUB PUSH1 0x1F AND DUP3 ADD SWAP2 JUMPDEST POP POP POP POP POP SWAP1 DUP1 PUSH1 0x3 ADD DUP1 SLOAD PUSH2 0xAEC SWAP1 PUSH2 0x1379 JUMP JUMPDEST DUP1 PUSH1 0x1F ADD PUSH1 0x20 DUP1 SWAP2 DIV MUL PUSH1 0x20 ADD PUSH1 0x40 MLOAD SWAP1 DUP2 ADD PUSH1 0x40 MSTORE DUP1 SWAP3 SWAP2 SWAP1 DUP2 DUP2 MSTORE PUSH1 0x20 ADD DUP3 DUP1 SLOAD PUSH2 0xB18 SWAP1 PUSH2 0x1379 JUMP JUMPDEST DUP1 ISZERO PUSH2 0xB63 JUMPI DUP1 PUSH1 0x1F LT PUSH2 0xB3A JUMPI PUSH2 0x100 DUP1 DUP4 SLOAD DIV MUL DUP4 MSTORE SWAP2 PUSH1 0x20 ADD SWAP2 PUSH2 0xB63 JUMP JUMPDEST DUP3 ADD SWAP2 SWAP1 PUSH0 MSTORE PUSH1 0x20 PUSH0 KECCAK256 SWAP1 JUMPDEST DUP2 SLOAD DUP2 MSTORE SWAP1 PUSH1 0x1 ADD SWAP1 PUSH1 0x20 ADD DUP1 DUP4 GT PUSH2 0xB46 JUMPI DUP3 SWAP1 SUB PUSH1 0x1F AND DUP3 ADD SWAP2 JUMPDEST POP POP POP POP POP SWAP1 DUP1 PUSH1 0x4 ADD SLOAD SWAP1 DUP1 PUSH1 0x5 ADD SLOAD SWAP1 DUP1 PUSH1 0x6 ADD SLOAD SWAP1 POP DUP8 JUMP JUMPDEST PUSH1 0xB SLOAD DUP2 JUMP JUMPDEST PUSH1 0x40 MLOAD DUP1 PUSH1 0x80 ADD PUSH1 0x40 MSTORE DUP1 PUSH0 DUP2 MSTORE PUSH1 0x20 ADD PUSH0 DUP2 MSTORE PUSH1 0x20 ADD PUSH0 DUP2 MSTORE PUSH1 0x20 ADD PUSH0 DUP2 MSTORE POP SWAP1 JUMP JUMPDEST PUSH0 DUP2 SWAP1 POP SWAP2 SWAP1 POP JUMP JUMPDEST PUSH2 0xBBB DUP2 PUSH2 0xBA9 JUMP JUMPDEST DUP3 MSTORE POP POP JUMP JUMPDEST PUSH0 PUSH1 0x20 DUP3 ADD SWAP1 POP PUSH2 0xBD4 PUSH0 DUP4 ADD DUP5 PUSH2 0xBB2 JUMP JUMPDEST SWAP3 SWAP2 POP POP JUMP JUMPDEST PUSH0 DUP2 ISZERO ISZERO SWAP1 POP SWAP2 SWAP1 POP JUMP JUMPDEST PUSH2 0xBEE DUP2 PUSH2 0xBDA JUMP JUMPDEST DUP3 MSTORE POP POP JUMP JUMPDEST PUSH0 PUSH1 0x20 DUP3 ADD SWAP1 POP PUSH2 0xC07 PUSH0 DUP4 ADD DUP5 PUSH2 0xBE5 JUMP JUMPDEST SWAP3 SWAP2 POP POP JUMP JUMPDEST PUSH0 DUP1 REVERT JUMPDEST PUSH2 0xC1A DUP2 PUSH2 0xBA9 JUMP JUMPDEST DUP2 EQ PUSH2 0xC24 JUMPI PUSH0 DUP1 REVERT JUMPDEST POP JUMP JUMPDEST PUSH0 DUP2 CALLDATALOAD SWAP1 POP PUSH2 0xC35 DUP2 PUSH2 0xC11 JUMP JUMPDEST SWAP3 SWAP2 POP POP JUMP JUMPDEST PUSH0 PUSH1 0x20 DUP3 DUP5 SUB SLT ISZERO PUSH2 0xC50 JUMPI PUSH2 0xC4F PUSH2 0xC0D JUMP JUMPDEST JUMPDEST PUSH0 PUSH2 0xC5D DUP5 DUP3 DUP6 ADD PUSH2 0xC27 JUMP JUMPDEST SWAP2 POP POP SWAP3 SWAP2 POP POP JUMP JUMPDEST PUSH0 PUSH20 0xFFFFFFFFFFFFFFFFFFFFFFFFFFFFFFFFFFFFFFFF DUP3 AND SWAP1 POP SWAP2 SWAP1 POP JUMP JUMPDEST PUSH0 PUSH2 0xC8F DUP3 PUSH2 0xC66 JUMP JUMPDEST SWAP1 POP SWAP2 SWAP1 POP JUMP JUMPDEST PUSH2 0xC9F DUP2 PUSH2 0xC85 JUMP JUMPDEST DUP2 EQ PUSH2 0xCA9 JUMPI PUSH0 DUP1 REVERT JUMPDEST POP JUMP JUMPDEST PUSH0 DUP2 CALLDATALOAD SWAP1 POP PUSH2 0xCBA DUP2 PUSH2 0xC96 JUMP JUMPDEST SWAP3 SWAP2 POP POP JUMP JUMPDEST PUSH0 PUSH1 0x20 DUP3 DUP5 SUB SLT ISZERO PUSH2 0xCD5 JUMPI PUSH2 0xCD4 PUSH2 0xC0D JUMP JUMPDEST JUMPDEST PUSH0 PUSH2 0xCE2 DUP5 DUP3 DUP6 ADD PUSH2 0xCAC JUMP JUMPDEST SWAP2 POP POP SWAP3 SWAP2 POP POP JUMP JUMPDEST PUSH0 PUSH1 0x80 DUP3 ADD SWAP1 POP PUSH2 0xCFE PUSH0 DUP4 ADD DUP8 PUSH2 0xBB2 JUMP JUMPDEST PUSH2 0xD0B PUSH1 0x20 DUP4 ADD DUP7 PUSH2 0xBB2 JUMP JUMPDEST PUSH2 0xD18 PUSH1 0x40 DUP4 ADD DUP6 PUSH2 0xBB2 JUMP JUMPDEST PUSH2 0xD25 PUSH1 0x60 DUP4 ADD DUP5 PUSH2 0xBB2 JUMP JUMPDEST SWAP6 SWAP5 POP POP POP POP POP JUMP JUMPDEST PUSH0 DUP2 MLOAD SWAP1 POP SWAP2 SWAP1 POP JUMP JUMPDEST PUSH0 DUP3 DUP3 MSTORE PUSH1 0x20 DUP3 ADD SWAP1 POP SWAP3 SWAP2 POP POP JUMP JUMPDEST DUP3 DUP2 DUP4 MCOPY PUSH0 DUP4 DUP4 ADD MSTORE POP POP POP JUMP JUMPDEST PUSH0 PUSH1 0x1F NOT PUSH1 0x1F DUP4 ADD AND SWAP1 POP SWAP2 SWAP1 POP JUMP JUMPDEST PUSH0 PUSH2 0xD70 DUP3 PUSH2 0xD2E JUMP JUMPDEST PUSH2 0xD7A DUP2 DUP6 PUSH2 0xD38 JUMP JUMPDEST SWAP4 POP PUSH2 0xD8A DUP2 DUP6 PUSH1 0x20 DUP7 ADD PUSH2 0xD48 JUMP JUMPDEST PUSH2 0xD93 DUP2 PUSH2 0xD56 JUMP JUMPDEST DUP5 ADD SWAP2 POP POP SWAP3 SWAP2 POP POP JUMP JUMPDEST PUSH0 PUSH1 0xE0 DUP3 ADD SWAP1 POP DUP2 DUP2 SUB PUSH0 DUP4 ADD MSTORE PUSH2 0xDB6 DUP2 DUP11 PUSH2 0xD66 JUMP JUMPDEST SWAP1 POP DUP2 DUP2 SUB PUSH1 0x20 DUP4 ADD MSTORE PUSH2 0xDCA DUP2 DUP10 PUSH2 0xD66 JUMP JUMPDEST SWAP1 POP DUP2 DUP2 SUB PUSH1 0x40 DUP4 ADD MSTORE PUSH2 0xDDE DUP2 DUP9 PUSH2 0xD66 JUMP JUMPDEST SWAP1 POP DUP2 DUP2 SUB PUSH1 0x60 DUP4 ADD MSTORE PUSH2 0xDF2 DUP2 DUP8 PUSH2 0xD66 JUMP JUMPDEST SWAP1 POP PUSH2 0xE01 PUSH1 0x80 DUP4 ADD DUP7 PUSH2 0xBB2 JUMP JUMPDEST PUSH2 0xE0E PUSH1 0xA0 DUP4 ADD DUP6 PUSH2 0xBB2 JUMP JUMPDEST PUSH2 0xE1B PUSH1 0xC0 DUP4 ADD DUP5 PUSH2 0xBB2 JUMP JUMPDEST SWAP9 SWAP8 POP POP POP POP POP POP POP POP JUMP JUMPDEST PUSH32 0x536F6D656E7465206F2070726F70726965746172696F20706F64652073616361 PUSH0 DUP3 ADD MSTORE PUSH32 0x72206120636F6D697373616F0000000000000000000000000000000000000000 PUSH1 0x20 DUP3 ADD MSTORE POP JUMP JUMPDEST PUSH0 PUSH2 0xE81 PUSH1 0x2C DUP4 PUSH2 0xD38 JUMP JUMPDEST SWAP2 POP PUSH2 0xE8C DUP3 PUSH2 0xE27 JUMP JUMPDEST PUSH1 0x40 DUP3 ADD SWAP1 POP SWAP2 SWAP1 POP JUMP JUMPDEST PUSH0 PUSH1 0x20 DUP3 ADD SWAP1 POP DUP2 DUP2 SUB PUSH0 DUP4 ADD MSTORE PUSH2 0xEAE DUP2 PUSH2 0xE75 JUMP JUMPDEST SWAP1 POP SWAP2 SWAP1 POP JUMP JUMPDEST PUSH32 0x4120646973707574612061696E6461206E616F20666F692066696E616C697A61 PUSH0 DUP3 ADD MSTORE PUSH32 0x6461000000000000000000000000000000000000000000000000000000000000 PUSH1 0x20 DUP3 ADD MSTORE POP JUMP JUMPDEST PUSH0 PUSH2 0xF0F PUSH1 0x22 DUP4 PUSH2 0xD38 JUMP JUMPDEST SWAP2 POP PUSH2 0xF1A DUP3 PUSH2 0xEB5 JUMP JUMPDEST PUSH1 0x40 DUP3 ADD SWAP1 POP SWAP2 SWAP1 POP JUMP JUMPDEST PUSH0 PUSH1 0x20 DUP3 ADD SWAP1 POP DUP2 DUP2 SUB PUSH0 DUP4 ADD MSTORE PUSH2 0xF3C DUP2 PUSH2 0xF03 JUMP JUMPDEST SWAP1 POP SWAP2 SWAP1 POP JUMP JUMPDEST PUSH32 0x4120636F6D697373616F206A6120666F69207361636164610000000000000000 PUSH0 DUP3 ADD MSTORE POP JUMP JUMPDEST PUSH0 PUSH2 0xF77 PUSH1 0x18 DUP4 PUSH2 0xD38 JUMP JUMPDEST SWAP2 POP PUSH2 0xF82 DUP3 PUSH2 0xF43 JUMP JUMPDEST PUSH1 0x20 DUP3 ADD SWAP1 POP SWAP2 SWAP1 POP JUMP JUMPDEST PUSH0 PUSH1 0x20 DUP3 ADD SWAP1 POP DUP2 DUP2 SUB PUSH0 DUP4 ADD MSTORE PUSH2 0xFA4 DUP2 PUSH2 0xF6B JUMP JUMPDEST SWAP1 POP SWAP2 SWAP1 POP JUMP JUMPDEST PUSH32 0x5265736761746520696E76616C69646F00000000000000000000000000000000 PUSH0 DUP3 ADD MSTORE POP JUMP JUMPDEST PUSH0 PUSH2 0xFDF PUSH1 0x10 DUP4 PUSH2 0xD38 JUMP JUMPDEST SWAP2 POP PUSH2 0xFEA DUP3 PUSH2 0xFAB JUMP JUMPDEST PUSH1 0x20 DUP3 ADD SWAP1 POP SWAP2 SWAP1 POP JUMP JUMPDEST PUSH0 PUSH1 0x20 DUP3 ADD SWAP1 POP DUP2 DUP2 SUB PUSH0 DUP4 ADD MSTORE PUSH2 0x100C DUP2 PUSH2 0xFD3 JUMP JUMPDEST SWAP1 POP SWAP2 SWAP1 POP JUMP JUMPDEST PUSH32 0x4E487B7100000000000000000000000000000000000000000000000000000000 PUSH0 MSTORE PUSH1 0x11 PUSH1 0x4 MSTORE PUSH1 0x24 PUSH0 REVERT JUMPDEST PUSH0 PUSH2 0x104A DUP3 PUSH2 0xBA9 JUMP JUMPDEST SWAP2 POP PUSH2 0x1055 DUP4 PUSH2 0xBA9 JUMP JUMPDEST SWAP3 POP DUP3 DUP3 MUL PUSH2 0x1063 DUP2 PUSH2 0xBA9 JUMP JUMPDEST SWAP2 POP DUP3 DUP3 DIV DUP5 EQ DUP4 ISZERO OR PUSH2 0x107A JUMPI PUSH2 0x1079 PUSH2 0x1013 JUMP JUMPDEST JUMPDEST POP SWAP3 SWAP2 POP POP JUMP JUMPDEST PUSH32 0x4E487B7100000000000000000000000000000000000000000000000000000000 PUSH0 MSTORE PUSH1 0x12 PUSH1 0x4 MSTORE PUSH1 0x24 PUSH0 REVERT JUMPDEST PUSH0 PUSH2 0x10B8 DUP3 PUSH2 0xBA9 JUMP JUMPDEST SWAP2 POP PUSH2 0x10C3 DUP4 PUSH2 0xBA9 JUMP JUMPDEST SWAP3 POP DUP3 PUSH2 0x10D3 JUMPI PUSH2 0x10D2 PUSH2 0x1081 JUMP JUMPDEST JUMPDEST DUP3 DUP3 DIV SWAP1 POP SWAP3 SWAP2 POP POP JUMP JUMPDEST PUSH32 0x4F20706572696F646F2064652061706F73746173206A61207465726D696E6F75 PUSH0 DUP3 ADD MSTORE POP JUMP JUMPDEST PUSH0 PUSH2 0x1112 PUSH1 0x20 DUP4 PUSH2 0xD38 JUMP JUMPDEST SWAP2 POP PUSH2 0x111D DUP3 PUSH2 0x10DE JUMP JUMPDEST PUSH1 0x20 DUP3 ADD SWAP1 POP SWAP2 SWAP1 POP JUMP JUMPDEST PUSH0 PUSH1 0x20 DUP3 ADD SWAP1 POP DUP2 DUP2 SUB PUSH0 DUP4 ADD MSTORE PUSH2 0x113F DUP2 PUSH2 0x1106 JUMP JUMPDEST SWAP1 POP SWAP2 SWAP1 POP JUMP JUMPDEST PUSH32 0x43616E64696461746F20696E76616C69646F0000000000000000000000000000 PUSH0 DUP3 ADD MSTORE POP JUMP JUMPDEST PUSH0 PUSH2 0x117A PUSH1 0x12 DUP4 PUSH2 0xD38 JUMP JUMPDEST SWAP2 POP PUSH2 0x1185 DUP3 PUSH2 0x1146 JUMP JUMPDEST PUSH1 0x20 DUP3 ADD SWAP1 POP SWAP2 SWAP1 POP JUMP JUMPDEST PUSH0 PUSH1 0x20 DUP3 ADD SWAP1 POP DUP2 DUP2 SUB PUSH0 DUP4 ADD MSTORE PUSH2 0x11A7 DUP2 PUSH2 0x116E JUMP JUMPDEST SWAP1 POP SWAP2 SWAP1 POP JUMP JUMPDEST PUSH32 0x41706F73746120696E76616C6964610000000000000000000000000000000000 PUSH0 DUP3 ADD MSTORE POP JUMP JUMPDEST PUSH0 PUSH2 0x11E2 PUSH1 0xF DUP4 PUSH2 0xD38 JUMP JUMPDEST SWAP2 POP PUSH2 0x11ED DUP3 PUSH2 0x11AE JUMP JUMPDEST PUSH1 0x20 DUP3 ADD SWAP1 POP SWAP2 SWAP1 POP JUMP JUMPDEST PUSH0 PUSH1 0x20 DUP3 ADD SWAP1 POP DUP2 DUP2 SUB PUSH0 DUP4 ADD MSTORE PUSH2 0x120F DUP2 PUSH2 0x11D6 JUMP JUMPDEST SWAP1 POP SWAP2 SWAP1 POP JUMP JUMPDEST PUSH32 0x4469737075746120656E63657272616461000000000000000000000000000000 PUSH0 DUP3 ADD MSTORE POP JUMP JUMPDEST PUSH0 PUSH2 0x124A PUSH1 0x11 DUP4 PUSH2 0xD38 JUMP JUMPDEST SWAP2 POP PUSH2 0x1255 DUP3 PUSH2 0x1216 JUMP JUMPDEST PUSH1 0x20 DUP3 ADD SWAP1 POP SWAP2 SWAP1 POP JUMP JUMPDEST PUSH0 PUSH1 0x20 DUP3 ADD SWAP1 POP DUP2 DUP2 SUB PUSH0 DUP4 ADD MSTORE PUSH2 0x1277 DUP2 PUSH2 0x123E JUMP JUMPDEST SWAP1 POP SWAP2 SWAP1 POP JUMP JUMPDEST PUSH0 PUSH2 0x1288 DUP3 PUSH2 0xBA9 JUMP JUMPDEST SWAP2 POP PUSH2 0x1293 DUP4 PUSH2 0xBA9 JUMP JUMPDEST SWAP3 POP DUP3 DUP3 ADD SWAP1 POP DUP1 DUP3 GT ISZERO PUSH2 0x12AB JUMPI PUSH2 0x12AA PUSH2 0x1013 JUMP JUMPDEST JUMPDEST SWAP3 SWAP2 POP POP JUMP JUMPDEST PUSH32 0x436F6E746120696E76616C696461000000000000000000000000000000000000 PUSH0 DUP3 ADD MSTORE POP JUMP JUMPDEST PUSH0 PUSH2 0x12E5 PUSH1 0xE DUP4 PUSH2 0xD38 JUMP JUMPDEST SWAP2 POP PUSH2 0x12F0 DUP3 PUSH2 0x12B1 JUMP JUMPDEST PUSH1 0x20 DUP3 ADD SWAP1 POP SWAP2 SWAP1 POP JUMP JUMPDEST PUSH0 PUSH1 0x20 DUP3 ADD SWAP1 POP DUP2 DUP2 SUB PUSH0 DUP4 ADD MSTORE PUSH2 0x1312 DUP2 PUSH2 0x12D9 JUMP JUMPDEST SWAP1 POP SWAP2 SWAP1 POP JUMP JUMPDEST PUSH0 PUSH2 0x1323 DUP3 PUSH2 0xBA9 JUMP JUMPDEST SWAP2 POP PUSH2 0x132E DUP4 PUSH2 0xBA9 JUMP JUMPDEST SWAP3 POP DUP3 DUP3 SUB SWAP1 POP DUP2 DUP2 GT ISZERO PUSH2 0x1346 JUMPI PUSH2 0x1345 PUSH2 0x1013 JUMP JUMPDEST JUMPDEST SWAP3 SWAP2 POP POP JUMP JUMPDEST PUSH32 0x4E487B7100000000000000000000000000000000000000000000000000000000 PUSH0 MSTORE PUSH1 0x22 PUSH1 0x4 MSTORE PUSH1 0x24 PUSH0 REVERT JUMPDEST PUSH0 PUSH1 0x2 DUP3 DIV SWAP1 POP PUSH1 0x1 DUP3 AND DUP1 PUSH2 0x1390 JUMPI PUSH1 0x7F DUP3 AND SWAP2 POP JUMPDEST PUSH1 0x20 DUP3 LT DUP2 SUB PUSH2 0x13A3 JUMPI PUSH2 0x13A2 PUSH2 0x134C JUMP JUMPDEST JUMPDEST POP SWAP2 SWAP1 POP JUMP INVALID LOG2 PUSH5 0x6970667358 0x22 SLT KECCAK256 0xE8 EXTCODESIZE SWAP13 SWAP10 PUSH1 0xFC SMOD STATICCALL PUSH1 0x13 NUMBER 0xD PUSH8 0xF12B04BC7D9FCA35 MLOAD 0x21 DUP11 0xE3 0xBE DUP5 PUSH3 0x90E007 TLOAD PUSH5 0x736F6C6343 STOP ADDMOD BYTE STOP CALLER "
				},
				"gasEstimates": {
					"creation": {
						"codeDepositCost": "1017400",
						"executionCost": "infinite",
						"totalCost": "infinite"
					},
					"external": {
						"allBets(address)": "infinite",
						"bet(uint256)": "infinite",
						"claim()": "infinite",
						"commission()": "2469",
						"commissionWithdrawn()": "2533",
						"dispute()": "infinite",
						"finish(uint256)": "infinite",
						"netPrize()": "2426",
						"prazoDaAposta()": "2513",
						"sacarComissao()": "infinite"
					}
				},
				"methodIdentifiers": {
					"allBets(address)": "93bebee8",
					"bet(uint256)": "7365870b",
					"claim()": "4e71d92d",
					"commission()": "e1489191",
					"commissionWithdrawn()": "69b10852",
					"dispute()": "f240f7c3",
					"finish(uint256)": "d353a1cb",
					"netPrize()": "121de3f6",
					"prazoDaAposta()": "f93882e3",
					"sacarComissao()": "4055b168"
				}
			},
			"storageLayout": {
				"storage": [
					{
						"astId": 28,
						"contract": "contracts/BetCandidate.sol:BetCandidate",
						"label": "dispute",
						"offset": 0,
						"slot": "0",
						"type": "t_struct(Dispute)25_storage"
					},
					{
						"astId": 33,
						"contract": "contracts/BetCandidate.sol:BetCandidate",
						"label": "allBets",
						"offset": 0,
						"slot": "7",
						"type": "t_mapping(t_address,t_struct(Bet)10_storage)"
					},
					{
						"astId": 35,
						"contract": "contracts/BetCandidate.sol:BetCandidate",
						"label": "owner",
						"offset": 0,
						"slot": "8",
						"type": "t_address"
					},
					{
						"astId": 38,
						"contract": "contracts/BetCandidate.sol:BetCandidate",
						"label": "fee",
						"offset": 0,
						"slot": "9",
						"type": "t_uint256"
					},
					{
						"astId": 40,
						"contract": "contracts/BetCandidate.sol:BetCandidate",
						"label": "netPrize",
						"offset": 0,
						"slot": "10",
						"type": "t_uint256"
					},
					{
						"astId": 42,
						"contract": "contracts/BetCandidate.sol:BetCandidate",
						"label": "prazoDaAposta",
						"offset": 0,
						"slot": "11",
						"type": "t_uint256"
					},
					{
						"astId": 44,
						"contract": "contracts/BetCandidate.sol:BetCandidate",
						"label": "commission",
						"offset": 0,
						"slot": "12",
						"type": "t_uint256"
					},
					{
						"astId": 46,
						"contract": "contracts/BetCandidate.sol:BetCandidate",
						"label": "commissionWithdrawn",
						"offset": 0,
						"slot": "13",
						"type": "t_bool"
					}
				],
				"types": {
					"t_address": {
						"encoding": "inplace",
						"label": "address",
						"numberOfBytes": "20"
					},
					"t_bool": {
						"encoding": "inplace",
						"label": "bool",
						"numberOfBytes": "1"
					},
					"t_mapping(t_address,t_struct(Bet)10_storage)": {
						"encoding": "mapping",
						"key": "t_address",
						"label": "mapping(address => struct Bet)",
						"numberOfBytes": "32",
						"value": "t_struct(Bet)10_storage"
					},
					"t_string_storage": {
						"encoding": "bytes",
						"label": "string",
						"numberOfBytes": "32"
					},
					"t_struct(Bet)10_storage": {
						"encoding": "inplace",
						"label": "struct Bet",
						"members": [
							{
								"astId": 3,
								"contract": "contracts/BetCandidate.sol:BetCandidate",
								"label": "amount",
								"offset": 0,
								"slot": "0",
								"type": "t_uint256"
							},
							{
								"astId": 5,
								"contract": "contracts/BetCandidate.sol:BetCandidate",
								"label": "candidate",
								"offset": 0,
								"slot": "1",
								"type": "t_uint256"
							},
							{
								"astId": 7,
								"contract": "contracts/BetCandidate.sol:BetCandidate",
								"label": "timestamp",
								"offset": 0,
								"slot": "2",
								"type": "t_uint256"
							},
							{
								"astId": 9,
								"contract": "contracts/BetCandidate.sol:BetCandidate",
								"label": "claimed",
								"offset": 0,
								"slot": "3",
								"type": "t_uint256"
							}
						],
						"numberOfBytes": "128"
					},
					"t_struct(Dispute)25_storage": {
						"encoding": "inplace",
						"label": "struct Dispute",
						"members": [
							{
								"astId": 12,
								"contract": "contracts/BetCandidate.sol:BetCandidate",
								"label": "candidate1",
								"offset": 0,
								"slot": "0",
								"type": "t_string_storage"
							},
							{
								"astId": 14,
								"contract": "contracts/BetCandidate.sol:BetCandidate",
								"label": "candidate2",
								"offset": 0,
								"slot": "1",
								"type": "t_string_storage"
							},
							{
								"astId": 16,
								"contract": "contracts/BetCandidate.sol:BetCandidate",
								"label": "image1",
								"offset": 0,
								"slot": "2",
								"type": "t_string_storage"
							},
							{
								"astId": 18,
								"contract": "contracts/BetCandidate.sol:BetCandidate",
								"label": "image2",
								"offset": 0,
								"slot": "3",
								"type": "t_string_storage"
							},
							{
								"astId": 20,
								"contract": "contracts/BetCandidate.sol:BetCandidate",
								"label": "total1",
								"offset": 0,
								"slot": "4",
								"type": "t_uint256"
							},
							{
								"astId": 22,
								"contract": "contracts/BetCandidate.sol:BetCandidate",
								"label": "total2",
								"offset": 0,
								"slot": "5",
								"type": "t_uint256"
							},
							{
								"astId": 24,
								"contract": "contracts/BetCandidate.sol:BetCandidate",
								"label": "winner",
								"offset": 0,
								"slot": "6",
								"type": "t_uint256"
							}
						],
						"numberOfBytes": "224"
					},
					"t_uint256": {
						"encoding": "inplace",
						"label": "uint256",
						"numberOfBytes": "32"
					}
				}
			},
			"userdoc": {
				"kind": "user",
				"methods": {},
				"version": 1
			}
		}
	}
}